:020000040800F2
:2000000000200020E92000086D1A0008D11A0008000000000000000000000000000000000D
:20002000000000000000000000000000F91A00080000000000000000151B0008311B000819
:200040000D2100080D2100080D2100080D2100080D2100080D2100080D2100080D210008F0
:200060000D2100080D2100080D2100080D2100080D2100080D210008000000000D21000806
:20008000000000000D2100080000000000000000691C0008000000000D2100080D21000831
:2000A0000D2100080D2100080D2100080D2100080D2100080D2100080D2100080D21000890
:2000C00010B5064C2378002B07D1054B002B02D0044800E000BF0123237010BDF00000209F
:2000E00000000000A8640008044B10B5002B03D00349044800E000BF10BDC04600000000D0
:20010000F4000020A864000803B47146490840004900095E49008E4403BC7047002243080A
:200120008B4274D303098B425FD3030A8B4244D3030B8B4228D3030C8B420DD3FF220902F1
:2001400012BA030C8B4202D31212090265D0030B8B4219D300E0090AC30B8B4201D3CB03C7
:20016000C01A5241830B8B4201D38B03C01A5241430B8B4201D34B03C01A5241030B8B4263
:2001800001D30B03C01A5241C30A8B4201D3CB02C01A5241830A8B4201D38B02C01A524140
:2001A000430A8B4201D34B02C01A5241030A8B4201D30B02C01A5241CDD2C3098B4201D363
:2001C000CB01C01A524183098B4201D38B01C01A524143098B4201D34B01C01A524103090E
:2001E0008B4201D30B01C01A5241C3088B4201D3CB00C01A524183088B4201D38B00C01AB0
:20020000524143088B4201D34B00C01A5241411A00D20146524110467047FFE701B50020D7
:2002200000F006F802BDC0460029F7D076E770477047C046002B11D1002A0FD1002900D139
:20024000002802D00021C943080007B4024802A14018029003BDC046D9FFFFFF03B46846DC
:2002600001B5029800F034F8019B9E4602B00CBC7047C046F0B5CE46474680B507009946FA
:200280003B0C9C4613041B0C1D000E0061460004140C000C45434B4360436143C0182C0C88
:2002A00020188C46834203D980235B029846C444494679437243030C63442D042D0CC918AC
:2002C000000440198918C0BCB946B046F0BDC046F0B557464E464546DE46E0B504000D00D1
:2002E0009246994683B08B4230D82DD04946504600F0BAF829000600200000F0B5F8331A42
:200300009846203B9B4633D45A465346934042461F00534693401E00AF423AD8AF4200D1BA
:2003200078E05B46A41BBD41002B00DA75E0002200230092019301235A46934001930123F3
:2003400042469340009328E08242CFD900220023009201930C9B002B01D01C605D6000985C
:20036000019903B0F0BCBB46B246A946A046F0BD424620239B1A5246DA40414613004A46AD
:200380008A40170042461F43534693401E00AF42C4D900220023009201934346002BD9D0B2
:2003A000FB0772081A4346467B080EE0AB4201D1A2420CD8A41A9D41012024196D41002117
:2003C000013E24184D41002E06D0AB42EED9013E24196D41002EF8D1009801995B4600194F
:2003E0006941002B24DB2B005A464446D3402A00E2401C005B461500002B2ADB26009E406F
:20040000330026004746BE403200801A9941009001919FE7A342BCD883E7424620230021DB
:200420009B1A0022009101920122DA40019286E7424620239B1A2A0046469A402300F3401E
:20044000444613432A00E2401C005B461500002BD4DA42462F002023260097409B1ADE40FB
:200460003B003343CDE7C04610B5002903D100F007F8203002E0080000F002F810BDC04669
:200480001C2101231B04984201D3000C10391B0A984201D3000A08391B09984201D30009E0
:2004A000043902A2105C40187047C0460403020201010101000000000000000080B500AFE7
:2004C00000F050F802F0D4F88023DA0580235B041900002003F060FB00F042F9134A144B34
:2004E0001100180004F08CFF124A134B1100180004F086FF114B180005F00EF800F0F4F8AD
:2005000000F01EF8A023DB0501228021180002F0ADFD00F0FBFBA023DB0500228021180056
:2005200002F0A4FD00F07CFCFCE7C046C0640008D8640008E0640008F8640008006500084A
:2005400080B500AF064B1B68FA2291001800FFF7E5FD0300180002F0E2F9C046BD4680BD18
:200560008000002080B594B000AF294B9A6B284B802149050A439A63264B1B68264A1A40D0
:20058000244B802109010A431A603B1D01221A603B1D802252025A603B1D02229A623B1DAD
:2005A00080225202DA623B1DC02212031A633B1D8022D2035A633B1D180002F0E1FD031E50
:2005C00005D0164B180004F01BFF00F0DBFD3C217B180F221A607B1803225A607B18002235
:2005E0009A607B180022DA607B1800221A617B180121180003F088F9031E05D0084B180040
:2006000004F0FEFE00F0BEFDC046BD4614B080BD0010024000700040FFE7FFFF20650008C2
:200620003C65000880B594B000AF2A4B9A6B294B802149050A439A63274B1B68274A1A4002
:20064000254B802109010A431A603B1D02221A603B1D0122DA603B1D02229A623B1D00221B
:20066000DA623B1D10221A613B1D8022D2021A633B1D8022D2035A633B1D180002F080FD83
:20068000031E05D0164B180004F0BAFE00F07AFD3C217B180F221A607B1803225A607B1838
:2006A00000229A607B180022DA607B1800221A617B180121180003F027F9031E05D0094BD5
:2006C000180004F09DFE00F05DFDC046BD4614B080BDC0460010024000700040FFE7FFFF33
:2006E0003C6500085865000880B500AF202000F009F8402000F006F8802000F003F8C04698
:20070000BD4680BD80B588B000AF0200BB1D1A80124BDA6A114B01210A43DA620F4BDB6AC2
:2007200001221340BB60BB68BB1D1A880C217B181A607B1801225A607B1801229A607B189E
:200740000222DA607A18A023DB051100180002F017FBC046BD4608B080BDC0460010024083
:2007600090B59FB000AF3D4BDA6A3C4B01210A43DA623A4BDB6A012213407B607B686424B2
:200780003B1904221A603B1902225A603B190222DA603B1901229A603B1904221A613A19C8
:2007A000A023DB051100180002F0EAFA3B1908221A603B1902225A603B1904221A613A1925
:2007C000A023DB051100180002F0DAFA08217B1802221A607B180122DA607B1800229A628C
:2007E0007B1810221A617B18180002F0C9FC40217B1802221A607B1808221A617B181800E2
:2008000003F038FB154B9A6B144B802189020A439A63134B134A1A60114BE12252025A60D6
:200820000F4B00229A600E4B0022DA600C4B00221A610B4B00229A61094B08225A61084B9A
:2008400000229A67064B0022DA67054B180003F0DBFFC046BD461FB090BDC046001002400F
:200860000C0100200044004080B582B000AF0200BB1D1A80B91D06480A23012204F062F87B
:20088000BB1D00229B5E1800BD4602B080BDC0460C01002080B584B000AF39601100BB1D8E
:2008A000021C1A803B1D0A1C1A800E23FB1800221A8011E03B685A1C3A601B785BB21BB257
:2008C0001800FFF7D1FF0E217B1800229B5E9BB201339AB27B181A800E23FA183B1D0021A7
:2008E000525E00215B5E9A42E4DB3B1D00229B5E1800BD4604B080BD80B582B000AFFB1D26
:2009000003221A702A4B1B683D331A00284B1A60284B1A68284B1B685340013339D1274B8B
:200920001A68274B1B685340013332D1234B1B68002B2ED01F4B1B68224A93420ED8224BDB
:2009400001221A60204B01225A601F4B0021180002F0DAFFFB1D04221A701DE0154B1B689C
:200960001A4A93420ED9184B01221A60164B01225A60154B0021180002F0C6FFFB1D04228B
:200980001A7009E0FB1D0A221A700C4B00221A6002E0FB1D08221A700D4B1B683D3B1A0008
:2009A0000B4B1A60FB1D1B781800BD4602B080BD30000020380000205C000020440000202A
:2009C00068000020BB13000090010020E42000005400002080B582B000AFFB1D03221A70BB
:2009E000544B1B681D331A00524B1A60524B08221A60514B01225A614F4B00229A624E4B48
:200A0000180002F0BDFB031E02D0FB1D00221A70FB1D1B78032B12D1474B01221A60464BE1
:200A2000802252025A60444B00229A62424B180002F0A6FB031E02D0FB1D01221A70FB1D51
:200A40001B78032B11D103F02BF93C4B01221A603A4B02225A60394B0021180002F054FF53
:200A6000031E02D0FB1D02221A70FB1D1B78032B2BD101F047F90300012B03D1FB1D052275
:200A80001A7022E02E4B00221A60C0462C4B1B68002BFBD02A4B00221A60C046284B1B68B2
:200AA000002BFBD0274B1A68FC235B009A4203D2FB1D04221A7008E0224B1A68D2239B00F2
:200AC0009A4202D9FB1D04221A701C4B01221A601A4B01225A60194B0121180002F014FFAE
:200AE000031E03D0FB1D06221A7016E0124B00221A60114B01229A620F4B180002F040FB2F
:200B0000031E03D0FB1D07221A7006E0FB1D1B78032B02D1FB1D0A221A700B4B1B681D3B85
:200B20001A00094B1A60FB1D1B781800BD4602B080BDC04630000020A4010020900100204C
:200B400044000020380000205400002080B500AF134B802212051A60124B134A1A60134B5E
:200B6000134A1A60114B1B689A68104B1B6801210A439A600D4B00221A710C4B00225A712D
:200B80000A4B00225A61094B00229A61074B03221A62064B180001F0CFFEC046BD4680BD52
:200BA0004C00002070000020FFFFFFF7000200200030024090B585B000AF0F23FB1802221F
:200BC0001A704A4B1B683F331A00484B1A60484B1B681A00474B1B685340013300D074E0AA
:200BE000434B1A68444B9A4247D20023BB600DE03F4B1A68BB689B00D3181A683F4B7A609B
:200C00007A6812BA1A60BB680133BB603A4BF8221206944663449A08374BF82109068C46E4
:200C200063449B0919001000FFF778FA03001A00BB689342DCD32E4B1C682F4BF82212066B
:200C4000944663449A082C4BF82109068C4663449B0919001000FFF761FA03009B00E218A3
:200C6000234B1A60224B1B68DB431A00214B1A600F23FB1800221A702BE0214B1A68214B28
:200C80001B68534001331BD1184B1B68DA1D174B1A601A4B1A68184B1B689A4204D10F23B5
:200CA000FB1804221A7003E00F23FB1803221A70FFF74CFF144B1B68DA1F134B1A6008E0BE
:200CC0000F23FB1801221A7003E00F23FB1801221A700D4B1B683F3B1A000B4B1A600F23DC
:200CE000FB181B781800BD4605B090BD300000204C00002070000020C06D0008003002403E
:200D000050000020740000205400002080B582B000AF00F035FE354B00221A60344B012264
:200D200052421A60334B00221A60334B012252421A60324B00221A60314B012252421A6016
:200D4000304B00221A602F4B1B68DA432E4B1A602E4B00221A602E4B012252421A60FA2393
:200D6000DB01180001F0DBFD031E05D0294B180004F046FB00F006FAFFF7E8FE01F0DEFC68
:200D8000030005337B60244B00221A60C046224B1B68002B05D101F0D1FC02007B689342C3
:200DA000F5D81D4B00221A60C0461B4B1B68002B05D101F0C3FC02007B689342F5D801F04A
:200DC000BDFC02007B68934205D8144B180004F017FB00F0D7F90B4B00221A600A4B01221C
:200DE00052421A60C046BD4602B080BD3C00002060000020400000206400002048000020C5
:200E00006C0000203000002054000020340000205800002074650008440000209465000870
:200E200080B582B000AF984B1B68984A934200D026E1A023DB054021180002F034F9924B90
:200E40001A68934B1B685340013300D00CE18E4B00221A608F4B1B689A1C8E4B1A6001F05F
:200E60003FFA0300012B06D08B4B180004F0C8FA00F088F904E0894B1B689A1E874B1A60E0
:200E8000844B1B6835331A00824B1A6000F022F9031E06D0824B180004F0B2FA00F072F955
:200EA00005E07E4B1B68353B1A007C4B1A60794B1B6817331A00774B1A60FFF71DFD03003C
:200EC0000A2B05D03FDC042B09D0082B34D03AE0724B1B68173B1A00704B1A603AE0714BDD
:200EE000714A1A60C0466F4B180003F0D3FD0300212BF8D06B4B180003F0DAFC694BE122BD
:200F000052025A60674B00229A60664B0022DA60644B00221A61634B00229A61614B0822FB
:200F20005A61604B180003F06FFC604B180004F067FA00F027F90DE05D4B180004F060FAB2
:200F400000F020F906E05B4B180004F059FA00F019F9C0464F4B1B683F331A004D4B1A60DA
:200F6000FFF728FE03007B607B68002B03D07B68042B07D016E0494B1B683F3B1A00474B7A
:200F80001A6016E02A20FFF76FFCA023DB054021180002F088F8414B1B683F3B1A003F4B7B
:200FA0001A6006E0444B180004F02AFA00F0EAF8C046384B1A68394B1B68534001334CD14A
:200FC0003E4B1A683E4B1B685340013345D17B68042B2AD12F4B19683A4BF8221206944684
:200FE00063449A0913009B009B18DB009B18DB009B1A4F33FF33994210D1264B1A682F4B4B
:201000001B68D21AA7235B009A4207D1214B00221A60224B012252421A6015E02A4B180060
:2010200004F0EEF900F0AEF80EE01A4B1A68234B1B68D21A4823FF339A4205D0234B1800B9
:2010400004F0DEF900F09EF8124B1A681B4B1A60124B1A681A4B1A600CE01D4B180004F062
:20106000CFF900F08FF805E0194B180004F0C8F900F088F8A023DB054021180002F013F892
:20108000C046BD4602B080BD40000020AAAAAAAA6400002030000020BC65000854000020DF
:2010A000D86500080C01002000440040EC65000814660008406600086C660008480000206F
:2010C0006C000020C06D000888660008B4660008EC66000880B582B000AFFB1D00221A7003
:2010E000184B1B683B331A00164B1A60164B1B68164A934202D0FB1D01221A70124B5B68D7
:20110000134A934202D0FB1D01221A700E4B9B68104A934202D0FB1D01221A700A4BDB684C
:201120000D4A934202D0FB1D01221A700B4B1B683B3B1A00094B1A60FB1D1B781800BD46EF
:2011400002B080BD3000002040060020EEEEEEEECCCCCCCCBBBBBBBBDDDDDDDD540000202E
:2011600080B500AFBFF34F8FC046044B044ADA60BFF34F8FC046C046FDE7C04600ED00E0CB
:201180000400FA0580B500AF0A4B00221A60094B1A68094B1A60094B180004F031F9A02386
:2011A000DB0501228021180001F060FF01F0B3FBFCE7C046600000203C000020146700083C
:2011C000B0B586B000AFED4B00221A60EB4B1A68EB4B1A6001F04CFA00F0C4FEFFF7C0FAF0
:2011E000E84B180004F00CF92020FFF78BFA4020FFF788FA8020FFF785FAE34B00221A6039
:20120000E14B1B68DA43E14B1A60DF4B1B689A1CDD4B1A6001F02EF90300012B06D0DC4B13
:20122000180004F0EDF8FFF7ADFF08E0D74B1B689A1ED64B1A60D74B180004F0E1F8D24B17
:201240001B685A1DD04B1A6000F03EFACF4B1B685A1FCE4B1A60C046CF4B180003F01AFCED
:201260000300212BF8D0FFF7DDF9CB4B180003F01FFBC94B180003F0C7FA2020FFF742FAFE
:201280004020FFF73FFA8020FFF73CFAA023DB0501224021180001F0E9FEBB4B1B680B3315
:2012A0001A00B94B1A6000237B6002E07B6801337B607B68B94A9342F8DDB94B1A6BB84BA8
:2012C000802149010A431A63B54B1A6B80235B0113403B603B68B34BB34A1A60B14B0022B1
:2012E0001A71B04B00225A71AE4B00225A61AD4B00229A61AB4B03221A62AA4B180001F0FB
:201300001BFB00237B610EE07B699B0080221205944663441A68A44BBA60BA6812BA1A601E
:201320007B6901337B61A14BF8221206944663449B087A699A42E7D39B4B1B683B61934B1B
:201340001B680B3B1A00914B1A608F4B1B6811331A008D4B1A60954B1B683A699A4206D08F
:20136000934B180004F04CF8FFF70CFF09E0914B180004F045F8854B1B68113B1A00834BA9
:201380001A60884B180001F03DFBA023DB0500224021180001F06AFE262000F0CDFA030028
:2013A000012B06D1844B180004F02AF8FFF7EAFE03E0824B180004F023F8A023DB050122B2
:2013C0002021180001F052FE72B6C0467C4980239B050022180000F0ADFE031E16D062B649
:2013E000C0466D4B774A1A606B4B802200219950694B00229A67684B0022DA6700F056FE61
:20140000714B180003F0FCFFFFF7BCFE62B6C046614B6C4A1A60604B8022002199505E4B60
:2014200000229A675C4B0022DA6700F03FFE674B180003F0E5FF62B6C046534B00221A6059
:20144000514B1B68DA43514B1A6000F02FFEA023DB0500222021180001F008FE4A4B1B68F0
:2014600013331A00484B1A604E4B4F4A1A604D4B01225A774B4B00221A714A4B00225A7102
:20148000484B00225A61474B00229A61454B03221A62444B00220021180001F0F4FA020031
:2014A0004B4B1A604A4B1B68DA434A4B1A60374B1B68133B1A00354B1A60A023DB050122AB
:2014C0004021180001F0D2FDC046334B180003F0E1FA0300212BF8D02B4B1B6817331A00F5
:2014E000294B1A600F257C19FFF774FA03002370294B344A1A60284B180003F0D9F9264B0E
:20150000E12252025A60244B00229A60224B0022DA60214B00221A611F4B00229A611E4B6D
:2015200008225A611C4B180003F06EF97B191B780A2B5FD89A00284BD3181B689F46274B88
:20154000180003F05DFF59E0254B180003F058FF54E0244B180003F053FF4FE0224B180065
:2015600003F04EFF4AE0214B180003F049FF45E01F4B180003F044FF40E0C04660000020BF
:201580003C000020406700083000002054000020706700088C6700080C010020FF47E80146
:2015A000001002400002002000300240C06D0008A4670008CC670008EC67000810680008E7
:2015C000FF1F00200044004034680008486800085000002074000020EC6B00085C680008BE
:2015E000746800088C680008A4680008C8680008E8680008294B180003F002FF0F23FB18A2
:201600001B780A2B01D0FFF7BDFD254B1B68173B1A00234B1A60A023DB05002240211800FC
:2016200001F024FD1F4B1B6835331A001D4B1A601D4B1E4A1A601C4B1D4A5A601A4B1D4AA9
:201640009A60194B1C4ADA60154B1B68353B1A00134B1A607C2000F06FF90300012B05D14E
:20166000164B180003F0CCFEFFF78CFD144B180003F0C6FEC046134B180003F00BFA030010
:20168000212BF8D000F012FD00F02EFC03F08CFEFEF714FFC046BD4606B0B0BD00690008FB
:2016A000540000203000002040060020EEEEEEEECCCCCCCCBBBBBBBBDDDDDDDD2069000827
:2016C000446900080C01002080B500AF884B1A6D8023DB04134003D0864B180003F01CFF4B
:2016E000834B1A6D80231B05134003D0824B180003F012FF7E4B1A6D80235B05134003D04A
:201700007E4B180003F008FF794B1A6D80239B05134003D07A4B180003F0FEFE744B1A6D28
:201720008023DB05134003D0764B180003F0F4FE6F4B1B6D002B03DA734B180003F0ECFE45
:201740006B4B1A6D80231B0513401BD1684B1A6D80235B05134015D1654B1B6D002B11DB85
:20176000634B1A6D8023DB04134035D0604B1A6D80239B0513402FD15D4B1A6D8023DB05E0
:20178000134029D1614B180003F0C6FE584B5A6B574B8021C9030A435A635D4B9A685C4BAF
:2017A000802149010A439A60514B1A6D504B802109040A431A65574B574A1A60554B002240
:2017C0005A60544B01229A60524B544ADA60514B180001F083FCFEE7454B1A6D8023DB047C
:2017E000134018D0424B1A6D80239B05134012D13F4B1A6D8023DB0513400CD03C4B1A6D50
:201800003B4B802109040A431A65454B180003F083FEFFF7A5FC364B1A6D8023DB04134038
:2018200038D0334B1A6D80239B05134032D0304B1A6D8023DB0513402CD13A4B180003F09E
:201840006BFE2B4B5A6B2A4B8021C9030A435A632F4B9A682E4B802109010A439A60244BA2
:201860009A6B234B802109010A439A632E4B2F4A1A602D4B00225A602B4B4022DA602A4BB9
:201880003F229A60284B00221A61274B180003F057FDFEE7164B1A6D8023DB04134017D083
:2018A000134B1A6D80239B05134011D0104B1A6D8023DB0513400BD00D4B1A6D0C4B802162
:2018C00009040A431A651A4B180003F025FE0CE0074B1A6D064B802109040A431A65154BAC
:2018E000180003F019FEFFF73BFCBD4680BDC0460010024068690008746900088069000852
:201900008C6900089C690008AC690008B869000800580140DC01002000300040FF0F000063
:20192000EC690008146A0008EC010020002C00404C6A0008786A000880B584B000AF7860B3
:201940000F23FB1800221A700B4B1B687A689A4206D1094B1A68094B1B685340013303D0E1
:201960000F23FB1801221A700F23FB181B781800BD4604B080BDC0463000002054000020C7
:2019800080B500AF054B064A1A60044B1B68DB431A00044B1A60C046BD4680BD20000020F0
:2019A000300000202400002080B582B000AFFB1D00221A70234B1B681A00234B1B6853402A
:2019C000013336D11F4B1B68204A934216D920491F4B0022180000F019FC0300012B03D19C
:2019E000FB1D04221A7002E0FB1D03221A70154B184A1A60144B184A1A601DE0114B1B6823
:201A000016490022180000F001FC0300012B0CD10C4B1B6810331A000A4B1A60094B1B6857
:201A2000DB431A00084B1A6006E0FB1D03221A7002E0FB1D01221A70FB1D1B781800BD4687
:201A400002B080BD20000020240000207A0000200000002030000020CFFFFFDF0400002039
:201A600080B500AFC046BD4680BD000080B500AF134B5A6980235B001A4080235B009A4205
:201A80000ED1C0460F4B1B68DB6940221340402BF8D1FEF765FE0C4B180003F0B1FC03E00D
:201AA0000A4B180003F0ACFCA023DB0500228021180001F0DBFAFFF765FBC046BD4680BD3E
:201AC000001002400C010020B46A0008E86A000880B500AF074B180003F092FCA023DB0595
:201AE00000228021180001F0C1FAFFF74BFBC046BD4680BDFC6A000880B500AF044B180024
:201B000003F07EFCFFF73EFBC046BD4680BDC046186B000880B500AF044B180003F070FCA8
:201B2000FFF730FBC046BD4680BDC046506B000880B582B000AF00F0EFFD404B1A68404BEB
:201B40001B685340013300D073E03C4B1B685A1C3A4B1A60394B1B68DA43394B1A60374BF5
:201B60001B68092B65D9A023DB052021180001F09AFA324B00221A60314B012252421A6029
:201B8000304B314A1A60314B314A1A60314B1B68DA1D304B1A6072B6C046FFF705FF03004E
:201BA0007B6062B6C0462C4B1B68DA1F2A4B1A607B68002B13D07B68042B09D12320FEF735
:201BC00053FEA023DB052021180001F06CFA07E0224B180003F014FCFFF7D4FA00E0C04648
:201BE0001C4B1A681C4B1B685340013315D17B68042B18D1174B1B686C2B06D0184B18009D
:201C000003F0FEFBFFF7BEFA0DE0124B00221A60114B012252421A6005E0124B180003F06A
:201C2000EFFBFFF7AFFAA023DB052021180001F03AFAC046BD4602B080BDC0463C000020A0
:201C40006000002040000020AAAAAAAA64000020555555553400002058000020686B00087D
:201C6000A86B0008CC6B000880B582B000AF1C4B1B69022213402ED0BB1D1A4A12881A8024
:201C8000174B5B6B9AB2174B1A80174B1B68002B21D1134B1A6980239B00134015D1114B1E
:201CA0001B889AB2BB1D1B88D31A9BB21A000F4B1A600E4B1B68DA430D4B1A600A4B0D4A1B
:201CC0001A600D4B0D4A1A6005E0054B1A69044B0B490A401A61C046BD4602B080BDC04643
:201CE000000801402402002044000020380000205C000020AAAAAAAA680000205555555599
:201D0000FFFD000090B597B000AF57243B1900221A70324B5A6B314B04210A435A63002202
:201D20000021142000F0D2FD142000F0E4FD14203B182B4A1A603B1800225A603B18002270
:201D40009A603B1801225242DA603B1800221A613B183922002199543B18180002F0EEF955
:201D6000031E02D03B1901221A7014243B191421180002F02CFD3B1D00221A603B1D01220C
:201D80005A603B1D0C229A603B1D0022DA60391D3B190022180002F0E1FA031E03D0572336
:201DA000FB1801221A7014217B181B6800221A610C4B00221A607B180021180002F006FACA
:201DC000031E03D05723FB1801221A705723FB181B781800BD4617B090BDC046001002402E
:201DE000000801404400002080B586B000AFF860B9607A6000237B610AE000E000BF010048
:201E0000BB685A1CBA60CAB21A707B6901337B617A697B689A42F0DB7B681800BD4606B0F4
:201E200080BD80B582B000AF786001235B421800BD4602B080BD80B582B000AF7860396025
:201E40003B68802292015A6000231800BD4602B080BD80B582B000AF786001231800BD4696
:201E600002B080BD80B584B000AFF860B9607A6000231800BD4604B080BD000080B586B076
:201E800000AF7860144A154BD31A7B617B693B61134B1B68002B02D1114B124A1A60104B48
:201EA0001A687B68D3183A699A4207D203F076FA03000C221A6001235B4209E0084B1B68EC
:201EC000FB60074B1A687B68D218054B1A60FB681800BD4606B080BD002000200008000083
:201EE000280200204002002080B500AF174B1A68164B802149000A431A60144BDA68134B5D
:201F000013490A40DA60114B1A68104B11490A401A600E4B9A680D4B01218A439A600B4B98
:201F20001A680A4B0C490A401A60084BDA68074B0A490A40DA60054B00221A61084B802211
:201F400012059A60C046BD4680BDC046001002400C40FF88F6FFF6FEFFFFFBFFFFFF02FF1F
:201F600000ED00E080B586B000AF00237B6100233B610023FB600023BB6000237B60454B72
:201F8000DB680C2213407B617B690C2B25D07B690C2B5ED87B69082B1BD07B69082B58D8F7
:201FA0007B69002B03D07B69042B0ED051E0394B5B685B0B072213407B607B680133802260
:201FC00012029A40344B1A6051E0334B334A1A604DE0314B324A1A6049E02E4BDA68F023DE
:201FE0009B0313403B612B4BDA68C0231B041340FB603B699B0C2B4AD35C3B61FB689B0D56
:202000000133FB60234BDA6880235B021340BB60BB68002B11D139690A005201521A9301E4
:202020009B1ADB005B189B02F9681800FEF776F803001A00184B1A6019E03B69184A534395
:20204000F9681800FEF76AF803001A00124B1A600DE0104B5B685B0B072213407B607B6811
:202060000133802212029A400B4B1A60C046094BDB681B090F2213400B4AD35C7B61064BD6
:202080001A687B69DA40044B1A60C046BD4606B080BDC04600100240800000200024F400EB
:2020A00000D43000306C0008186C0008002103E0084B5B58435004310748084B42189A4242
:2020C000F6D3074A02E0002313600432054B9A42F9D370472C6D000880000020F000002038
:2020E000F00000204002002006488546FFF7DEFF05480047FFF7F8FE03F056F9FEF7DEF9F4
:20210000FEE7000000200020C1110008FEE70000F8FFFFFF00000000040000000C000000D6
:202120000800000010000000140000001C00000018000000012413005B42013B05008D425A
:2021400002D82A600435FAE705008D4211D82E68964257D12B606E68964253D16B60EE6830
:2021600096424FD1EB60AE6896424BD1AB601035EBE705008D4211D82E689E4242D12A6020
:202180006E689E423ED16A60EE689E423AD1EA60AE689E4236D1AA601035EBE70D000F3DAE
:2021A000854211D3AE6896422CD1AB60EE68964228D1EB606E68964224D16B602E68964230
:2021C00020D12B60103DEBE70D000F3D854211D3AE689E4216D1AA60EE689E4212D1EA6016
:2021E0006E689E420ED16A602E689E420AD12A60103DEBE705008D4205D82E68964201D195
:202200000435F8E70024200070470000F0B4314D2E680B362E6013005B42013B2E4C0500B9
:202220008D422ED000256659875904354F51142DF9DD0025665982510435142DFADD0025F0
:2022400066598759974242D183510435142DF7DD1825043D665987599F4238D18251002DCA
:20226000F7D8002566598759974230D10435142DF8DD18254F59043D66598751002DF9D8E7
:202280001FE00425665982510435202DFADD04256659875997421AD183510435202DF7DD6D
:2022A0002425043D665987599F4210D18251042DF7D8042566598759974208D10435202D60
:2022C000F8DD064C25680B3D2560012000E00020F0BC7047340000201021000858000020F4
:2022E000F0B45A48016803310160594801680068884254D157480168006888424FD10121BD
:20230000534802680068904249D1524802680068904244D102224E480368006898423ED19B
:202320004C4803680068984239D10323484804680068A04233D1474804680068A0422ED19E
:202340000424434805680068A84228D1414805680068A84223D105253D4806680068B0425F
:202360001DD13C4806680068B04218D10626384807680068B84212D1364807680068B8428B
:202380000DD10727324800688046404507D1314800688046404502D10820804601E0FEF769
:2023A000F1FE2B48006881464845F8D12948006881464845F3D109208146254800688246B8
:2023C0005045ECD12348006882465045E7D10A2082461F48006883465845E0D11D4800681E
:2023E00083465845DBD10B2083461948006884466045D4D11748006884466045CFD10C20F8
:20240000844615480129CAD1022AC8D1032BC6D1042CC4D1052DC2D1062EC0D1072FBED132
:2024200008204045BBD109204845B8D10A205045B5D10B205845B2D10C206045AFD10748F4
:20244000016803390160F0BC01207047300000206024000864240008A22300085400002045
:20246000AAAAAAAA5555555500000080A8AAAAAA5455555570B40020C0B2003068D167D48D
:20248000013865D5023063D362D061D47048006800185DD76F480168033101606E480168BA
:2024A0000068884254D16D480168006888424FD10121694802680068904249D167480268AB
:2024C0000068904244D1022263480368006898423ED1624803680068984239D103235E48F5
:2024E00004680068A04233D15C4804680068A0422ED10424584805680068A84228D15748AA
:2025000005680068A84223D10525534806680068B0421DD1514806680068B04218D1062617
:202520004D4807680068B84212D14C4807680068B8420DD10727484800688046404507D1C6
:20254000464800688046404502D10820804601E0FEF718FE4048006881464845F8D13F48F9
:20256000006881464845F3D1092081463A48006882465045ECD13948006882465045E7D1E9
:202580000A2082463448006883465845E0D13348006883465845DBD10B2083462E48006887
:2025A00084466045D4D12D48006884466045CFD10C2084462A480129CAD1022AC8D1032BFB
:2025C000C6D1042CC4D1052DC2D1062EC0D1072FBED108204045BBD109204845B8D10A20AE
:2025E0005045B5D10B205845B2D10C206045AFD1EFF309801B49096881F30988EFF3098272
:202600008A42A5D11849096881F30988EFF309828A429DD180F30988EFF3088011490968C1
:2026200081F30888EFF308828A4291D10E49096881F30888EFF308828A4289D180F308889B
:202640000A4801680339016070BC012070470000682400083000002060240008642400081E
:20266000542500086C240008702400085400002080B582B000AFFB1D00221A700B4B1A687F
:202680000A4B40210A431A60032000F011F8031E03D0FB1D01221A7001E0FFF7E1F9FB1D1F
:2026A0001B781800BD4602B080BDC0460020024090B583B000AF7860144B1C68144B1B7841
:2026C0001900FA239800FDF729FD030019002000FDF724FD0300180000F021F9031E01D0AA
:2026E00001230FE07B68032B0BD8796801235B420022180000F0EAF8064B7A681A60002355
:2027000000E001231800BD4603B090BD80000020880000208400002080B500AF054B1B78E7
:202720001A00054B1B68D218034B1A60C046BD4680BDC046880000202C02002080B500AFD4
:20274000024B1B681800BD4680BDC0462C02002080B582B000AF0200FB1D1A70FB1D1B7898
:202760007F2B09D8FB1D1B781A001F231A40044B012191400A001A60C046BD4602B080BDAF
:2027800000E100E090B583B000AF02003960FB1D1A70FB1D1B787F2B28D82F4AFB1D1B789B
:2027A0005BB29B08C0339B009B58FA1D1278110003220A40D200FF2191400A00D2431A408B
:2027C00011003B689B01FF221A40FB1D1B78180003230340DB009A401F48FB1D1B785BB22E
:2027E0009B080A43C0339B001A5031E01B4AFB1D1B7819000F230B40083B9B0806339B0080
:20280000D31804331B68FA1D1278110003220A40D200FF2191400A00D2431A4011003B6802
:202820009B01FF221A40FB1D1B78180003230340DB009A400948FB1D1B781C000F232340F3
:20284000083B9B080A4306339B00C31804331A60C046BD4603B090BD00E100E000ED00E04E
:2028600080B500AFBFF34F8FC046044B044ADA60BFF34F8FC046C046FDE7C04600ED00E0B4
:202880000400FA0580B582B000AF78607B685A1E80235B049A4201D3012310E00A4B7A68EF
:2028A000013A5A6001235B4203211800FFF76AFF054B00229A60044B07221A60002318002E
:2028C000BD4602B080BDC04610E000E080B584B000AFB9607A600F217B18021C1A70BA6898
:2028E0007B181B785BB211001800FFF74BFFC046BD4604B080BD80B582B000AF0200FB1D12
:202900001A70FB1D1B785BB21800FFF721FFC046BD4602B080BD80B500AFFFF7A1FF80B5A0
:2029200082B000AF78607B681800FFF7ABFF03001800BD4602B080BD80B582B000AF786048
:202940007B68002B01D1012356E07B685B7FDBB2002B06D17B6800221A777B68180000F070
:2029600082F87B6802225A777B681B79002B0CD17B681B68224A5A617B681B689A687B68AE
:202980001B6818218A439A600BE07B6899687B68DA687B68180000F085F9031E01D0012341
:2029A0002AE07B685B79002B05D17B681B68012252421A6104E07B681B687A6812691A619B
:2029C0007B681B689B686022934319007B685A697B681B680A439A607B681B689B688022BF
:2029E000934319007B689A697B681B680A439A607B6801225A7700231800BD4602B080BD51
:202A0000B71DC10480B582B000AF78607B68002B01D1012323E07B685B7FDBB2022B01D1DF
:202A200002231CE07B6802225A777B681B689A687B681B6801210A439A607B681B681B796C
:202A40007B681B6800221A717B68180000F013F87B6800225A777B6800221A7700231800C6
:202A6000BD4602B080BD80B582B000AF7860C046BD4602B080BD80B582B000AF7860C0468A
:202A8000BD4602B080BD80B586B000AFF860B9607A6000233B61FB6802225A77FB681B6AE0
:202AA000032B05D02DD8012B19D0022B20D028E000237B610AE07B699B00BA68D218FB68FD
:202AC0001B6812681A607B6901337B617A697B689A42F0D3FB681B681B683B6112E07A684D
:202AE000B968FB68180000F015F803003B6109E07A68B968FB68180000F09DF803003B6113
:202B000000E0C046FB6801225A773B691800BD4606B080BD80B588B000AFF860B9607A605F
:202B20000023FB6123E0FB699B00BA68D3181B781A06FB699B000133B968CB181B781B046B
:202B40001A43FB699B000233B968CB181B781B021A43FB699B000333B968CB181B781900EE
:202B6000FB681B680A431A60FB690133FB617B689B08FA699A42D6D37B680322134053D0C8
:202B80007B6803221340012B07D1FB699B00BA68D218FB681B6812781A707B680322134076
:202BA000022B19D1FB699B00BA68D3181B781B021AB2FB699B000133B968CB181B781BB2DF
:202BC00013431AB21A217B181A80FB681B687B617B697A1812881A807B6803221340032B76
:202BE00022D1FB699B00BA68D3181B781B021AB2FB699B000133B968CB181B781BB213436D
:202C00001AB21A217B181A80FB681B687B617B697A1812881A80FB699B000233BA68D218D4
:202C2000FB681B6812781A70FB681B681B681800BD4608B080BD80B586B000AFF860B96096
:202C40007A6000237B6113E07B699B00BA68D3181B881A047B699B000233B968CB181B8800
:202C60001900FB681B680A431A607B6901337B617B685B087A699A42E6D37B680122134083
:202C800009D0FB681B683B617B699B00BA68D3181A883B691A80FB681B681B681800BD46E9
:202CA00006B080BD80B586B000AFF860B9607A601723FB1800221A701F233B61C0463B693B
:202CC0005A1E3A61002B08D03B691F221340BA68DA40130001221340F1D07B68182B0FD01B
:202CE0007B68182B24D87B68102B11D07B68102B1ED87B68002B20D07B68082B10D017E0B4
:202D00003B69062B1BD91723FB1801221A7016E03B69072B15D91723FB1801221A7010E04C
:202D20003B690F2B0FD91723FB1801221A700AE01723FB1801221A7006E0C04604E0C04619
:202D400002E0C04600E0C0461723FB181B78002B0ED1FB681B68BA685A61FB681B689B680F
:202D6000182293431900FB681B687A680A439A601723FB181B781800BD4606B080BD00002D
:202D800080B586B000AF7860396000237B610023FB6000233B614FE13B681B6801217A6911
:202DA00091400A001340FB60FB68002B00D140E13B685B6803221340012B05D03B685B68C5
:202DC00003221340022B30D17B689B683B617B695B0003229A401300DA433B6913403B61CA
:202DE0003B68DA687B695B009A4013003A6913433B617B683A699A607B685B683B61012248
:202E00007B699A401300DA433B6913403B613B685B681B0901221A407B699A4013003A69B6
:202E200013433B617B683A695A603B685B6803221340032B17D07B68DB683B617B695B006C
:202E400003229A401300DA433B6913403B613B689A687B695B009A4013003A6913433B614A
:202E60007B683A69DA603B685B6803221340022B23D17B69DA087B6808329200D3583B6157
:202E80007B69072213409B000F229A401300DA433B6913403B613B681A697B6907210B40EC
:202EA0009B009A4013003A6913433B617B69DA087B68083292003969D1507B681B683B61BB
:202EC0007B695B0003229A401300DA433B6913403B613B685B6803221A407B695B009A40F3
:202EE00013003A6913433B617B683A691A603B685A68C0239B02134000D19AE0544B5A6B43
:202F0000534B01210A435A63524A7B699B0802339B009B583B617B69032213409B000F223D
:202F20009A401300DA433B6913403B617A68A023DB059A4219D07B68474A934213D07B689B
:202F4000464A93420DD07B68454A934207D07B68444A934201D1052308E0062306E00323B4
:202F600004E0022302E0012300E000237A6903210A40920093403A6913433B6135497B6992
:202F80009B0802339B003A695A50374B1B683B61FB68DA433B6913403B613B685A688023B5
:202FA0005B02134003D03A69FB6813433B612E4B3A691A602C4B5B683B61FB68DA433B6906
:202FC00013403B613B685A6880239B02134003D03A69FB6813433B61234B3A695A60224B07
:202FE0009B683B61FB68DA433B6913403B613B685A6880235B03134003D03A69FB68134337
:203000003B61194B3A699A60174BDB683B61FB68DA433B6913403B613B685A6880239B0319
:20302000134003D03A69FB6813433B610E4B3A69DA607B6901337B613B681A687B69DA4025
:20304000131E00D0A8E6C046C046BD4606B080BD00100240000001400004005000080050A0
:20306000000C0050001C00500004014080B582B000AF786008001100BB1C021C1A807B1C16
:203080000A1C1A707B1C1B78002B04D0BB1C1A887B689A6103E0BB1C1A887B689A62C046BF
:2030A000BD4602B080BD80B584B000AF78600A00BB1C1A807B685B69FB60BB1C1B88FA68D5
:2030C00013401A04FB68DB43B91C09880B401A437B689A61C046BD4604B080BD80B584B0AF
:2030E00000AF78607B68002B01D101233DE07B681B68204A1A607B681B681F4A1A607B68B2
:203100001B687A6852685A607B681B687A6892689A60FFF713FB0300FB600EE0FFF70EFB4B
:203120000200FB68D31A2A2B07D97B681B68DB680722134001D0032317E07B681B68DB684C
:2031400007221340EAD17B681B681A697B68DB689A4205D07B681B687A68D2681A6103E098
:203160007B681B68054A1A6000231800BD4604B080BDC046CCCC000055550000AAAA000055
:20318000B0B58AB000AF78607B68002B02D1012300F0AFFBCF4BDB680C2213403B62CD4BD7
:2031A000DA6880235B021340FB617B681B680122134000D17EE03B6A082B07D03B6A0C2B88
:2031C00012D1FA6980235B029A420DD1C14B1A6880239B02134000D16BE07B685B68002BE1
:2031E00067D1012300F085FB7B685A6880235B029A4207D1B74B1A68B64B802149020A43EC
:203200001A6027E07B685A68A023DB029A420ED1B04B1A68AF4B8021C9020A431A60AD4B8B
:203220001A68AC4B802149020A431A6012E0A94B1A68A84BA8490A401A60A64B1A6880233C
:203240005B021340FB60FB68A24B1A68A14BA3490A401A607B685B68002B15D0FFF76EFAE1
:203260000300BB6109E0FFF769FA0200BB69D31A642B02D9032300F03CFB964B1A6880231D
:203280009B021340EFD015E0FFF758FA0300BB6108E0FFF753FA0200BB69D31A642B01D97C
:2032A000032326E38B4B1A6880239B021340F0D100E0C0467B681B680222134000D18BE034
:2032C0007B68DB687B613B6A042B05D03B6A0C2B3ED1FB69002B3BD17E4B1B6804221340F8
:2032E00004D07B69002B01D1012302E3794B5B687B4A134019007B681B691A02754B0A43C8
:203300005A60744B1B68092293431900714B7A690A431A6000F0D2FC01006E4BDB681B0952
:203320000F2213406F4AD35C0A00DA406E4B1A606E4B1B6813257C191800FFF7B9F90300FE
:2033400023707B191B78002B46D07B191B78D0E27B69002B27D05F4B1B680922934319004C
:203360005C4B7A690A431A60FFF7E8F90300BB6108E0FFF7E3F90200BB69D31A022B01D932
:203380000323B6E2534B1B6804221340F1D0514B5B68534A134019007B681B691A024D4B91
:2033A0000A435A6018E04B4B1A684A4B01218A431A60FFF7C3F90300BB6108E0FFF7BEF992
:2033C0000200BB69D31A022B01D9032391E2414B1B6804221340F1D17B681B681022134005
:2033E00000D1A1E03B6A002B40D13A4B1A6880239B00134005D07B68DB69002B01D10123E5
:2034000077E2344B5B683A4A134019007B685A6A304B0A435A602F4B5B681B02190A7B6898
:203420001B6A1A062B4B0A435A607B685B6A5B0B0133802212029A40264BDB681B090F2190
:203440000B402849CB5CDA40274B1A60274B1B6813257C191800FFF72BF9030023707B1965
:203460001B78002B60D07B191B7842E27B68DB69002B3FD0174B1A68164B802149000A4336
:203480001A60FFF75BF90300BB6108E0FFF756F90200BB69D31A022B01D9032329E20D4B79
:2034A0001A6880239B001340F0D00A4B5B68104A134019007B685A6A064B0A435A60054B0C
:2034C0005B681B02190A7B681B6A1A06014B0A435A6029E000100240FFFFFEFFFFFFFBFFC0
:2034E000FFE0FFFF186C00088000002084000020FF1FFFFFBD4B1A68BC4BBD490A401A60A8
:20350000FFF71CF90300BB6108E0FFF717F90200BB69D31A022B01D90323EAE1B34B1A6808
:2035200080239B001340F0D17B681B680822134036D07B685B69002B19D0AC4B1A6DAB4B21
:2035400001210A431A65FFF7F9F80300BB6108E0FFF7F4F80200BB69D31A022B01D903236D
:20356000C7E1A24B1B6D02221340F1D018E09F4B1A6D9E4B01218A431A65FFF7DFF8030066
:20358000BB6108E0FFF7DAF80200BB69D31A022B01D90323ADE1954B1B6D02221340F1D1F0
:2035A0007B681B680422134000D1AEE027203B1800221A708D4B9A6B80235B05134009D17A
:2035C0008A4B9A6B894B802149050A439A633B1801221A70874B1A6880235B0013401AD174
:2035E000844B1A68834B802149000A431A60FFF7A5F80300BB6108E0FFF7A0F80200BB69AD
:20360000D31A642B01D9032373E17A4B1A6880235B001340F0D07B689A6880235B009A42C3
:2036200007D1724B1A6D714B802149000A431A6531E07B689B68002B0CD16C4B1A6D6B4B09
:203640006B490A401A65694B1A6D684B6A490A401A6520E07B689A68A023DB009A420ED145
:20366000624B1A6D614B8021C9000A431A655F4B1A6D5E4B802149000A431A650BE05B4B13
:203680001A6D5A4B5A490A401A65584B1A6D574B59490A401A657B689B68002B15D0FFF76F
:2036A0004DF80300BB6109E0FFF748F80200BB69D31A524A934201D903231AE14B4B1A6DEB
:2036C00080239B001340EFD014E0FFF737F80300BB6109E0FFF732F80200BB69D31A474AB5
:2036E000934201D9032304E1404B1A6D80239B001340EFD12723FB181B78012B05D13B4B35
:203700009A6B3A4B3E490A409A637B681B682022134049D07B689B69002B26D0334B9A68B5
:20372000324B01210A439A60304B5A6B2F4B01210A435A63334B1A6A324B802189010A43C6
:203740001A62FEF7FBFF0300BB6108E0FEF7F6FF0200BB69D31A022B01D90323C9E0234BB6
:203760009B6802221340F1D01EE0204B9A681F4B01218A439A60234B1A6A224B22490A403C
:203780001A62FEF7DBFF0300BB6108E0FEF7D6FF0200BB69D31A022B01D90323A9E0134BE6
:2037A0009B6802221340F1D17B689B6A002B00D19EE03B6A0C2B00D177E07B689B6A022B52
:2037C00058D10A4B1A68094B10490A401A60FEF7B5FF0300BB611BE0FEF7B0FF0200BB69EB
:2037E000D31A022B14D9032383E0C04600100240FFFEFFFF00700040FFFBFFFF88130000A3
:20380000FFFFFFEF00000140FFDFFFFFFFFFFFFE3A4B1A6880239B041340DDD1374BDB6895
:20382000374A134019007B68DA6A7B681B6B1A437B685B6B1A43314B0A43DA602F4B1A68A9
:203840002E4B802149040A431A60FEF777FF0300BB6108E0FEF772FF0200BB69D31A022B22
:2038600001D9032345E0254B1A6880239B041340F0D03DE0214B1A68204B22490A401A6037
:20388000FEF75CFF0300BB6108E0FEF757FF0200BB69D31A022B01D903232AE0174B1A6858
:2038A00080239B041340F0D122E07B689B6A012B01D101231DE0114BDB68FB61FA698023A8
:2038C0005B021A407B68DB6A9A420FD1FA69F0239B031A407B681B6B9A4207D1FA69C0237C
:2038E0001B041A407B685B6B9A4201D0012300E000231800BD460AB0B0BDC0460010024038
:20390000FFFF02FFFFFFFFFEB0B584B000AF786039607B68002B01D1012328E1964B1B6883
:20392000012213403A689A421ED9934B1B68012293431900904B3A680A431A60FEF7FEFEF4
:203940000300FB6009E0FEF7F9FE0200FB68D31A8A4A934201D9032309E1874B1B680122D7
:2039600013403A689A42EED17B681B680222134009D0834BDB68F022934319007B689A680A
:203980007F4B0A43DA607B681B680122134000D189E07B685B68022B07D1794B1A6880232C
:2039A0009B02134020D10123E1E07B685B68032B07D1734B1A6880239B04134014D10123B7
:2039C000D5E07B685B68012B06D16D4B1B680422134009D10123CAE0694B1A6880239B00B9
:2039E000134001D10123C2E0654BDB680322934319007B685A68624B0A43DA60FEF79EFE6B
:203A00000300FB607B685B68022B11D109E0FEF795FE0200FB68D31A584A934201D9032359
:203A2000A5E0574BDB680C221340082BEFD13AE07B685B68032B11D109E0FEF77FFE02007B
:203A4000FB68D31A4D4A934201D903238FE04C4BDB680C2213400C2BEFD124E07B685B683F
:203A6000012B1BD109E0FEF769FE0200FB68D31A424A934201D9032379E0414BDB680C22E0
:203A80001340042BEFD10EE0FEF758FE0200FB68D31A3A4A934201D9032368E0384BDB68F2
:203AA0000C221340F0D1344B1B68012213403A689A421ED2304B1B680122934319002E4B55
:203AC0003A680A431A60FEF739FE0300FB6009E0FEF734FE0200FB68D31A284A934201D970
:203AE000032344E0244B1B68012213403A689A42EED17B681B680422134009D0204BDB6871
:203B0000204A134019007B68DA681D4B0A43DA607B681B68082213400AD0194BDB681A4AF3
:203B2000134019007B681B69DA00154B0A43DA6000F0C4F80100124BDB681B090F221340FC
:203B4000124AD35C0A00DA40114B1A60114B1B680B257C191800FEF7ABFD030023707B195D
:203B60001B78002B02D07B191B7800E000231800BD4604B0B0BDC04600200240881300004C
:203B800000100240FFF8FFFFFFC7FFFF186C0008800000208400002090B58DB000AFF860C1
:203BA000B9607A601C243B19180014231A00002101F01EFC20003B1802225A603B18022221
:203BC000DA603B1800229A60FB68002B1AD13B18802252001A603B1800221A612D4BDA6A56
:203BE0002C4B01210A43DA622A4BDB6A01221340BB61BB693A18A023DB0511001800FFF71F
:203C0000BFF838E0FB68022B1AD11C203B18802292011A603B1800221A611E4BDA6A1D4B17
:203C200002210A43DA621B4BDB6A022213407B617B693B18184A19001000FFF7A1F81AE08F
:203C40001C203B18802292001A603B1800221A61104BDA6A0F4B01210A43DA620D4BDB6AF6
:203C6000012213403B613B693A18A023DB0511001800FFF785F8074BDB68084A13401900AA
:203C8000BA687B681A43034B0A43DA60C046BD460DB090BD0010024000040050FFFFFF80B7
:203CA00080B500AF044B1A68034B802109030A431A60C046BD4680BD00100240B0B58EB052
:203CC00000AF4C4BDB68FB62FA6A0C2313400C2B14D000D97BE0042B02D0082B0BD076E064
:203CE000444B1B681022134002D0434B3B637CE0424B3B6379E0424B3B6376E0FB6A9A0CC3
:203D00000F231A403F4B9B5CBB62FB6A9A0D0323134001337B62374BDA6880235B021340CC
:203D20001AD0BB6ABB610023FB61354A0023B869F969FCF79FFA02000B00100019007B6A0D
:203D40003B6100237B613A697B69FCF773FA02000B0013007B6337E0264B1B681022134053
:203D60001AD0BB6ABB600023FB60234A0023B868F968FCF77FFA02000B00100019007B6A03
:203D80003B6000237B603A687B68FCF753FA02000B0013007B6317E0BB6A18000023190057
:203DA000164A0023FCF766FA02000B00100019007B6A1C0000231D0022002B00FCF73AFA42
:203DC00002000B0013007B637B6B3B630DE0094B5B685B0B072213403B623B6A0133802263
:203DE00012029A4013003B63C0463B6B1800BD460EB0B0BD0010024000093D000024F40082
:203E000000D43000306C000880B500AF024B1B681800BD4680BDC0468000002080B500AF64
:203E2000FFF7F2FF0100064BDB681B0A07221340044AD35CD9400B001800BD4680BDC04666
:203E400000100240286C000880B500AFFFF7DCFF0100064BDB68DB0A07221340044AD35C4C
:203E6000D9400B001800BD4680BDC04600100240286C000880B586B000AF78601723FB1893
:203E800000221A707B681B682022134006D17B681A6880231B01134000D1D9E09C4B9A6BB7
:203EA00080235B0513400AD1994B9A6B984B802149050A439A631723FB1801221A70954BF2
:203EC0001A6880235B0013401AD1924B1A68914B802149000A431A60FEF730FC03003B6178
:203EE00008E0FEF72BFC02003B69D31A642B01D9032308E1874B1A6880235B001340F0D04E
:203F0000834B1A68C0239B031340FB607B685A68C0239B031340FA689A4207D17B689A68AE
:203F2000C0239B031340FA689A4213D07B685A68C0239B021A40C0239B029A420AD1744B17
:203F40001A6880239B021A4080239B029A4201D10123D8E06E4B1A6DC0239B021340FB600D
:203F6000FB68002B49D07B685A68C0239B021340FA689A4204D07B681B68202213400DD137
:203F80007B689A68C0239B021340FA689A4234D07B681A6880231B0113402ED05C4B1B6D83
:203FA0005D4A1340FB605A4B1A6D594B802109030A431A65564B1A6D554B58490A401A6531
:203FC000534BFA681A65FA6880235B00134014D0FEF7B4FB03003B6109E0FEF7AFFB0200FE
:203FE0003B69D31A4E4A934201D903238BE0484B1A6D80239B001340EFD07B685A68C02366
:204000009B021A40C0239B029A420CD1404B1B68444A134019007B685A68C0239B031A40E8
:204020003B4B0A431A603A4B196D7B685A68C0239B021A40364B0A431A651723FB181B787C
:20404000012B05D1324B9A6B314B37490A409A637B681B680122134009D02D4BDB6C032200
:20406000934319007B68DA68294B0A43DA647B681B680222134009D0254BDB6C0C229343BC
:2040800019007B681A69224B0A43DA647B681B680422134009D01E4BDB6C244A1340190067
:2040A0007B685A691A4B0A43DA647B681B680822134009D0164BDB6C1D4A134019007B6850
:2040C0009A69134B0A43DA647B681B684022134009D00F4BDB6C174A134019007B681A6A2B
:2040E0000B4B0A43DA647B681B688022134009D0074BDB6C104A134019007B68DA69044BD7
:204100000A43DA6400231800BD4606B080BDC0460010024000700040FFFFFCFFFFFFF7FFEE
:2041200088130000FFFFCFFFFFFFFFEFFFF3FFFFFFCFFFFFFFFFFFFBFFFFF3FF80B582B021
:2041400000AF78607B68002B01D1012332E07B6839229B5CDBB2002B07D17B68382200219F
:2041600099547B68180000F029F87B683922022199547B681A687B6804331900100000F060
:2041800091F97B683E22012199547B683A22012199547B683B22012199547B683C22012143
:2041A00099547B683D22012199547B6839220121995400231800BD4602B080BD80B582B0E0
:2041C00000AF7860C046BD4602B080BD80B584B000AF786039600F23FB1800221A703B6843
:2041E000002B04D17B683A229B5CDBB213E03B68042B04D17B683B229B5CDBB20BE03B6810
:20420000082B04D17B683C229B5CDBB203E07B683D229B5CDBB20E217A1813707B181B78BE
:20422000012B01D0012390E03B68002B04D17B683A220221995413E03B68042B04D17B687E
:204240003B22022199540BE03B68082B04D17B683C220221995403E07B683D2202219954D5
:204260003B680C2B2AD03B680C2B30D83B68082B1BD03B68082B2AD83B68002B03D03B68AB
:20428000042B09D023E07B681B68DA687B681B6802210A43DA601FE07B681B68DA687B68D1
:2042A0001B6804210A43DA6016E07B681B68DA687B681B6808210A43DA600DE07B681B68C8
:2042C000DA687B681B6810210A43DA6004E00F23FB1801221A70C0460F23FB181B78002B9F
:2042E00030D17B681B6839680122180000F04CFA7B681A688023DB059A4209D07B681B6842
:20430000144A934204D07B681B68134A934211D17B681B689B6807221340BB60BB68062BC8
:2043200010D07B681B681A687B681B6801210A431A6007E07B681B681A687B681B6801210F
:204340000A431A600F23FB181B781800BD4604B080BDC046000801400014014080B586B0A3
:2043600000AFF860B9607A601723FB1800221A70FB6838229B5C012B01D102238CE0FB68A4
:204380003822012199547B68002B1BD1FB681868BB681968BB685A68BB68DB6800F0D6F82A
:2043A000FB681B689A69FB681B680C218A439A61FB681B689969BB689A68FB681B680A43F9
:2043C0009A6162E07B68042B1CD1FB681868BB681968BB685A68BB68DB6800F00DF9FB6876
:2043E0001B689A69FB681B682D490A409A61FB681B689969BB689B681A02FB681B680A4339
:204400009A6142E07B68082B1BD1FB681868BB681968BB685A68BB68DB6800F02FF9FB6830
:204420001B68DA69FB681B680C218A43DA61FB681B68D969BB689A68FB681B680A43DA61E0
:2044400023E07B680C2B1CD1FB681868BB681968BB685A68BB68DB6800F050F9FB681B6861
:20446000DA69FB681B680E490A40DA61FB681B68D969BB689B681A02FB681B680A43DA615F
:2044800003E01723FB1801221A70FB683822002199541723FB181B781800BD4606B080BD86
:2044A000FFF3FFFF80B584B000AF786039607B681B68FB607A688023DB059A4207D07B68C7
:2044C0001F4A934203D07B681E4A934208D1FB6870229343FB603B685B68FA681343FB6033
:2044E0007A688023DB059A4207D07B68144A934203D07B68134A934208D1FB68124A1340BB
:20450000FB603B68DB68FA681343FB60FB68802293431A003B681B691343FB607B68FA6835
:204520001A603B689A687B68DA623B681A687B689A627B6801225A61C046BD4604B080BD7E
:204540000008014000140140FFFCFFFF80B586B000AFF860B9607A603B60FB681B6A0122B9
:2045600093431A00FB681A62FB689B697B61FB681B6A3B61FA688023DB059A4207D0FB68AA
:204580001B4A934203D0FB681A4A934201D1012300E00023002B08D07B69032293437B61BB
:2045A0007A697B6813437B6103E07B69012213437B617B69F02293437B613B681B01FF225F
:2045C00013407A6913437B613B690A2293433B61BB680A2213403A6913433B61FB687A69B4
:2045E0009A61FB683A691A62C046BD4606B080BD000801400014014080B586B000AFF86032
:20460000B9607A603B60FB681B6A102293431A00FB681A62FB689B697B61FB681B6A3B615C
:204620007B69144A13407B617B681B027A6913437B617B69104A13407B613B681B031B04A7
:204640001B0C7A6913437B613B69A02293433B61BB681B01A02213403A6913433B61FB68FA
:204660007A699A61FB683A691A62C046BD4606B080BDC046FFFCFFFFFF0FFFFF80B586B068
:2046800000AFF860B9607A603B60FB681B6A194A1A40FB681A62FB68DB697B61FB681B6A96
:2046A0003B617B69032293437B617A697B6813437B617B69F02293437B613B681B01FF2223
:2046C00013407A6913437B613B690B4A13403B61BB681A02A0231B0113403A6913433B6184
:2046E000FB687A69DA61FB683A691A62C046BD4606B080BDFFFEFFFFFFF5FFFF80B586B063
:2047000000AFF860B9607A603B60FB681B6A1A4A1A40FB681A62FB68DB697B61FB681B6A14
:204720003B617B69154A13407B617B681B027A6913437B617B69124A13407B613B681B0326
:204740001B041B0C7A6913437B613B690D4A13403B61BB681A03A0231B0213403A691343A8
:204760003B61FB687A69DA61FB683A691A62C046BD4606B080BDC046FFEFFFFFFFFCFFFFB3
:20478000FF0FFFFFFF5FFFFF80B586B000AFF860B9607A60BB681F22134001229A40130085
:2047A0007B61FB681B6A7A69D2431A40FB681A62FB681A6ABB681F210B40796899400B00AA
:2047C0001A43FB681A62C046BD4606B080BD80B582B000AF786039607B6838229B5C012BBA
:2047E00001D102230CE07B683822012199547B681B683A681A657B68382200219954002395
:204800001800BD4602B080BD80B582B000AF78607B68002B01D1012344E07B689B6F002B60
:2048200007D17B687422002199547B68180000F079F87B6824229A677B681B681A687B68C8
:204840001B6801218A431A607B68180000F034F90300012B01D1012324E07B685B6A002B58
:2048600003D07B68180000F0ABFB7B681B685A687B681B680D490A405A607B681B689A6884
:204880007B681B682A218A439A607B681B681A687B681B6801210A431A607B68180000F07E
:2048A00043FC03001800BD4602B080BDFFB7FFFF80B582B000AF78607B68002B01D1012306
:2048C0002CE07B6824229A677B681B681A687B681B6801218A431A607B681B6800221A60E9
:2048E0007B681B6800225A607B681B6800229A607B68180000F01EF87B6880220021995064
:204900007B6800229A677B680022DA677B6800221A667B6874220021995400231800BD4601
:2049200002B080BD80B582B000AF7860C046BD4602B080BD80B582B000AF7860C046BD46AB
:2049400002B080BD80B58AB002AFF860B9603B60BB1D1A80FB689B6F202B00D095E0BB68AA
:20496000002B03D0BB1D1B88002B01D101238DE0FB689A6880235B019A4209D1FB681B692F
:20498000002B05D1BB680122134001D001237DE0FB6874229B5C012B01D1022376E0FB685F
:2049A000742201219954FB68802200219950FB6821229A67FDF7C2FE03007B61FB68BA1DCF
:2049C000502112885A52FB68BA1D522112885A52FB689A6880235B019A4208D1FB681B692D
:2049E000002B04D10023FB61BB68BB6103E0BB68FB610023BB61FB687422002199542CE045
:204A00007A69F8683B68009313000022802100F0D3FB031E01D0032338E0FB69002B0BD1EE
:204A2000BB691B881A00FB681B68D205D20D9A62BB690233BB6107E0FB691A78FB681B68C5
:204A40009A62FB690133FB61FB6852229B5A9BB2013B99B2FB6852229952FB6852229B5A38
:204A60009BB2002BCCD17A69F8683B68009313000022402100F0A0FB031E01D0032305E08A
:204A8000FB6820229A67002300E002231800BD4608B080BD80B584B000AF78607B689B6F5B
:204AA000FB607B68DB6FBB60FA68BB6813431800BD4604B080BD0000B0B58EB000AFF861C1
:204AC0001A2318229B18DB1900221A70FB699A68FB691B691A43FB695B691A43FB69DB6934
:204AE00013437B63FB691B681B68C64A13401900FB691B687A6B0A431A60FB691B685B685F
:204B0000C14A13401900FB69DA68FB691B680A435A60FB699B697B63FB691B68BB4A934283
:204B200004D0FB691B6A7A6B13437B63FB691B689B68B74A13401900FB691B687A6B0A432F
:204B40009A60FB691B68B34A934231D1B24BDB6C03221340032B1DD023D8022B0CD020D8CD
:204B6000002B02D0012B0ED01BE01B2318229B18DB1901221A709CE01B2318229B18DB19CC
:204B800002221A7095E01B2318229B18DB1904221A708EE01B2318229B18DB1908221A70E2
:204BA00087E01B2318229B18DB1910221A7080E0FB691B68994A934231D1974BDB6C0C225B
:204BC00013400C2B1DD023D8082B0CD020D8002B02D0042B0ED01BE01B2318229B18DB1938
:204BE00000221A7065E01B2318229B18DB1902221A705EE01B2318229B18DB1904221A70EA
:204C000057E01B2318229B18DB1908221A7050E01B2318229B18DB1910221A7049E0FB69F2
:204C20001B687A4A93423ED17B4BDA6CC0231B011340C0221201934227D0C0221201934260
:204C40002AD880221201934211D080221201934222D8002B04D08022D20093420ED01BE042
:204C60001B2318229B18DB1900221A7021E01B2318229B18DB1902221A701AE01B23182229
:204C80009B18DB1904221A7013E01B2318229B18DB1908221A700CE01B2318229B18DB19EC
:204CA00010221A7005E01B2318229B18DB1910221A70FB691B68554A934200D084E01B23AB
:204CC00018229B18DB191B78082B1DD020DC042B15D01DDC002B02D0022B05D018E0FFF74A
:204CE0009DF80300FB621CE04B4B1B681022134002D04B4BFB6214E04A4BFB6211E0FEF794
:204D0000DDFF0300FB620CE080231B02FB6208E00023FB621A2318229B18DB1901221A701B
:204D2000C046FB6A002B00D133E1FB695A6813005B009B18FA6A9A4205D3FB695B681B0354
:204D4000FA6A9A4206D91A2318229B18DB1901221A701EE1FB6A3B6100237B6139697A69E5
:204D60000B001B0E100005021D430B001C02FB695B685B08BB600023FB60B868F9680019A2
:204D80006941FB695B683B6000237B603A687B68FBF750FA02000B001300BB62BA6AC023A4
:204DA0009B009A4209D3BA6A80235B039A4204D2FB691B68BA6ADA60EBE01A2318229B188F
:204DC000DB1901221A70E4E0FB69DA6980231B029A4200D086E01B2318229B18DB191B7843
:204DE000082B37D89A00104BD3181B689F46FFF715F80300FB6236E0FFF726F80300FB623C
:204E000031E0C046F369FFEFFFCFFFFF00480040FFF4FFFF0038014000100240004400409D
:204E200000093D000024F4003C6C0008604B1B681022134002D05F4BFB6214E05E4BFB62DE
:204E400011E0FEF73BFF0300FB620CE080231B02FB6208E00023FB621A2318229B18DB1943
:204E600001221A70C046FB6A002B00D191E0FB6A5A00FB695B685B08D218FB695B6819003A
:204E80001000FBF74BF903009BB2BB62BB6A0F2B21D9BA6A80235B029A421CD2BB6A9AB2A7
:204EA0000E2018240319DB190F218A431A80BB6A5B089BB20722134099B20319DB1902191A
:204EC000D21912880A431A80FB691B680219D2191288DA605DE01A2318229B18DB19012227
:204EE0001A7056E01B2318229B18DB191B78082B22D89A00314BD3181B689F46FEF78EFF28
:204F00000300FB6221E0FEF79FFF0300FB621CE0274B1B681022134002D0264BFB6214E033
:204F2000254BFB6211E0FEF7C9FE0300FB620CE080231B02FB6208E00023FB621A231822AF
:204F40009B18DB1901221A70C046FB6A002B20D0FB695B685A08FB6AD218FB695B6819005F
:204F60001000FBF7DBF803009BB2BB62BB6A0F2B09D9BA6A80235B029A4204D2FB691B68F1
:204F8000BA6ADA6005E01A2318229B18DB1901221A70FB6900225A66FB6900229A661A23FA
:204FA00018229B18DB191B781800BD460EB0B0BD0010024000093D000024F400606C0008B3
:204FC00080B582B000AF78607B685B6A012213400BD07B681B685B684A4A134019007B68DE
:204FE0009A6A7B681B680A435A607B685B6A022213400BD07B681B685B68434A1340190024
:205000007B68DA6A7B681B680A435A607B685B6A042213400BD07B681B685B683B4A1340FF
:2050200019007B681A6B7B681B680A435A607B685B6A082213400BD07B681B685B68344ADB
:20504000134019007B685A6B7B681B680A435A607B685B6A102213400BD07B681B689B685E
:205060002C4A134019007B689A6B7B681B680A439A607B685B6A202213400BD07B681B683B
:205080009B68254A134019007B68DA6B7B681B680A439A607B685B6A402213401DD07B6830
:2050A0001B685B681D4A134019007B681A6C7B681B680A435A607B681A6C80235B039A42BB
:2050C0000BD17B681B685B68154A134019007B685A6C7B681B680A435A607B685B6A8022A0
:2050E00013400BD07B681B685B680E4A134019007B689A6C7B681B680A435A60C046BD4636
:2051000002B080BDFFFFFDFFFFFFFEFFFFFFFBFFFF7FFFFFFFEFFFFFFFDFFFFFFFFFEFFF83
:20512000FFFF9FFFFFFFF7FF80B586B002AF78607B68802200219950FDF700FB0300FB600F
:205140007B681B681B6808221340082B0CD1FB68802291037868174A0092002200F02CF837
:20516000031E01D0032321E07B681B681B6804221340042B0CD1FB688022D10378680D4A98
:205180000092002200F018F8031E01D003230DE07B6820229A677B682022DA677B680022C5
:2051A0001A667B6874220021995400231800BD4604B080BDFFFFFF0180B594B000AFF8603B
:2051C000B9603B60FB1D1A70A3E0BB6D013300D19FE0FDF7B3FA02003B68D31ABA6D9A4214
:2051E00002D3BB6D002B3DD1EFF31083BB62BB6A7B640123FB62FB6A83F31088C046FB6886
:205200001B681A68FB681B684C490A401A607B6C3B633B6B83F31088C046EFF310837B63B8
:205220007B6B3B640123BB63BB6B83F31088C046FB681B689A68FB681B6801218A439A60B6
:205240003B6CFB63FB6B83F31088C046FB6820229A67FB682022DA67FB687422002199543C
:20526000032367E0FB681B681B680422134050D0FB681B68DA6980231B011A4080231B01BE
:205280009A4246D1FB681B68802212011A62EFF310833B613B69FB6401237B617B6983F396
:2052A0001088C046FB681B681A68FB681B6823490A401A60FB6CBB61BB6983F31088C04617
:2052C000EFF31083FB61FB69BB6401233B623B6A83F31088C046FB681B689A68FB681B6832
:2052E00001218A439A60BB6C7B627B6A83F31088C046FB6820229A67FB682022DA67FB68D9
:20530000802220219950FB68742200219954032310E0FB681B68DB69BA681340BA68D31AF6
:205320005A425341DBB21A00FB1D1B789A4200D14BE700231800BD4614B080BD5FFEFFFF72
:2053400080B582B000AF78607B68002B01D1012317E07B68180000F018F87B68DA687B6861
:205360001B6880210A431A607B681A697B685B681A4311007B689A687B681B680A435A6076
:2053800000231800BD4602B080BD80B582B000AF7860C046BD4602B080BD0000014B18682E
:2053A0007047C0468C00002070B500260C4D0D4C641BA410A64209D1002601F075F80A4DB7
:2053C0000A4C641BA410A64205D170BDB300EB5898470136EEE7B300EB5898470136F2E793
:2053E000246D0008246D0008246D0008286D000803008218934200D1704719700133F9E7AE
:205400000FB40B4B13B51C68002C05D0A369002B02D1200000F086FA05AB2000049AA16815
:20542000019300F099FC16BC08BC04B01847C0468C00002070B505000E00002804D08369D8
:20544000002B01D100F06EFAAB69AC68002B02D1280000F067FA2D4B9C4222D16C68636E6A
:20546000DB0705D4A3899B0502D4A06D00F0FBFAA3891B0702D52369002B29D121002800BE
:2054800000F0AAF8002823D001256D42636EDB0705D4A3899B0502D4A06D00F0E5FA280058
:2054A00070BD1B4B9C4201D1AC68D8E7194B9C42D5D1EC68D3E70136A360002B04DAA26992
:2054C0009A4216DC0A2914D023685A1C22601970A3683178013B0029EDD1A360002B0FDAED
:2054E000280022000A3100F021F80A25431CCDD1CAE72200280000F019F8431CE8D1C3E734
:205500000A2523685A1C22601D70BFE7A86C0008C86C0008886C000810B5034B01001868BE
:20552000FFF788FF10BDC0468C000020F8B505000E001400002804D08369002B01D100F0C6
:20554000F1F9224B9C422ED16C68A369A360A3891B0732D52369002B2FD023682269F7B26A
:20556000981A6369F6B2834205DC2100280000F037F9002827D1A3680130013BA3602368D0
:205580005A1C22601F706369834204D0A389DB0707D50A2E05D12100280000F021F90028AC
:2055A00011D13000F8BD0A4B9C4201D1AC68CCE7084B9C42C9D1EC68C7E72100280000F052
:2055C0000BF80028C9D001267642EAE7A86C0008C86C0008886C0008374B70B51D680600D1
:2055E0000C00002D05D0AB69002B02D1280000F099F9324B9C420FD16C680C23E25E93B21E
:2056000011072DD4D90611D409230120336037331343A381404270BD294B9C4201D1AC6802
:20562000EBE7284B9C42E8D1EC68E6E75B0713D5616B002908D023004433994202D03000DF
:2056400000F080FA002363632422A3899343A38100236360236923600823A2891343A381C6
:205660002369002B0BD1A0218022A389890092000B40934203D02100300000F01FFA0C2272
:20568000A35E01201A0099B2024003420FD00022A26062695242A261002022698242BAD19D
:2056A0000A06B8D540221343A3810138B3E7880700D46269A260EFE78C000020A86C0008D0
:2056C000C86C0008886C0008F7B58B8905000C001A075FD44A68002A04DC0A6C002A01DC34
:2056E0000020FEBDE76A002FFAD0002280212E682A601A0049010A400B4234D0606DA389AA
:205700005B0706D56368C01A636B002B01D0236CC01A0200216A00232800E76AB847A18922
:20572000431C06D12B681D2B31D82C4ADA40D3072DD50023636023692360CB0405D5431CE6
:2057400002D12B68002B00D16065616B2E600029C6D023004433994202D0280000F0F2F9BF
:2057600000206063BDE701232800216AB847431CC5D12B68002BC2D01D2B01D0162B01D15B
:205780002E60ADE74023A2891343A381A9E740230B43FAE70F69002FA2D00A680F60D21BD6
:2057A000019200229B0700D14A69A260019B002B00DC95E73A002800019B216AA66AB0475D
:2057C000002806DC40230120A28940421343A38187E7019B3F181B1A0193E7E701004020BB
:2057E0000B6970B505000C00002B02D10025280070BD002804D08369002B01D100F092F828
:20580000144B9C421BD16C680C22A35E002BEDD0626ED20704D49B0502D4A06D00F023F964
:2058200028002100FFF750FF636E0500DB07DED4A3899B05DBD4A06D00F016F9D7E7064BDA
:205840009C4201D1AC68DFE7044B9C42DCD1EC68DAE7C046A86C0008C86C0008886C000875
:20586000002310B50400036043608360818143661900C28103614361836108225C30FFF7B4
:20588000B7FD054B24626362044BA362044BE362044B236310BDC046F56200081D63000842
:2058A000556300088163000810B5024900F0BAF810BDC046E157000870B568254A1E5543C5
:2058C0000E002900743100F0A9F9041E08D000212A00016046600C30A0606832FFF788FDBD
:2058E000200070BD10B5024800F0BDF810BDC0463102002010B5024800F0B6F810BDC04601
:205900003102002010B5024800F0ADF810BDC0463202002010B5024800F0A6F810BDC046F9
:205920003202002013B50400FFF7ECFFA369002B02D0FFF7EFFF13BDA364E3642365134B75
:20594000134A1B68A2620193A34201D10123A361200000F01FF86060200000F01BF8A060E6
:20596000200000F017F800220421E0606068FFF777FF01220921A068FFF772FF022212213A
:20598000E068FFF76DFF0123A361D2E7846C0008A9580008F8B50700FFF7A4FF1F4B1E683E
:2059A000B369002B02D13000FFF7BCFF4836B4687368013B04D53368002B22D03668F6E72F
:2059C0000C22A55E002D1AD12000154B5830E360656600F047F8FFF78DFF20000822290044
:2059E0002560A560656025616561A5615C30FFF7FFFC6563A563A564E5642000F8BD6834F6
:205A0000D7E704213800FFF757FF041E3060D5D1FFF770FF0C233B60EFE7C046846C0008C4
:205A20000100FFFFF7B5040006000027019148346368A5680093009B013B009304D5246842
:205A4000002CF5D13800FEBDAB89012B08D90E22AB5E013304D029003000019B98470743C1
:205A60006835E8E7704770477047000070B50E001D000E23C95E140096B0002908DA0C225A
:205A8000B35E00222A601B0611D48023DB000FE06A4600F0A1FC0028F1DBF02301991B02DB
:205AA0001940054BC9184B4259412960EDE740230020236016B070BD00E0FFFFF7B502262D
:205AC0008B8905000C00334206D0230047332360236101236361F7BD6A4601ABFFF7C6FFFF
:205AE00000990700280000F099F8002808D10C22A35E9A05EFD4032293431E43A681E4E77D
:205B00000F4BAB628023A28920601343A381009B20616361019B002B0DD028000E23E15E3A
:205B200000F06CFC002806D00322A38993431A0001231343A381A0890743A781CBE7C046DD
:205B4000A958000870B50500002910D00C1F2368002B00DAE418280000F082FC1D4A1368DA
:205B6000002B05D163601460280000F081FC70BDA34208D9216860188342F3D118685B6898
:205B800041182160EEE71A005B68002B01D0A342F9D911685018A0420BD120680918501816
:205BA00011608342E0D118685B68411811605360DAE7A04202D90C232B60D5E72168601849
:205BC000834203D118685B684118216063605460CAE7C0463402002070B50F4E0D00316863
:205BE0000400002902D100F073FB30602900200000F06EFB431C0AD00323C51C9D43A8420B
:205C000007D0291A200000F063FB431C01D101256D42280070BDC04638020020F7B5032270
:205C2000CB1C9343083306001F000C2B32D20C27B94231D8300000F013FC324D2B681C0078
:205C4000002C2ED139003000FFF7C6FF0400431C1ED12C682500002D4AD123682900E318F3
:205C60003000019300F034FB019B834243D123680337FF1A03239F4308370C2F00D20C2767
:205C800039003000FFF7A8FF431C34D02368DF19276013E0002BCBDA0C23002533602800BF
:205CA000FEBD2268D11B20D40B2917D9E2192760A34211D12A606368116053603000250084
:205CC00000F0D6FB07220B35231D9543EA1A9D42E5D05B1BA350E2E75A60ECE76268A3427C
:205CE00001D12A60EAE75A60E8E723006468A7E72C006D68AFE70C233000336000F0B8FB45
:205D0000CDE7C04634020020936810B5013B9360002B04DA9469A34207DB0A2905D0136834
:205D2000581C10601970080010BDFFF7FFFB0100F9E7F8B506000F001400D518AC4201D1CD
:205D4000002007E021783A003000FFF7DDFF0134431CF3D1F8BD0000F0B5A1B006000C0052
:205D60001F000392002804D08369002B01D1FFF7D9FD8E4B9C421CD17468636EDB0705D4B2
:205D8000A3899B0502D4A06DFFF76DFEA3891B0702D52369002B1DD121003000FFF71CFCCA
:205DA000002817D0636EDB070DD50120404221B0F0BD7F4B9C4201D1B468DEE77D4B9C421D
:205DC000DBD1F468D9E7A3899B05EED4A06DFFF74BFEEAE7002308AD6B6120336B76103335
:205DE000AB760797039F3B78002B01D0252B4ED1039BFB1A0593039B9F420DD0059B2100BC
:205E00003000039AFFF795FF431C00D1B5E06A69059B944663446B613B78002B00D1ACE06B
:205E200001227B1C0393002352426A6004A9543252182B60EB60AB601370AB65039B0522BB
:205E400019785D4800F000FB039B5F1C002820D12A68D30604D5532304A95B18202119704B
:205E6000130704D5532304A95B182B211970039B1B782A2B16D00021EB68039F3A78781CFC
:205E8000303A8446092A4FD9002911D117E00137A9E7494B2A68C01A0123834013432B60E1
:205EA0000397CBE7079B191D1B680791002B01DB0B9304E05B42EB60022313432B603B7879
:205EC0002E2B0AD17B782A2B37D1079B02371A1D1B680792002B2DDB0993032239783748EC
:205EE00000F0B2FA002807D0344B2A68C01A40238340134301372B6039787B1C06223048F5
:205F00000393297600F0A0FA002845D02D4B002B27D10722079B07339343083307936B6966
:205F2000049A9B186B615DE70A214B4367469B180939A3E701235B42CEE700231A00013730
:205F40006B603978781C30398446092903D9002BC3D00992C1E70A235A4367465218093BCA
:205F6000EFE707AB0093220029003000164B00E000BF0490049B0133D1D1636EDB0705D4F6
:205F8000A3899B0502D4A06DFFF76EFDA3895B0600D50AE70D980AE707AB00932200290078
:205FA0003000094B00F082F8E3E7C046A86C0008C86C0008886C0008E86C0008EE6C000811
:205FC000F26C000800000000335D0008F7B5150001938A680B690C000090934200DA1300AA
:205FE00022002B6043321278002A01D001332B6023689B0602D52B6802332B602268062332
:2060000017001F401A4227D0230043331B785A1E93412268920630D4220001990098089E1F
:206020004332B047431C25D0062320682A68E16800250340042B03D18D1AEB43DB171D4085
:20604000A3682269934201DD9B1AED180027BD4220D1002010E00137E3682A689B1ABB424F
:20606000D2DD2200012301990098089E1932B047431CF0D101204042FEBD3020E1184331D6
:20608000087021005A1C45310978A218433202331170C1E72200012301990098089E1A3203
:2060A000B047431CE6D00137D1E70000F0B58BB006920A0043320793059004920A7E0C0094
:2060C000109B782A07D8622A09D8002A00D1C1E0582A00D18CE026004236327022E010007A
:2060E00063381528F7D8FAF70FF816001F00F6FFF6FFF6FFF6FF1F00F6FFF6FFF6FFF6FF05
:20610000A80036009A00F6FFF6FFB900F6FF3600F6FFF6FF9E0026001A684236111D1960EA
:20612000136833700123A7E0086819680A1D05060BD50D681A60002D03DA2D23049A6D42FD
:206140001370614B0A2703931BE00D681A604106F1D52DB2EFE70D681968081D18602E06D6
:2061600001D50D6803E06D06FBD50D68ADB2564B082703936F2A00D0023723000022433317
:206180001A706368A360002B03DB0422216891432160002D02D1049E002B0CD0049E280027
:2061A0003900FAF741F8039B013E5B5C33702B0005009F42F3D9082F09D12368DB0706D50F
:2061C00063682269934202DC3023013E3370049B9B1B2361079B210000930598069B09AA61
:2061E000FFF7F4FE431C4CD1012040420BB0F0BD45310A70344A03921A68216820CA1A60BE
:20620000080616D5CB0702D52023194321601027002DB2D1202322689A432260ADE72022D3
:2062200009680A4322602200782145321170274AE1E74806E6D5ADB2E4E71A680D68101DDB
:206240004969186013682E0601D5196002E06D06FBD519800023049E2361BBE71A68111DBD
:206260001960166800213000626800F0EDF8002801D0801B6060636823610023049A137050
:20628000A8E72369320006990598079DA847431CAAD023689B0715D4099BE0689842A5DAAE
:2062A0001800A3E72200012306990598079E1932B047431C98D00135E368099A9B1AAB4246
:2062C000F0DCE9E70025F7E7F96C00080A6D0008002370B5064D040008002B60FBF7CEFD44
:2062E000431C03D12B68002B00D0236070BDC0463C02002070B50C000E25495F00F0C0F815
:20630000002803DB636D1B18636570BDA389024A1340A381F9E7C046FFEFFFFFF8B51F00F2
:206320008B8905000C001600DB0505D50E23C95E0022022300F074F8A389054A2800134077
:20634000A38132000E23E15E3B0000F01FF8F8BDFFEFFFFF70B50C000E25495F00F060F840
:20636000A389421C03D1054A1340A38170BD802252011343A3816065F8E7C046FFEFFFFFC7
:2063800010B50E23C95E00F015F810BD70B50400080011001A000023054D2B60FAF77AFA55
:2063A000431C03D12B68002B00D0236070BDC0463C020020002370B5064D040008002B60D6
:2063C000FBF72FFD431C03D12B68002B00D0236070BDC0463C020020002370B5064D04002B
:2063E000080011002B60FBF726FD431C03D12B68002B00D0236070BD3C020020002370B5CD
:20640000064D040008002B60FBF723FD431C03D12B68002B00D0236070BDC0463C020020AB
:2064200070B50400080011001A000023054D2B60FBF718FD431C03D12B68002B00D02360B5
:2064400070BDC0463C020020C9B28218904201D10020704703788B42FBD00130F6E70000FA
:2064600010B50248FFF7FFFA10BDC0463002002010B50248FFF7F8FA10BDC04630020020DD
:2064800070B50400080011001A000023054D2B60FBF7AAFC431C03D12B68002B00D02360C4
:2064A00070BDC0463C020020F8B5C046F8BC08BC9E467047F8B5C046F8BC08BC9E467047BF
:2064C0002053544D33324C30787820436F727465782D4D302B0000000A0D2025730A0D0087
:2064E0002049454336303333352074657374204047434363200000002025730A0D0000004B
:20650000202E2E2E206D61696E20726F7574696E6520737461727473202E2E2E0D0000006E
:20652000504C4C204F736320636F6E666967206661696C7572650A0D00000000504C4C2071
:20654000636C6F636B20636F6E666967206661696C7572650A0D0000504C4C20636C6F63D1
:206560006B20737769746368206661696C7572650A0D000052756E2074696D652062617385
:206580006520696E6974206661696C7572650A0D0000000052756E2074696D6520636C6F41
:2065A000636B206D6561737572656D656E74206661696C7572650A0D0000000052756E2DC6
:2065C00074696D65204350552054657374204661696C7572650A0D00537461636B206F764A
:2065E0006572666C6F770A0D000000000A0D20436C6F636B20536F75726365206661696C85
:20660000757265202852756E2D74696D65290A0D000000000A0D20436C6173732042207670
:2066200061726961626C65206572726F722028636C6F636B2074657374290A0D00000000CC
:2066400041626E6F726D616C20436C6F636B205465737420726F7574696E65207465726D44
:20666000696E6174696F6E200A0D00002052756E2D74696D6520464C41534820435243201A
:206680004572726F720A0D00436F6E74726F6C20466C6F77204572726F7220286D61696E29
:2066A000206C6F6F702C20466C61736820435243290A0D00436F6E74726F6C20466C6F77F5
:2066C000204572726F7220286D61696E206C6F6F702C20466C61736820435243206F6E2D6D
:2066E000676F696E67290A0D00000000436C6173732042207661726961626C65204572723F
:206700006F7220286D61696E206C6F6F70290A0D00000000203E3E3E3E3E3E3E3E3E3E20E5
:20672000504F52204661696C53616665204D6F6465203C3C3C3C3C3C3C3C3C3C0A0D000019
:206740000A0A0D202A2A2A2A2A2A2A202053656C662054657374204C6962726172792049EA
:206760006E697420202A2A2A2A2A2A2A0A0D000053746172742D75702043505520546573DD
:2067800074204661696C7572650A0D002053746172742D7570204350552054657374204F0F
:2067A0004B0A0D00464C4153482033322D62697420435243204572726F722061742053741A
:2067C0006172742D75700A0D000000002053746172742D757020464C4153482033322D6267
:2067E000697420435243204F4B0A0D00436F6E74726F6C20466C6F77204572726F722043CD
:206800006865636B706F696E7420310A0D00000020436F6E74726F6C20466C6F77204368C7
:2068200065636B706F696E742031204F4B200A0D0000000052414D205465737420466169E9
:206840006C7572650A0D00002046756C6C2052414D2054657374204F4B0A0D004C5349201D
:2068600073746172742D7570206661696C757265200A0D004853452073746172742D757059
:20688000206661696C757265200A0D00436C6F636B20737769746368206661696C75726513
:2068A000200A0D00436C6F636B205863726F7373206D6561737572656D656E7420666169FD
:2068C0006C757265200A0D0048534520636C6F636B20666F756E64206F7574206F66207282
:2068E000616E67650A0D000020436C6F636B206672657175656E6379204F4B200A0D0000F7
:2069000041626E6F726D616C20657869742066726F6D20636C6F636B20746573740A0D007A
