:020000040800F2
:2000000000200020FD4400083D3E0008A13E000800000000000000000000000000000000ED
:20002000000000000000000000000000C93E00080000000000000000E53E0008013F00083E
:20004000214500082145000821450008214500082145000821450008214500082145000830
:2000600021450008214500082145000821450008214500082145000800000000214500087E
:20008000000000002145000800000000000000003940000800000000214500082145000895
:2000A0002145000821450008214500082145000821450008214500082145000821450008D0
:2000C00010B5064C2378002B07D1054B002B02D0044800E000BF0123237010BD5C02002031
:2000E00000000000F89E0008044B10B5002B03D00349044800E000BF10BDC0460000000046
:2001000060020020F89E00080023C25C0133002AFBD1581E7047000002B471464908490020
:20012000095C49008E4402BC7047C04603B47146490840004900095E49008E4403BC704784
:20014000002243088B4274D303098B425FD3030A8B4244D3030B8B4228D3030C8B420DD390
:20016000FF22090212BA030C8B4202D31212090265D0030B8B4219D300E0090AC30B8B421D
:2001800001D3CB03C01A5241830B8B4201D38B03C01A5241430B8B4201D34B03C01A52417C
:2001A000030B8B4201D30B03C01A5241C30A8B4201D3CB02C01A5241830A8B4201D38B02B2
:2001C000C01A5241430A8B4201D34B02C01A5241030A8B4201D30B02C01A5241CDD2C30977
:2001E0008B4201D3CB01C01A524183098B4201D38B01C01A524143098B4201D34B01C01AEC
:20020000524103098B4201D30B01C01A5241C3088B4201D3CB00C01A524183088B4201D355
:200220008B00C01A524143088B4201D34B00C01A5241411A00D20146524110467047FFE728
:2002400001B5002000F0F0F802BDC0460029F7D076E7704703460B437FD4002243088B4203
:2002600074D303098B425FD3030A8B4244D3030B8B4228D3030C8B420DD3FF22090212BAB1
:20028000030C8B4202D31212090265D0030B8B4219D300E0090AC30B8B4201D3CB03C01A78
:2002A0005241830B8B4201D38B03C01A5241430B8B4201D34B03C01A5241030B8B4201D328
:2002C0000B03C01A5241C30A8B4201D3CB02C01A5241830A8B4201D38B02C01A5241430A86
:2002E0008B4201D34B02C01A5241030A8B4201D30B02C01A5241CDD2C3098B4201D3CB01A3
:20030000C01A524183098B4201D38B01C01A524143098B4201D34B01C01A524103098B42CB
:2003200001D30B01C01A5241C3088B4201D3CB00C01A524183088B4201D38B00C01A5241A8
:2003400043088B4201D34B00C01A5241411A00D201465241104670475DE0CA0F00D0494274
:20036000031000D34042534000229C4603098B422DD3030A8B4212D3FC22890112BA030A65
:200380008B420CD3890192118B4208D3890192118B4204D389013AD0921100E08909C30996
:2003A0008B4201D3CB01C01A524183098B4201D38B01C01A524143098B4201D34B01C01A2A
:2003C000524103098B4201D30B01C01A5241C3088B4201D3CB00C01A524183088B4201D394
:2003E0008B00C01A5241D9D243088B4201D34B00C01A5241411A00D20146634652415B109B
:20040000104601D34042002B00D54942704763465B1000D3404201B5002000F005F802BD03
:200420000029F8D016E770477047C0468446101C62468C46191C634600E0C0461FB501F061
:2004400047F8002801D40021C8421FBD10B500F091FF4042013010BD10B501F039F8002885
:2004600001DB002010BD012010BDC04610B501F02FF8002801DD002010BD012010BDC046FB
:2004800010B500F0B3FF002801DC002010BD012010BDC04610B500F0A9FF002801DA00208F
:2004A00010BD012010BDC046002B11D1002A0FD1002900D1002802D00021C943081C07B464
:2004C000024802A14018029003BDC0465DFFFFFF03B4684601B5029800F02EF8019B9E46DA
:2004E00002B00CBC7047C046F0B515042D0C0F0001002E00C64684460004140C000C090C75
:2005000046434D43604361434019340C241800B5A54203D98020400280464144250C6D184B
:20052000614659437A43300449192404000C2018891880BCB846F0BDF0B557464E464546D0
:20054000DE46E0B504000D009246994683B08B4230D82DD04946504601F0F0FE29000600E2
:20056000200001F0EBFE331A9846203B9B4633D45A465346934042461F00534693401E00D6
:20058000AF423AD8AF4200D178E05B46A41BBD41002B00DA75E000220023009201930123F7
:2005A0005A4693400193012342469340009328E08242CFD900220023009201930C9B002B71
:2005C00001D01C605D600098019903B0F0BCBB46B246A946A046F0BD424620239B1A5246ED
:2005E000DA40414613004A468A40170042461F43534693401E00AF42C4D9002200230092FD
:2006000001934346002BD9D0FB0772081A4346467B080EE0AB4201D1A2420CD8A41A9D41F0
:20062000012024196D410021013E24184D41002E06D0AB42EED9013E24196D41002EF8D1AB
:20064000009801995B4600196941002B24DB2B005A464446D3402A00E2401C005B46150054
:20066000002B2ADB26009E40330026004746BE403200801A9941009001919FE7A342BCD89B
:2006800083E74246202300219B1A0022009101920122DA40019286E7424620239B1A2A0022
:2006A00046469A402300F340444613432A00E2401C005B461500002BD4DA42462F002023AD
:2006C000260097409B1ADE403B003343CDE7C046F0B54F46D64646460D0001001800C0B562
:2006E00017002B035A0A4B0F1343CA00914602036E004100520AEC0F7D0F1543760D490D38
:20070000C00F8246AC46FF00721A844200D198E0002A00DC81E0002900D1B6E0C9498E42DD
:2007200000D172E180212800090408438446382A00DD5EE11F2A00DDEEE120203900654613
:20074000801A8740D14085400D4339004F1EB9416746D7402943DB1B4A46551AA945894195
:2007600049425B1A984643461B0200D4CCE043465B025B0A98464346002B00D12CE1404634
:2007800001F0BEFD01000839202228004346521A8B40D0408D4003438E4200DD17E18E1BD0
:2007A000721C1F2A00DDA7E1202118002E00891A8D408840D640D340691E8D41304398466F
:2007C000002605436B0709D00F232B40042B05D02B1DAB42AD416D42A8441D0043461B023E
:2007E00000D494E0974B721C9A4200D19DE04146954BED0819400B00520549075B022943E7
:200800001B0B520D12051343E407234308001900E0BCBA46B146A846F0BD002A43D08A1B64
:20082000002E00D02AE14C461C4300D1D1E1541E012A00D11FE2834DAA4200D172E22200C9
:2008400023E1002A00DC98E0002942D07D498E4200D1DAE080212800090408438446382A6D
:2008600000DD29E11F2A00DC87E1110065462039CD40202A04D040206146821A91400F43FE
:2008800039004F1EB9410D431BE12900394300D1B5E0511E012A00D1ABE16A48824200D123
:2008A000B2E10A0043E76949751C0D4200D0CFE0002E00D093E14946194300D1D1E16146D9
:2008C000394300D0E3E149465807C9080143DB0826E02900394300D191E0511E012A05D0C6
:2008E0005848824200D18FE10A00B8E73D004D444D458941634498464942884443460226F3
:200900001B0200D5EBE0013E6B0700D05CE74346E9085A0711433200DB084A48824221D0CB
:200920001B0352051B0B520D6CE70023002169E72A003A4369D04A465807D108DA088023A9
:200940001B0308431A4207D02900ED081D4203D12A00FF0848073843430FC1005B07C90869
:20096000194313000A001A4300D113E28022120313431B03334A1B0B44E7002A4BD08A1BF8
:20098000002E00D1E7E02F48814200D195E1802000040343382A00DD43E11F2A00DDDBE1E1
:2009A00020201D004E46801A8540D64035434E4686403000D340461EB0419C440543ED1939
:2009C000BD429B415B42634498460E007FE01E4A761A13409846F5E6280001F091FC010002
:2009E00018311F2900DCCFE62B00083883400025D2E662463A4311004F1EB941ACE649460C
:200A00005807C9080143DB0887E749465A07C9081143DB08A6E70D49701C084200D0BBE0F5
:200A2000002E00D014E14946194300D175E12900394300D07EE149465807C9080143DB08F7
:200A40006EE7C046FF070000FFFF7FFFFE0700004946CD1B6146581AA94589414942884613
:200A600001004046091A8846090200D5A6E04146294300D07FE60023002451E7C74CA142FB
:200A800000D1C7E0802424042343382A54DC1F2A00DDCCE020244846A41A1D004E46A04027
:200AA000D640A5400400D34062463543661EB441D31A9C46254344E062463A4315006F1E69
:200AC000BD414D444D45894149428846984443461B0200D418E7B14B01369E4249D04246C9
:200AE000AF4B01211A4013006A080D401543D9075B0898460D4365E618001F3EF040202AAB
:200B000003D040218A1A93401D43691E8D410023002698460543F7E6110065462039CD4007
:200B2000202A04D040206146821A91400F4339004F1EB94129430FE64A4613431D006B1E44
:200B40009D417D1BAF429B4162465B42D31A984654460E0007E64846184300D1B3E0501EF2
:200B6000012A00D10DE18D4DAA4200D1A5E0020010E732000023002144E620213800891ABA
:200B800065468F408D40D040791E8F4105433D436746D740DB1994E7804A904200D1ECE063
:200BA0003900494449459241634452429B18DD0749085B08984606000D43A5E64A46BD1A62
:200BC000AF42894162464942D31A5B1A98465446D1E56C07F9082143EB0804009DE64A46B5
:200BE0001A4375D16146394314D1802300241B03BCE64A46D51BA9458941624649429B1AA3
:200C00005B1A98460126AEE54A46D1085A071143DB08A7E66346F9085A0754461143DB085D
:200C2000A0E64A4613431D006B1E9D41C7E614001E00203CE640202A05D04024A21A934051
:200C40004A461A4391464D466B1E9D41354378E74A461A4300D06BE66B07F9081943EB082F
:200C600080E66146394354D06346F9085C072143DB08040054E64A46BD1AAF42894162466B
:200C80004942D31A5B1A9846040001266BE54A46D51BA9458941624649429A1A521A9046AD
:200CA000120232D54A46BD1AAF42894162464942D31A5B1A9846040084E56346F9085A070C
:200CC0001143DB084EE6F90868070143EB0824E662463A4300D198E64A46D1085A07114366
:200CE000DA0880231B031A4208D06046C5081D4204D154462A00F908430719434B0FC900E8
:200D00005B07C908194313002CE64146294300D0FAE500230A00002402E66B07F908194375
:200D2000EB08FDE56346F9085B07194363460400DB0817E63D004D4463444D45894198463A
:200D40004942884443461B0200D4DDE54246144B01261A409046D7E510001E002038C6407A
:200D6000202A05D04020821A93404A461A4391464D466B1E9D41354321E602000023002102
:200D800040E54A46D519BD4289416344984649428844B3E50021014A0B0033E5FF070000DE
:200DA000FFFF7FFFF0B557464E464546DE46E0B5814605000C03480092461F0085B0240B1F
:200DC000400DCE0F002859D0874B984200D198E06B0FE4001C4380231B0423439846834B12
:200DE000ED009B4600239946834400933C037B005046240B5B0DFF0F002B67D07A4A9342D9
:200E000018D07A49420F8C46E40059461443802263441204CB1A14439B46C2000020330099
:200E20007B409A464B460F2B00D9EFE070499B00CB589F466F4B52469C462243E344002A5E
:200E400000D095E0494602231943894600240220E5E700230024002552461B052343D207F9
:200E600013432800190005B0F0BCBB46B246A946A046F0BD002400255B4BEDE74B46234345
:200E8000984600D189E0002C00D1E0E1200001F037FA010002000B391D235B1A494610009F
:200EA000D940083884400B004D4623439846854051483C03831A9B460023994600937B0008
:200EC0005046240B5B0DFF0F002B97D15246224355D0002C00D1CAE1200001F011FA02005C
:200EE0000B3A1D2301009B1A52460839DA408C40144352468A40414B58449B46834400204F
:200F00008DE74B462343984640D108239946063B00258346009369E7B246009B022BA9D022
:200F2000032B00D111E2012B93D0354A5A44002A00DC3CE16B0700D0A7E1ED084346DB01CC
:200F400006D542462F4B1A4090468022D2005A442D4B9A428EDC4346520558075C020543CF
:200F6000240B530D78E7BA46A04615000090D4E74A4603231A439146032052464FE74946D3
:200F80000123194389460024012048E70C239946093BA0468346009328E7042399460023C2
:200FA0009B4601330025009320E7002380249A4600250D4B24034FE7802341461B03194239
:200FC00008D01C4206D11C432403BA461500064B240B41E78024434624031C432403B246EF
:200FE000014B240B38E7C046FF07000001FCFFFF7CA6000801F8FFFF0DFCFFFFF303000032
:20100000FF030000FFFFFFFEFE070000444500D216E100D111E101235B429C462E00404662
:201020000025E3442302140E1C431B0C994623041F0C1202494600920197FFF707F90200A1
:201040007A430B04310C804619438A420BD901235B429C460919E0448C4204D88A4202D97B
:20106000831E98460919881A4946FFF7EFF809048C4631046646019A090C42430300314355
:201080008A4204D90919013B8C4200D811E1891A4246009E12041A43330C1F00100C904625
:2010A000029313043204160C32001B0C5A4303967B4346437843170CBC469B1963449E423B
:2010C00003D980267602B44660441E0C301816041B04360C9E19814200D29CE000D197E07B
:2010E000AE1B091AB54280414042081A844200D111E14946FFF7AAF8019A0B044243310C8C
:20110000050019438A4207D90919013D8C4203D88A4201D9851E0919881A4946FFF796F899
:2011200009048C4631046646019A090C4243030031438A4207D90919013B8C4203D88A42C4
:2011400001D9831E0919039E891A32002D041D43029F2B041B0C5A437B439C46280C4643FA
:20116000130CB444634478439E4203D980267602B44660441E0C12041B04120C30189B1806
:20118000814206D302D001231D43CEE6002B00D1CBE661186E1EA14200D2A4E0814200D229
:2011A000C9E000D1D9E03500EDE701256D420121891A382900DD4CE61F2900DC7FE01F2324
:2011C0005B429A1A4346D340202904D04446654A5A44944025436A1E954107222B431500E8
:2011E00000241D401A4200D1A1E00F2200241A40042A00D198E01A1D9A429B415B42E41812
:201200001300220200D48FE001230024002523E6B54200D364E743465A1E009B9C466544A2
:201220001F009D429B415B421B19C9188C423AD2884263D860D0904652E7AA4200D9EAE66F
:201240004346DE0758086B081E43ED07EAE6484601F056F801000200153120321C2900DC9F
:201260001AE64B46083883400025984620E601F047F803001A00153220301C2A00DC30E6B5
:201280005446083B00229C4035E60F232B40042B00D152E605235B42AB429B4104355B421F
:2012A000ED0898444AE68C42C5D1AF42C0D9904616E78A4200D8EAE6831E0919E7E62A4AF4
:2012C00028005A44434695409340C8406A1E9541444603432B43CC405A0792D00F221A4019
:2012E000042A88D18DE73500814200D04BE7009A934200D047E718E6AE429CD902235B4267
:201300009C46009BE0449C4665449D429B415B421B19C918E4E6154A5A44002A00DC44E73C
:2013200001230025984409E665076402240BDB081D43002390E5009E023D7200B242BF417A
:201340007F423C1909190092CEE78024434624031C432403064B240B7EE5009A9A42EAD31E
:201360003500C4E73E0400001E040000FF030000FF070000F0B54F464646D646944691468E
:201380001A03120B184DC0B54C000F0392465A00060080463F0B0120640DC90F520DDB0FE0
:2013A000AC420AD0AA4203D0944201D157450DD0E0BCBA46B146A846F0BD3D003543F7D1DA
:2013C000A242F5D1524665462A43F1D10120C845EED1994206D0002CEAD13E433000461E57
:2013E000B041E5E70020E3E7FF070000F0B54E4645465746DE4604001800E0B516001B03D6
:201400001B0B324D0F034A0099464300A446B0463F0B520DC90F5B0DC00FAA4229D0AB423F
:2014200018D0002A2AD13C43A34665426541002B02D14C46264327D0002D15D1814228D02C
:201440000220013908400138F0BCBB46B246A946A046F0BD4D462E432FD1002AEED13C431C
:2014600065426541002DE9D00028EDD101204042EAE73D00254320D19342EBD0002BDDD1E0
:201480004C462643DAD1DBE75B460020002BDBD0D6E79A420ADCE7DB4F45D1D810D00020CF
:2014A0004F45D1D20029E1D00800CDE7434258410223404218400138C6E702204042C3E70E
:2014C000C445BDD80020C445BED2EBE7FF070000F0B54E4645465746DE4604001800E0B5A7
:2014E00016001B031B0B314D0F034A0099464300A446B0463F0B520DC90F5B0DC00FAA4212
:2015000011D0AB4214D0002A2FD13C43A34665426541002B14D14C46264311D15B4600208C
:20152000002B17D010E03D00254312D193421CD14D462E430DD1002A04D13C4365426541B2
:20154000002D0DD1814216D0022001390840013800E00220F0BCBB46B246A946A046F0BDD1
:201560000028F7D101204042F4E7002BEAD14C462643E7D1E8E79A4206DD43425841022393
:20158000404218400138E5E79A42E9DB4F45DBD806D000204F45DDD20029E3D00800D9E7A8
:2015A000C445D1D80020C445D4D2F5E7FF070000F0B557464E464546DE46E0B598460C03C1
:2015C0004B000600924687B0240B5B0DCF0F002B6CD0DD4A934200D186E0420FE400144310
:2015E000802212041443D94AC500944663440093002399469B46434642461E03D20F5B008F
:2016000050469046360B5B0D00D178E0CE4A93421DD0CE49420F8C4600996344F6008C4670
:20162000164380229C44120463461643C200002000930099434601318C4649467B4001933E
:201640000F2900D97EE0C24B890059588F465246009B324300D056E1BB4900268C466344AD
:20166000494600930223194389460220E1E7434601933400150083465B46022B5ED0032BB5
:2016800000D1F3E1012B00D018E1002200240025019B12052243DB071A432800110007B0FE
:2016A000F0BCBB46B246A946A046F0BD2500054300D141E1002C00D1ADE1200000F020FEEA
:2016C000010002000B391D2310005B1A3100350008388440D94085400C439E48831A009351
:2016E000002399469B4686E70500254300D01CE1082200930223002491469B467BE75246A8
:20170000324300D10AE1002E00D176E1300000F0F7FD02000B3A1D2301009B1A5246083918
:20172000DA408E40164352468A40009B8949181A03008C466344002000937AE7002400258E
:20174000814AA5E72F0C2D042D0C2B00110C1204120C53439846130028007B43994648433A
:201760004844834640460B00000C824658467B4350440293814506D99A4680235B029946C6
:20178000CA4453460293030C9B4643461B0400041B0C9846030043440493330C99462B0002
:2017A0003604360C7343984633007B439A464B465D435F4343465544180C4019824503D933
:2017C00080235B029A465744050CEB19059343461D042D0C00044019250C2404240C2700F1
:2017E00057436A4390462A003B0C9A464A436143414451448344884503D980235B029846E2
:2018000042443F040B0C3F0C0904C919270098464B4677435C436E435D433B0C9946A4198B
:201820004C4442440395A64204D980235B02984645440395029B3F045B441E008342804113
:2018400023049846059B3F0C4744984676188E428941474440423D18A846934649428A4683
:20186000C3449F42BF4180458041039BDA449846534640427F420743240C934592418A4590
:2018800089413F19DC0D049B75021D43681E85415346524249420A43BF184744F60D7F0290
:2018A00035435A023C431543FB0100D4C1E001216A080D401543E207154364082649614412
:2018C000002956DD6B0709D00F222A40042A05D02A1DAA42AD416D4264191500E30104D5A4
:2018E00080211E4AC900144061441D4A914200DD24E76207ED08640249051543240B4A0D0B
:20190000C6E60197B8E6104A0320944663444A46009303231A43914652468AE649460123AF
:20192000194389460026012083E60C2200930323050091469B465EE6042399460023009328
:20194000013300249B4656E6FF07000001FCFFFFBCA600080DFCFFFFFF030000FFFFFFFEA3
:20196000FE070000002380240025444A019324038EE60120401A382800DD86E61F285BDD16
:201980001F2223005242511ACB401900202803D03B4A6244944025436A1E95412A000A4369
:2019A00007210D000024154011425BD00F2100241140042953D0111D914292415242A418E2
:2019C0000A0023024BD501220024002560E680231B031C4209D01E4207D133431C034346B8
:2019E0001500240B254A019352E68022120314432403224A240B01974AE600F081FC030060
:201A00001A00153220301C2A00DC84E65646083B00229E4089E600F073FC01000200153193
:201A200020321C2900DC4EE6340008380025844053E6009B9C4641E71249220061442E0074
:201A40008D408A40C640691E8D4132432A43C4405307B6D00F2111400429ACD1B1E765079F
:201A60006402240BD2081543002211E68022120314432403014A240B0AE6C046FF070000DB
:201A80003E0400001E040000F8B557464E464546DE460400E0B51F0010000B03620F4E00C0
:201AA000CD0F5B0A39031343490AE200440F2143C24C91469246C0007A008046760D520DC8
:201AC000FF0FA24200D1B4E001246740BB46BD4200D188E0B41AA446002C00DCB2E0002A2E
:201AE00000D1C5E0B54A964200D18BE28022120411436246382A00DDA1E11F2A00DD16E2C8
:201B000020270C00BF1ABC400200A0466446B840E240444614430200501E82416046C14036
:201B200022435B1A49468C1AA145924152429B1A984643461B0200D417E143465B025B0AF9
:201B400098464346002B00D16CE1404600F0D8FB0200083A202120004346891A9340C840E0
:201B600094400343964200DD57E1961B711C1F2900DDCBE1202218002600521A94409040BF
:201B8000CE40CB40621E94413043984600260443630709D00F232340042B05D0231DA34218
:201BA000A4416442A0441C0043461B0200D4DFE0824B01369E4200D1FBE04246804BE40892
:201BC0001A401300710552075B0222431B0B490D0905ED07194329431000F0BCBB46B2460C
:201BE000A946A046F8BDB41AA446002C58DD002A00D19EE0714A964200D13BE18022120491
:201C000011436246382A00DDC1E01F2A00DCBBE10C00203AD44022006446202C04D040275A
:201C20003F1BB940084380464446611E8C411443B1E00C0004432AD0BB46BD422DD0614C8B
:201C4000A446B4446446002C5CD0941BA446002E00D015E14D461D4300D1C3E1651E012CFB
:201C600000D10CE2554EB44200D1F8E1AC460EE10A00024300D136E12200013A012C00D1EF
:201C8000C6E14E4CA44500D1F4E0944631E701246740BB46BD4200D01CE74A4CA446B4446C
:201CA0006446002C00D1CFE0941BA446002E00D15CE1424EB24200D1ECE180263604334381
:201CC0006446382C00DDB3E11F2C00DD38E22026361B1C00B4404F46A0466446E7404446C6
:201CE0003C434F46B7403E00771EBE4134436646F340C918241884429B415B429846160061
:201D000088444EE0304A741C144200D0D6E04A461A43002E00D05BE1002A00D1A5E10A0031
:201D2000024300D0BBE14A465907D2080A43DB0827E00A00024300D174E12200013A012CF2
:201D400005D01E4CA44500D194E0944659E74844484592415B1898460400524290444346CA
:201D600002261B0200D5C4E0013E630700D011E74346B4465907E2080A43DB080F498C450E
:201D800040D061461B0349051B0B490D20E701430C00611E8C414C444C45924152429046A3
:201DA000984443461B02E0D5044B01369E4200D09FE03100002300220AE7C046FF070000C4
:201DC000FFFF7FFF01F8FFFFFE070000002A00D160E10A0002434DD04A465C07D2082243B1
:201DE0008024DB082403234207D0CE08264204D15D463300C20849070A43510FD200D2089D
:201E000049070A431100194300D1C8E1802109030B431B03D5491B0BDAE6D549B61A0B40E8
:201E20009846B5E6200000F06BFA020018321F2A00DC8FE6230008388340002492E60843C1
:201E40000200501E82416DE6CA4C721C224200D0ADE04A461A43002EB8D1002A00D158E1BF
:201E60000A00024300D059E14A465907D2080A43DB0886E74A465907D2080A43DB08C1E700
:201E8000BA4DAA4200D11EE180252D042B436446382C5DDC1F2C00DDD0E0202567462D1BE2
:201EA0004E461C00FE40AC4034434E46AE403500FB406E1EB541C91A2C434EE04A46141A1F
:201EC000A1459241524290465F1A3A004746D21B9046120200D58BE04246224300D030E6B5
:201EE000002300254DE74A465907D2080A43DB0844E742469E4B61081A4013000122144083
:201F00000C43DA075B089846144341E61A001F3EF2401600202903D04022511A8B401C4300
:201F2000621E944100233443984600261DE70C00203AD44022006446202C04D040273F1B83
:201F4000B940084380464446611E8C412243E9E54C4623431C00631E9C41041BA0429B411F
:201F60005B42CB1A98465D461600E2E54E461E4300D1AEE0661E012C00D1FDE07B4FBC4206
:201F800000D107E1B4469BE664462022121B0C00944007009040A0466446421E90416246D4
:201FA000E7404446D1403C4304435B18F3E66F4CA24200D1D5E048445B1848458941494247
:201FC0005B18DC0740085B08984616000443CCE6002A00D082E00A00024340D1802300258F
:201FE0001B0313E74B07C2081A435D46CB08C5E64A46841AA0429241CB1A52429B1A984640
:202000005D469EE54A465907D2080A43DB08F9E64A46141AA14592415B1A52429B1A9846AE
:20202000012686E54A465907D2080A43DB08A5E64C4623431C00631E9C415BE665461E000D
:20204000203DEE40202C05D040252D1BAB404C461C43A2465446631E9C4134437DE74B073E
:20206000C2081A435D46CB08CCE60A00024300D136E74B07C2081A435D46CB0881E64A46EE
:20208000841AA0429241CB1A52429B1A98465D4601264EE54B07C2081A43CB08B2E64A4670
:2020A000141AA14592415F1A5242BA1A904612026BD54A46841AA0429241CB1A52429B1A1D
:2020C00098465D4664E54B07C2081A435D46CB0898E64B07C2081A43CB084FE60A000243F9
:2020E00090D04A465C07D20814438022DB081203134208D0CE08164205D1C008490708432E
:2021000004005D463300610FE2004907D2080A4378E64B07C2081A43CB0832E648445B185B
:2021200048459241984652429044434604001B0200D41AE642460E4B01261A40904614E649
:2021400066461F00203EF740202C05D04026361BB3404C461C43A2465446631E9C413C4304
:20216000C8E511000023002232E5C046FF070000FFFF7FFFFE0700004A4614188442924163
:202180005B18984652429044E9E54246224300D1A6E6EAE54B07C2081A43CB0832E6002219
:2021A0000149130014E5C046FF07000070B505000C480C03160049001A035B00240B490DD4
:2021C000120B5B0D814208D0064900208B4203D132431000421E904170BD01202C43FBD190
:2021E000F2E7C046FF0700000A0030B5134C530009030500090B00205B0DD20FA34204DD05
:202200000F48834202DD0F4BD01830BD8020400301430D48C01A1F2808DD0C48C31AD940C8
:202220000B005842002AF0D11800EEE7084CC540A446634499400B002B43F2E7FE0300000B
:202240001D040000FFFFFF7F3304000013040000EDFBFFFF70B5002816D0C317C5185D4026
:20226000C40F280000F04CF8114A121A0A2816DC03002E0015339E400B23181AC540530570
:202280002D032D0B5B0D03E000240023002500261B052B43E40723433000190070BD0B3861
:2022A000854053052D0300262D0B5B0DF0E7C0461E04000010B5041E10D000F021F80F4BE2
:2022C0001B1A0A2811DC0B222100121AD14015300A035B058440120B5B0D01E000230022FE
:2022E0001B0513432000190010BD22000B3882405B0512030024120B5B0DF1E71E04000023
:202300001C2101231B04984201D3000C10391B0A984201D3000A08391B09984201D3000941
:20232000043902A2105C40187047C0460403020201010101000000000000000010B500293E
:2023400003D1FFF7DDFF203002E0081CFFF7D8FF10BDC04680B500AF00F050F802F0E2F8F9
:202360008023DA0580235B041900002003F058FB00F042F9134A144B1100180005F01AFC3F
:20238000124A134B1100180005F014FC114B180005F09CFC00F0F4F800F01EF8A023DB05CF
:2023A00001228021180002F0A5FD00F0FBFBA023DB0500228021180002F09CFD00F07CFC56
:2023C000FCE7C046109F0008289F0008309F0008489F0008509F000880B500AF064B1B6819
:2023E000FA2291001800FDF7ABFE0300180002F0DAF9C046BD4680BD8000002080B594B03C
:2024000000AF294B9A6B284B802149050A439A63264B1B68264A1A40244B802109010A43C3
:202420001A603B1D01221A603B1D802252025A603B1D02229A623B1D80225202DA623B1DCB
:20244000C02212031A633B1D8022D2035A633B1D180002F0D9FD031E05D0164B180005F0E0
:20246000A9FB00F0DBFD3C217B180F221A607B1803225A607B1800229A607B180022DA6045
:202480007B1800221A617B180121180003F080F9031E05D0084B180005F08CFB00F0BEFD4B
:2024A000C046BD4614B080BD0010024000700040FFE7FFFF709F00088C9F000880B594B069
:2024C00000AF2A4B9A6B294B802149050A439A63274B1B68274A1A40254B802109010A43FE
:2024E0001A603B1D02221A603B1D0122DA603B1D02229A623B1D0022DA623B1D10221A6184
:202500003B1D8022D2021A633B1D8022D2035A633B1D180002F078FD031E05D0164B18009E
:2025200005F048FB00F07AFD3C217B180F221A607B1803225A607B1800229A607B1800228B
:20254000DA607B1800221A617B180121180003F01FF9031E05D0094B180005F02BFB00F0CC
:202560005DFDC046BD4614B080BDC0460010024000700040FFE7FFFF8C9F0008A89F000889
:2025800080B500AF202000F009F8402000F006F8802000F003F8C046BD4680BD80B588B09A
:2025A00000AF0200BB1D1A80124BDA6A114B01210A43DA620F4BDB6A01221340BB60BB68FD
:2025C000BB1D1A880C217B181A607B1801225A607B1801229A607B180222DA607A18A023E1
:2025E000DB051100180002F00FFBC046BD4608B080BDC0460010024090B59FB000AF3D4BB5
:20260000DA6A3C4B01210A43DA623A4BDB6A012213407B607B6864243B1904221A603B1976
:2026200002225A603B190222DA603B1901229A603B1904221A613A19A023DB051100180085
:2026400002F0E2FA3B1908221A603B1902225A603B1904221A613A19A023DB05110018006E
:2026600002F0D2FA08217B1802221A607B180122DA607B1800229A627B1810221A617B18CE
:20268000180002F0C1FC40217B1802221A607B1808221A617B18180003F030FB154B9A6B7B
:2026A000144B802189020A439A63134B134A1A60114BE12252025A600F4B00229A600E4BD4
:2026C0000022DA600C4B00221A610B4B00229A61094B08225A61084B00229A67064B002215
:2026E000DA67054B180003F0D3FFC046BD461FB090BDC04600100240D00200200044004079
:2027000080B582B000AF0200BB1D1A80B91D06480A23012204F05AF8BB1D00229B5E18006A
:20272000BD4602B080BDC046D002002080B584B000AF39601100BB1D021C1A803B1D0A1CDF
:202740001A800E23FB1800221A8011E03B685A1C3A601B785BB21BB21800FFF7D1FF0E21C1
:202760007B1800229B5E9BB201339AB27B181A800E23FA183B1D0021525E00215B5E9A428F
:20278000E4DB3B1D00229B5E1800BD4604B080BD80B582B000AFFB1D03221A702A4B1B6826
:2027A0003D331A00284B1A60284B1A68284B1B685340013339D1274B1A68274B1B6853406A
:2027C000013332D1234B1B68002B2ED01F4B1B68224A93420ED8224B01221A60204B0122FC
:2027E0005A601F4B0021180002F0D2FFFB1D04221A701DE0154B1B681A4A93420ED9184B8E
:2028000001221A60164B01225A60154B0021180002F0BEFFFB1D04221A7009E0FB1D0A22A0
:202820001A700C4B00221A6002E0FB1D08221A700D4B1B683D3B1A000B4B1A60FB1D1B7885
:202840001800BD4602B080BD30000020380000205C0000204400002068000020BB13000090
:202860008C030020E42000005400002080B582B000AFFB1D03221A70544B1B681D331A00C8
:20288000524B1A60524B08221A60514B01225A614F4B00229A624E4B180002F0B5FB031E3A
:2028A00002D0FB1D00221A70FB1D1B78032B12D1474B01221A60464B802252025A60444BC7
:2028C00000229A62424B180002F09EFB031E02D0FB1D01221A70FB1D1B78032B11D103F044
:2028E00023F93C4B01221A603A4B02225A60394B0021180002F04CFF031E02D0FB1D02220C
:202900001A70FB1D1B78032B2BD101F0E3FB0300012B03D1FB1D05221A7022E02E4B002220
:202920001A60C0462C4B1B68002BFBD02A4B00221A60C046284B1B68002BFBD0274B1A6830
:20294000FC235B009A4203D2FB1D04221A7008E0224B1A68D2239B009A4202D9FB1D042228
:202960001A701C4B01221A601A4B01225A60194B0121180002F00CFF031E03D0FB1D0622B8
:202980001A7016E0124B00221A60114B01229A620F4B180002F038FB031E03D0FB1D072277
:2029A0001A7006E0FB1D1B78032B02D1FB1D0A221A700B4B1B681D3B1A00094B1A60FB1DFC
:2029C0001B781800BD4602B080BDC04630000020540300208C030020440000203800002022
:2029E0005400002080B500AF134B802212051A60124B134A1A60134B134A1A60114B1B68A6
:202A00009A68104B1B6801210A439A600D4B00221A710C4B00225A710A4B00225A61094B9E
:202A200000229A61074B03221A62064B180001F0C7FEC046BD4680BD4C0000207000002025
:202A4000FFFFFFF79C0200200030024090B585B000AF0F23FB1802221A704A4B1B683F33AC
:202A60001A00484B1A60484B1B681A00474B1B685340013300D074E0434B1A68444B9A4284
:202A800047D20023BB600DE03F4B1A68BB689B00D3181A683F4B7A607A6812BA1A60BB680C
:202AA0000133BB603A4BF8221206944663449A08374BF82109068C4663449B0919001000FD
:202AC000FDF73EFB03001A00BB689342DCD32E4B1C682F4BF8221206944663449A082C4BC2
:202AE000F82109068C4663449B0919001000FDF727FB03009B00E218234B1A60224B1B68E2
:202B0000DB431A00214B1A600F23FB1800221A702BE0214B1A68214B1B68534001331BD10B
:202B2000184B1B68DA1D174B1A601A4B1A68184B1B689A4204D10F23FB1804221A7003E086
:202B40000F23FB1803221A70FFF74CFF144B1B68DA1F134B1A6008E00F23FB1801221A70B3
:202B600003E00F23FB1801221A700D4B1B683F3B1A000B4B1A600F23FB181B781800BD464E
:202B800005B090BD300000204C0000207000002080AD00080030024050000020740000203C
:202BA0005400002080B582B000AF00F01FFE354B00221A60344B012252421A60334B002212
:202BC0001A60334B012252421A60324B00221A60314B012252421A60304B00221A602F4B75
:202BE0001B68DA432E4B1A602E4B00221A602E4B012252421A60FA23DB01180001F0D3FDB1
:202C0000031E05D0294B180004F0D4FF00F006FAFFF7E8FE01F0ECFC030005337B60244B41
:202C200000221A60C046224B1B68002B05D101F0DFFC02007B689342F5D81D4B00221A60AA
:202C4000C0461B4B1B68002B05D101F0D1FC02007B689342F5D801F0CBFC02007B689342CD
:202C600005D8144B180004F0A5FF00F0D7F90B4B00221A600A4B012252421A60C046BD4627
:202C800002B080BD3C000020600000204000002064000020480000206C0000203000002041
:202CA000540000203400002058000020C49F000844000020E49F000880B582B000AF984B81
:202CC0001B68984A934200D026E1A023DB054021180002F02CF9924B1A68934B1B6853405D
:202CE000013300D00CE18E4B00221A608F4B1B689A1C8E4B1A6000F0D3FE0300012B06D042
:202D00008B4B180004F056FF00F088F904E0894B1B689A1E874B1A60844B1B6835331A00F8
:202D2000824B1A6000F022F9031E06D0824B180004F040FF00F072F905E07E4B1B68353B36
:202D40001A007C4B1A60794B1B6817331A00774B1A60FFF71DFD03000A2B05D03FDC042BCA
:202D600009D0082B34D03AE0724B1B68173B1A00704B1A603AE0714B714A1A60C0466F4B7D
:202D8000180003F0CBFD0300212BF8D06B4B180003F0D2FC694BE12252025A60674B002221
:202DA0009A60664B0022DA60644B00221A61634B00229A61614B08225A61604B180003F0AE
:202DC00067FC604B180004F0F5FE00F027F90DE05D4B180004F0EEFE00F020F906E05B4BB4
:202DE000180004F0E7FE00F019F9C0464F4B1B683F331A004D4B1A60FFF728FE03007B6025
:202E00007B68002B03D07B68042B07D016E0494B1B683F3B1A00474B1A6016E02A20FFF705
:202E20006FFCA023DB054021180002F080F8414B1B683F3B1A003F4B1A6006E0444B18006D
:202E400004F0B8FE00F0EAF8C046384B1A68394B1B68534001334CD13E4B1A683E4B1B68E9
:202E60005340013345D17B68042B2AD12F4B19683A4BF8221206944663449A0913009B00E4
:202E80009B18DB009B18DB009B1A4F33FF33994210D1264B1A682F4B1B68D21AA7235B00F0
:202EA0009A4207D1214B00221A60224B012252421A6015E02A4B180004F07CFE00F0AEF832
:202EC0000EE01A4B1A68234B1B68D21A4823FF339A4205D0234B180004F06CFE00F09EF888
:202EE000124B1A681B4B1A60124B1A681A4B1A600CE01D4B180004F05DFE00F08FF805E03E
:202F0000194B180004F056FE00F088F8A023DB054021180002F00BF8C046BD4602B080BD74
:202F200040000020AAAAAAAA64000020300000200CA000085400002028A00008D0020020CB
:202F4000004400403CA0000864A0000890A00008BCA00008480000206C00002080AD000838
:202F6000D8A0000804A100083CA1000880B582B000AFFB1D00221A70184B1B683B331A00F7
:202F8000164B1A60164B1B68164A934202D0FB1D01221A70124B5B68134A934202D0FB1D6A
:202FA00001221A700E4B9B68104A934202D0FB1D01221A700A4BDB680D4A934202D0FB1D94
:202FC00001221A700B4B1B683B3B1A00094B1A60FB1D1B781800BD4602B080BD3000002008
:202FE000B8070020EEEEEEEECCCCCCCCBBBBBBBBDDDDDDDD5400002080B500AFBFF34F8FC2
:20300000C046044B044ADA60BFF34F8FC046C046FDE7C04600ED00E00400FA0580B500AF99
:20302000094B00221A60084B1A68084B1A60084B180004F0BFFDA023DB0501228021180064
:2030400001F058FFFEE7C046600000203C00002064A10008B0B586B000AFEB4B00221A6038
:20306000E94B1A68E94B1A6001F05CFA01F084F9FFF7C2FAE64B180004F09CFD2020FFF779
:203080008DFA4020FFF78AFA8020FFF787FAE14B00221A60DF4B1B68DA43DF4B1A60DD4B5A
:2030A0001B689A1CDB4B1A6000F0C4FD0300012B06D0DA4B180004F07DFDFFF7AFFF08E04A
:2030C000D54B1B689A1ED44B1A60D54B180004F071FDD04B1B685A1DCE4B1A6000F040FA90
:2030E000CD4B1B685A1FCC4B1A60C046CD4B180003F014FC0300212BF8D0FFF7DFF9C94BF9
:20310000180003F019FBC74B180003F0C1FA2020FFF744FA4020FFF741FA8020FFF73EFAE5
:20312000A023DB0501224021180001F0E3FE0A2000F04EFB0300012B05D1BB4B180004F004
:2031400039FDFFF76BFFB34B1B680B331A00B14B1A60B64B1A6BB54B802149010A431A634F
:20316000B24B1A6B80235B0113407B607B68B04BB04A1A60AE4B00221A71AD4B00225A71C3
:20318000AB4B00225A61AA4B00229A61A84B03221A62A74B180001F013FB00237B610EE0C0
:2031A0007B699B0080221205944663441A68A14BBA60BA6812BA1A607B6901337B619E4B89
:2031C000F8221206944663449B087A699A42E7D3984B1B683B61904B1B680B3B1A008E4B87
:2031E0001A608C4B1B6811331A008A4B1A60924B1B683A699A4206D0904B180004F0DAFCDC
:20320000FFF70CFF09E08E4B180004F0D3FC824B1B68113B1A00804B1A60854B180001F03C
:2032200035FBA023DB0500224021180001F062FE262000F0CDFA0300012B06D1814B1800E8
:2032400004F0B8FCFFF7EAFE03E07F4B180004F0B1FCA023DB0501222021180001F04AFE2A
:2032600072B6C046794980239B050022180000F041FB031E16D062B6C0466A4B744A1A60A3
:20328000684B802200219950664B00229A67654B0022DA6701F014F96E4B180004F08AFC9F
:2032A000FFF7BCFE62B6C0465E4B694A1A605D4B8022002199505B4B00229A67594B002287
:2032C000DA6701F0FDF8644B180004F073FC62B6C046504B00221A604E4B1B68DA434E4B76
:2032E0001A6001F0EDF8A023DB0500222021180001F000FE474B1B6813331A00454B1A60F2
:203300004B4B4C4A1A604A4B01225A77484B00221A71474B00225A71454B00225A61444BC3
:2033200000229A61424B03221A62414B00220021180001F0ECFA0200484B1A60474B1B6860
:20334000DA43474B1A60344B1B68133B1A00324B1A60A023DB0501224021180001F0CAFDEC
:20336000C046304B180003F0D9FA0300212BF8D0284B1B6817331A00264B1A600F257C19C9
:20338000FFF774FA03002370264B314A1A60254B180003F0D1F9234BE12252025A60214B9D
:2033A00000229A601F4B0022DA601E4B00221A611C4B00229A611B4B08225A61194B1800DA
:2033C00003F066F97B191B780A2B5CD89A00254BD3181B689F46244B180004F0EBFB56E017
:2033E000224B180004F0E6FB51E0214B180004F0E1FB4CE01F4B180004F0DCFB47E01E4BE5
:20340000180004F0D7FB42E0600000203C00002090A100083000002054000020C0A100086A
:20342000DCA10008D0020020F4A10008001002409C0200200030024080AD000834A20008E3
:203440005CA200087CA20008A0A20008FF1F002000440040C4A20008D8A2000850000020D4
:2034600074000020FCA60008ECA2000804A300081CA3000834A3000858A300082C4B180091
:2034800004F098FB03E02B4B180004F093FB0F23FB181B780A2B01D0FFF7C0FD264B1B682D
:2034A000173B1A00244B1A60A023DB0500224021180001F01FFD214B1B6835331A001F4B91
:2034C0001A601F4B1F4A1A601D4B1F4A5A601C4B1E4A9A601A4B1E4ADA60174B1B68353B75
:2034E0001A00154B1A607C2000F072F90300012B05D1184B180004F05DFBFFF78FFD164B32
:20350000180004F057FBC046144B180003F006FA0300212BF8D000F0D3FF00F0EFFE03F034
:20352000A3FEFEF717FFC046BD4606B0B0BDC04678A3000890A3000854000020300000208B
:20354000B8070020EEEEEEEECCCCCCCCBBBBBBBBDDDDDDDDB0A30008D4A30008D002002078
:2035600080B500AF884B1A6D8023DB04134003D0864B180004F0AAFB834B1A6D80231B05CB
:20358000134003D0824B180004F0A0FB7E4B1A6D80235B05134003D07E4B180004F096FBB2
:2035A000794B1A6D80239B05134003D07A4B180004F08CFB744B1A6D8023DB05134003D010
:2035C000764B180004F082FB6F4B1B6D002B03DA734B180004F07AFB6B4B1A6D80231B0518
:2035E00013401BD1684B1A6D80235B05134015D1654B1B6D002B11DB634B1A6D8023DB0410
:20360000134035D0604B1A6D80239B0513402FD15D4B1A6D8023DB05134029D1614B1800C7
:2036200004F054FB584B5A6B574B8021C9030A435A635D4B9A685C4B802149010A439A6043
:20364000514B1A6D504B802109040A431A65574B574A1A60554B00225A60544B01229A603D
:20366000524B544ADA60514B180001F07BFCFEE7454B1A6D8023DB04134018D0424B1A6DEC
:2036800080239B05134012D13F4B1A6D8023DB0513400CD03C4B1A6D3B4B802109040A435F
:2036A0001A65454B180004F011FBFFF7A5FC364B1A6D8023DB04134038D0334B1A6D8023BF
:2036C0009B05134032D0304B1A6D8023DB0513402CD13A4B180004F0F9FA2B4B5A6B2A4BEC
:2036E0008021C9030A435A632F4B9A682E4B802109010A439A60244B9A6B234B80210901DF
:203700000A439A632E4B2F4A1A602D4B00225A602B4B4022DA602A4B3F229A60284B002228
:203720001A61274B180003F06BFDFEE7164B1A6D8023DB04134017D0134B1A6D80239B0578
:20374000134011D0104B1A6D8023DB0513400BD00D4B1A6D0C4B802109040A431A651A4B8D
:20376000180004F0B3FA0CE0074B1A6D064B802109040A431A65154B180004F0A7FAFFF7FD
:203780003BFCBD4680BDC04600100240F8A3000804A4000810A400081CA400082CA40008AB
:2037A0003CA4000848A40008005801407802002000300040FF0F00007CA40008A4A4000804
:2037C00088020020002C0040DCA4000808A5000880B584B000AF78600F217B1800221A7037
:2037E0007B181B781800BD4604B080BD80B500AF054B064A1A60044B1B68DB431A00044B40
:203800001A60C046BD4680BD20000020300000202400002080B582B000AFFB1D00221A703A
:20382000234B1B681A00234B1B685340013336D11F4B1B68204A934216D920491F4B0022AE
:20384000180000F0C3F80300012B03D1FB1D04221A7002E0FB1D03221A70154B184A1A60F5
:20386000144B184A1A601DE0114B1B6816490022180000F0ABF80300012B0CD10C4B1B681F
:2038800010331A000A4B1A60094B1B68DB431A00084B1A6006E0FB1D03221A7002E0FB1D79
:2038A00001221A70FB1D1B781800BD4602B080BD20000020240000207A0000200000002068
:2038C00030000020CFFFFFDF0400002000000000F8FFFFFF00000000040000000C000000C3
:2038E0000800000010000000140000001C00000018000000012413005B42013B05008D4283
:2039000002D82A600435FAE705008D4211D82E68964257D12B606E68964253D16B60EE6858
:2039200096424FD1EB60AE6896424BD1AB601035EBE705008D4211D82E689E4242D12A6048
:203940006E689E423ED16A60EE689E423AD1EA60AE689E4236D1AA601035EBE70D000F3DD6
:20396000854211D3AE6896422CD1AB60EE68964228D1EB606E68964224D16B602E68964258
:2039800020D12B60103DEBE70D000F3D854211D3AE689E4216D1AA60EE689E4212D1EA603E
:2039A0006E689E420ED16A602E689E420AD12A60103DEBE705008D4205D82E68964201D1BD
:2039C0000435F8E70024200070470000F0B4314D2E680B362E6013005B42013B2E4C0500E2
:2039E0008D422ED000256659875904354F51142DF9DD0025665982510435142DFADD002519
:203A000066598759974242D183510435142DF7DD1825043D665987599F4238D18251002DF2
:203A2000F7D8002566598759974230D10435142DF8DD18254F59043D66598751002DF9D80F
:203A40001FE00425665982510435202DFADD04256659875997421AD183510435202DF7DD95
:203A60002425043D665987599F4210D18251042DF7D8042566598759974208D10435202D88
:203A8000F8DD064C25680B3D2560012000E00020F0BC704734000020D03800085800002045
:203AA000F0B45A48016803310160594801680068884254D157480168006888424FD10121E5
:203AC000534802680068904249D1524802680068904244D102224E480368006898423ED1C4
:203AE0004C4803680068984239D10323484804680068A04233D1474804680068A0422ED1C7
:203B00000424434805680068A84228D1414805680068A84223D105253D4806680068B04287
:203B20001DD13C4806680068B04218D10626384807680068B84212D1364807680068B842B3
:203B40000DD10727324800688046404507D1314800688046404502D10820804601E0FFF790
:203B60005DFA2B48006881464845F8D12948006881464845F3D10920814625480068824678
:203B80005045ECD12348006882465045E7D10A2082461F48006883465845E0D11D48006846
:203BA00083465845DBD10B2083461948006884466045D4D11748006884466045CFD10C2020
:203BC000844615480129CAD1022AC8D1032BC6D1042CC4D1052DC2D1062EC0D1072FBED15B
:203BE00008204045BBD109204845B8D10A205045B5D10B205845B2D10C206045AFD107481D
:203C0000016803390160F0BC0120704730000020203C0008243C0008623B000854000020E5
:203C2000AAAAAAAA5555555500000080A8AAAAAA5455555570B40020C0B2003068D167D4B5
:203C4000013865D5023063D362D061D47048006800185DD76F480168033101606E480168E2
:203C60000068884254D16D480168006888424FD10121694802680068904249D167480268D3
:203C80000068904244D1022263480368006898423ED1624803680068984239D103235E481D
:203CA00004680068A04233D15C4804680068A0422ED10424584805680068A84228D15748D2
:203CC00005680068A84223D10525534806680068B0421DD1514806680068B04218D1062640
:203CE0004D4807680068B84212D14C4807680068B8420DD10727484800688046404507D1EF
:203D0000464800688046404502D10820804601E0FFF784F94048006881464845F8D13F48B9
:203D2000006881464845F3D1092081463A48006882465045ECD13948006882465045E7D111
:203D40000A2082463448006883465845E0D13348006883465845DBD10B2083462E480068AF
:203D600084466045D4D12D48006884466045CFD10C2084462A480129CAD1022AC8D1032B23
:203D8000C6D1042CC4D1052DC2D1062EC0D1072FBED108204045BBD109204845B8D10A20D6
:203DA0005045B5D10B205845B2D10C206045AFD1EFF309801B49096881F30988EFF309829A
:203DC0008A42A5D11849096881F30988EFF309828A429DD180F30988EFF3088011490968EA
:203DE00081F30888EFF308828A4291D10E49096881F30888EFF308828A4289D180F30888C4
:203E00000A4801680339016070BC012070470000283C000830000020203C0008243C0008BE
:203E2000143D00082C3C0008303C00085400002080B500AFC046BD4680BD000080B500AFC3
:203E4000134B5A6980235B001A4080235B009A420ED1C0460F4B1B68DB6940221340402BE9
:203E6000F8D1FEF7C9FB0C4B180003F0A3FE03E00A4B180003F09EFEA023DB050022802178
:203E8000180001F037F8FFF7C9F8C046BD4680BD00100240D002002044A5000878A5000893
:203EA00080B500AF074B180003F084FEA023DB0500228021180001F01DF8FFF7AFF8C04618
:203EC000BD4680BD8CA5000880B500AF044B180003F070FEFFF7A2F8C046BD4680BDC046E1
:203EE000A8A5000880B500AF044B180003F062FEFFF794F8C046BD4680BDC046E0A5000874
:203F000080B582B000AF00F061FB404B1A68404B1B685340013300D073E03C4B1B685A1CBA
:203F20003A4B1A60394B1B68DA43394B1A60374B1B68092B65D9A023DB052021180000F0FD
:203F4000F6FF324B00221A60314B012252421A60304B314A1A60314B314A1A60314B1B68C6
:203F6000DA1D304B1A6072B6C046FFF753FC03007B6062B6C0462C4B1B68DA1F2A4B1A6004
:203F80007B68002B13D07B68042B09D12320FEF7B7FBA023DB052021180000F0C8FF07E0C0
:203FA000224B180003F006FEFFF738F800E0C0461C4B1A681C4B1B685340013315D17B6816
:203FC000042B18D1174B1B686C2B06D0184B180003F0F0FDFFF722F80DE0124B00221A6026
:203FE000114B012252421A6005E0124B180003F0E1FDFFF713F8A023DB052021180000F01C
:2040000096FFC046BD4602B080BDC0463C0000206000002040000020AAAAAAAA64000020A5
:20402000555555553400002058000020F8A5000838A600085CA6000880B582B000AF1C4B4E
:204040001B69022213402ED0BB1D1A4A12881A80174B5B6B9AB2174B1A80174B1B68002B77
:2040600021D1134B1A6980239B00134015D1114B1B889AB2BB1D1B88D31A9BB21A000F4B82
:204080001A600E4B1B68DA430D4B1A600A4B0D4A1A600D4B0D4A1A6005E0054B1A69044B85
:2040A0000B490A401A61C046BD4602B080BDC04600080140C0020020440000203800002002
:2040C0005C000020AAAAAAAA6800002055555555FFFD000090B597B000AF57243B190022B8
:2040E0001A70324B5A6B314B04210A435A6300220021142000F032FB142000F044FB14201E
:204100003B182B4A1A603B1800225A603B1800229A603B1801225242DA603B1800221A618B
:204120003B183922002199543B18180001F04AFF031E02D03B1901221A7014243B19142169
:20414000180002F088FA3B1D00221A603B1D01225A603B1D0C229A603B1D0022DA60391D20
:204160003B190022180002F03DF8031E03D05723FB1801221A7014217B181B6800221A6174
:204180000C4B00221A607B180021180001F062FF031E03D05723FB1801221A705723FB1853
:2041A0001B781800BD4617B090BDC04600100240000801404400002080B500AF0123180018
:2041C000BD4680BD80B582B000AF7860396003F045F8030016221A6001235B421800BD4657
:2041E00002B080BD80B582B000AF786001235A427B6811001800FFF7E5FFFEE780B586B0EC
:2042000000AFF860B9607A6000237B610AE000E000BF0100BB685A1CBA60CAB21A707B697E
:2042200001337B617A697B689A42F0DB7B681800BD4606B080BD80B582B000AF78600123FE
:204240005B421800BD4602B080BD80B582B000AF786039603B68802292015A600023180063
:20426000BD4602B080BD80B582B000AF786001231800BD4602B080BD80B584B000AFF860C0
:20428000B9607A6000231800BD4604B080BD000080B586B000AF7860144A154BD31A7B6183
:2042A0007B693B61134B1B68002B02D1114B124A1A60104B1A687B68D3183A699A4207D26A
:2042C00002F0CCFF03000C221A6001235B4209E0084B1B68FB60074B1A687B68D218054BAA
:2042E0001A60FB681800BD4606B080BD0020002000080000C4020020B803002080B500AFE6
:20430000174B1A68164B802149000A431A60144BDA68134B13490A40DA60114B1A68104B8F
:2043200011490A401A600E4B9A680D4B01218A439A600B4B1A680A4B0C490A401A60084B2A
:20434000DA68074B0A490A40DA60054B00221A61084B802212059A60C046BD4680BDC046B3
:20436000001002400C40FF88F6FFF6FEFFFFFBFFFFFF02FF00ED00E080B586B000AF00232E
:204380007B6100233B610023FB600023BB6000237B60454BDB680C2213407B617B690C2B7D
:2043A00025D07B690C2B5ED87B69082B1BD07B69082B58D87B69002B03D07B69042B0ED09B
:2043C00051E0394B5B685B0B072213407B607B680133802212029A40344B1A6051E0334B59
:2043E000334A1A604DE0314B324A1A6049E02E4BDA68F0239B0313403B612B4BDA68C02308
:204400001B041340FB603B699B0C2B4AD35C3B61FB689B0D0133FB60234BDA6880235B02FA
:204420001340BB60BB68002B11D139690A005201521A93019B1ADB005B189B02F9681800C6
:20444000FBF77EFE03001A00184B1A6019E03B69184A5343F9681800FBF772FE03001A0067
:20446000124B1A600DE0104B5B685B0B072213407B607B680133802212029A400B4B1A6026
:20448000C046094BDB681B090F2213400B4AD35C7B61064B1A687B69DA40044B1A60C046D7
:2044A000BD4606B080BDC04600100240800000200024F40000D4300040A7000828A700082C
:2044C000002103E0084B5B58435004310748084B42189A42F6D3074A02E00023136004326A
:2044E000054B9A42F9D3704784AB0008800000205C0200205C020020B4030020064885464A
:20450000FFF7DEFF05480047FFF7F8FE02F0ACFEFDF720FFFEE700000020002055300008E7
:20452000FEE7000080B582B000AFFB1D00221A700B4B1A680A4B40210A431A60032000F054
:2045400011F8031E03D0FB1D01221A7001E0FFF76FFCFB1D1B781800BD4602B080BDC0469C
:204560000020024090B583B000AF7860144B1C68144B1B781900FA239800FBF7E1FD030064
:2045800019002000FBF7DCFD0300180000F00BF9031E01D001230FE07B68032B0BD879682E
:2045A00001235B420022180000F0D8F8064B7A681A60002300E001231800BD4603B090BD51
:2045C00080000020880000208400002080B500AF054B1B781A00054B1B68D218034B1A6089
:2045E000C046BD4680BDC04688000020A003002080B500AF024B1B681800BD4680BDC046F2
:20460000A003002080B582B000AF0200FB1D1A70FB1D1B787F2B09D8FB1D1B781A001F23E0
:204620001A40044B012191400A001A60C046BD4602B080BD00E100E090B583B000AF020078
:204640003960FB1D1A70FB1D1B787F2B28D82F4AFB1D1B785BB29B08C0339B009B58FA1D5E
:204660001278110003220A40D200FF2191400A00D2431A4011003B689B01FF221A40FB1D11
:204680001B78180003230340DB009A401F48FB1D1B785BB29B080A43C0339B001A5031E039
:2046A0001B4AFB1D1B7819000F230B40083B9B0806339B00D31804331B68FA1D1278110043
:2046C00003220A40D200FF2191400A00D2431A4011003B689B01FF221A40FB1D1B781800A1
:2046E00003230340DB009A400948FB1D1B781C000F232340083B9B080A4306339B00C3180D
:2047000004331A60C046BD4603B090BD00E100E000ED00E080B582B000AF78607B685A1E08
:2047200080235B049A4201D3012310E00A4B7A68013A5A6001235B4203211800FFF77CFF19
:20474000054B00229A60044B07221A6000231800BD4602B080BDC04610E000E080B584B08F
:2047600000AFB9607A600F217B18021C1A70BA687B181B785BB211001800FFF75DFFC04656
:20478000BD4604B080BD80B582B000AF0200FB1D1A70FB1D1B785BB21800FFF733FFC0466D
:2047A000BD4602B080BD80B582B000AF78607B681800FFF7AFFF03001800BD4602B080BD6D
:2047C00080B582B000AF78607B68002B01D1012356E07B685B7FDBB2002B06D17B68002260
:2047E0001A777B68180000F082F87B6802225A777B681B79002B0CD17B681B68224A5A61DF
:204800007B681B689A687B681B6818218A439A600BE07B6899687B68DA687B68180000F0EB
:2048200085F9031E01D001232AE07B685B79002B05D17B681B68012252421A6104E07B68C3
:204840001B687A6812691A617B681B689B686022934319007B685A697B681B680A439A60D0
:204860007B681B689B688022934319007B689A697B681B680A439A607B6801225A770023B1
:204880001800BD4602B080BDB71DC10480B582B000AF78607B68002B01D1012323E07B689D
:2048A0005B7FDBB2022B01D102231CE07B6802225A777B681B689A687B681B6801210A435C
:2048C0009A607B681B681B797B681B6800221A717B68180000F013F87B6800225A777B6822
:2048E00000221A7700231800BD4602B080BD80B582B000AF7860C046BD4602B080BD80B5BD
:2049000082B000AF7860C046BD4602B080BD80B586B000AFF860B9607A6000233B61FB685F
:2049200002225A77FB681B6A032B05D02DD8012B19D0022B20D028E000237B610AE07B698B
:204940009B00BA68D218FB681B6812681A607B6901337B617A697B689A42F0D3FB681B6897
:204960001B683B6112E07A68B968FB68180000F015F803003B6109E07A68B968FB681800A5
:2049800000F09DF803003B6100E0C046FB6801225A773B691800BD4606B080BD80B588B097
:2049A00000AFF860B9607A600023FB6123E0FB699B00BA68D3181B781A06FB699B00013389
:2049C000B968CB181B781B041A43FB699B000233B968CB181B781B021A43FB699B0003334A
:2049E000B968CB181B781900FB681B680A431A60FB690133FB617B689B08FA699A42D6D3F8
:204A00007B680322134053D07B6803221340012B07D1FB699B00BA68D218FB681B6812783E
:204A20001A707B6803221340022B19D1FB699B00BA68D3181B781B021AB2FB699B000133BF
:204A4000B968CB181B781BB213431AB21A217B181A80FB681B687B617B697A1812881A80FC
:204A60007B6803221340032B22D1FB699B00BA68D3181B781B021AB2FB699B000133B968DE
:204A8000CB181B781BB213431AB21A217B181A80FB681B687B617B697A1812881A80FB6979
:204AA0009B000233BA68D218FB681B6812781A70FB681B681B681800BD4608B080BD80B572
:204AC00086B000AFF860B9607A6000237B6113E07B699B00BA68D3181B881A047B699B00E8
:204AE0000233B968CB181B881900FB681B680A431A607B6901337B617B685B087A699A421B
:204B0000E6D37B680122134009D0FB681B683B617B699B00BA68D3181A883B691A80FB6859
:204B20001B681B681800BD4606B080BD80B586B000AFF860B9607A601723FB1800221A7003
:204B40001F233B61C0463B695A1E3A61002B08D03B691F221340BA68DA40130001221340BA
:204B6000F1D07B68182B0FD07B68182B24D87B68102B11D07B68102B1ED87B68002B20D03C
:204B80007B68082B10D017E03B69062B1BD91723FB1801221A7016E03B69072B15D9172371
:204BA000FB1801221A7010E03B690F2B0FD91723FB1801221A700AE01723FB1801221A70A1
:204BC00006E0C04604E0C04602E0C04600E0C0461723FB181B78002B0ED1FB681B68BA683F
:204BE0005A61FB681B689B68182293431900FB681B687A680A439A601723FB181B781800E1
:204C0000BD4606B080BD000080B586B000AF7860396000237B610023FB6000233B614FE1A7
:204C20003B681B6801217A6991400A001340FB60FB68002B00D140E13B685B680322134062
:204C4000012B05D03B685B6803221340022B30D17B689B683B617B695B0003229A40130074
:204C6000DA433B6913403B613B68DA687B695B009A4013003A6913433B617B683A699A605E
:204C80007B685B683B6101227B699A401300DA433B6913403B613B685B681B0901221A4027
:204CA0007B699A4013003A6913433B617B683A695A603B685B6803221340032B17D07B6878
:204CC000DB683B617B695B0003229A401300DA433B6913403B613B689A687B695B009A4036
:204CE00013003A6913433B617B683A69DA603B685B6803221340022B23D17B69DA087B68A4
:204D000008329200D3583B617B69072213409B000F229A401300DA433B6913403B613B6894
:204D20001A697B6907210B409B009A4013003A6913433B617B69DA087B6808329200396965
:204D4000D1507B681B683B617B695B0003229A401300DA433B6913403B613B685B680322A4
:204D60001A407B695B009A4013003A6913433B617B683A691A603B685A68C0239B021340E0
:204D800000D19AE0544B5A6B534B01210A435A63524A7B699B0802339B009B583B617B6934
:204DA000032213409B000F229A401300DA433B6913403B617A68A023DB059A4219D07B68E5
:204DC000474A934213D07B68464A93420DD07B68454A934207D07B68444A934201D1052307
:204DE00008E0062306E0032304E0022302E0012300E000237A6903210A40920093403A692B
:204E000013433B6135497B699B0802339B003A695A50374B1B683B61FB68DA433B69134066
:204E20003B613B685A6880235B02134003D03A69FB6813433B612E4B3A691A602C4B5B6883
:204E40003B61FB68DA433B6913403B613B685A6880239B02134003D03A69FB6813433B61E0
:204E6000234B3A695A60224B9B683B61FB68DA433B6913403B613B685A6880235B0313408F
:204E800003D03A69FB6813433B61194B3A699A60174BDB683B61FB68DA433B6913403B61F2
:204EA0003B685A6880239B03134003D03A69FB6813433B610E4B3A69DA607B6901337B6104
:204EC0003B681A687B69DA40131E00D0A8E6C046C046BD4606B080BD00100240000001408B
:204EE0000004005000080050000C0050001C00500004014080B582B000AF786008001100F2
:204F0000BB1C021C1A807B1C0A1C1A707B1C1B78002B04D0BB1C1A887B689A6103E0BB1C81
:204F20001A887B689A62C046BD4602B080BD80B584B000AF78600A00BB1C1A807B685B69E6
:204F4000FB60BB1C1B88FA6813401A04FB68DB43B91C09880B401A437B689A61C046BD4633
:204F600004B080BD80B584B000AF78607B68002B01D101233DE07B681B68204A1A607B6802
:204F80001B681F4A1A607B681B687A6852685A607B681B687A6892689A60FFF729FB030096
:204FA000FB600EE0FFF724FB0200FB68D31A2A2B07D97B681B68DB680722134001D00323F0
:204FC00017E07B681B68DB6807221340EAD17B681B681A697B68DB689A4205D07B681B68D4
:204FE0007A68D2681A6103E07B681B68054A1A6000231800BD4604B080BDC046CCCC00003B
:2050000055550000AAAA0000B0B58AB000AF78607B68002B02D1012300F0AFFBCF4BDB6870
:205020000C2213403B62CD4BDA6880235B021340FB617B681B680122134000D17EE03B6A99
:20504000082B07D03B6A0C2B12D1FA6980235B029A420DD1C14B1A6880239B02134000D178
:205060006BE07B685B68002B67D1012300F085FB7B685A6880235B029A4207D1B74B1A686B
:20508000B64B802149020A431A6027E07B685A68A023DB029A420ED1B04B1A68AF4B80213D
:2050A000C9020A431A60AD4B1A68AC4B802149020A431A6012E0A94B1A68A84BA8490A40A4
:2050C0001A60A64B1A6880235B021340FB60FB68A24B1A68A14BA3490A401A607B685B6821
:2050E000002B15D0FFF784FA0300BB6109E0FFF77FFA0200BB69D31A642B02D9032300F022
:205100003CFB964B1A6880239B021340EFD015E0FFF76EFA0300BB6108E0FFF769FA0200EE
:20512000BB69D31A642B01D9032326E38B4B1A6880239B021340F0D100E0C0467B681B68CE
:205140000222134000D18BE07B68DB687B613B6A042B05D03B6A0C2B3ED1FB69002B3BD16B
:205160007E4B1B680422134004D07B69002B01D1012302E3794B5B687B4A134019007B6811
:205180001B691A02754B0A435A60744B1B68092293431900714B7A690A431A6000F0D2FC28
:2051A00001006E4BDB681B090F2213406F4AD35C0A00DA406E4B1A606E4B1B6813257C1902
:2051C0001800FFF7CFF9030023707B191B78002B46D07B191B78D0E27B69002B27D05F4B72
:2051E0001B680922934319005C4B7A690A431A60FFF7FEF90300BB6108E0FFF7F9F90200E3
:20520000BB69D31A022B01D90323B6E2534B1B6804221340F1D0514B5B68534A13401900F5
:205220007B681B691A024D4B0A435A6018E04B4B1A684A4B01218A431A60FFF7D9F9030073
:20524000BB6108E0FFF7D4F90200BB69D31A022B01D9032391E2414B1B6804221340F1D18A
:205260007B681B681022134000D1A1E03B6A002B40D13A4B1A6880239B00134005D07B68C0
:20528000DB69002B01D1012377E2344B5B683A4A134019007B685A6A304B0A435A602F4B7B
:2052A0005B681B02190A7B681B6A1A062B4B0A435A607B685B6A5B0B0133802212029A4014
:2052C000264BDB681B090F210B402849CB5CDA40274B1A60274B1B6813257C191800FFF70D
:2052E00041F9030023707B191B78002B60D07B191B7842E27B68DB69002B3FD0174B1A68CC
:20530000164B802149000A431A60FFF771F90300BB6108E0FFF76CF90200BB69D31A022B79
:2053200001D9032329E20D4B1A6880239B001340F0D00A4B5B68104A134019007B685A6AB2
:20534000064B0A435A60054B5B681B02190A7B681B6A1A06014B0A435A6029E0001002406C
:20536000FFFFFEFFFFFFFBFFFFE0FFFF28A700088000002084000020FF1FFFFFBD4B1A689C
:20538000BC4BBD490A401A60FFF732F90300BB6108E0FFF72DF90200BB69D31A022B01D9DE
:2053A0000323EAE1B34B1A6880239B001340F0D17B681B680822134036D07B685B69002B6F
:2053C00019D0AC4B1A6DAB4B01210A431A65FFF70FF90300BB6108E0FFF70AF90200BB695E
:2053E000D31A022B01D90323C7E1A24B1B6D02221340F1D018E09F4B1A6D9E4B01218A43FD
:205400001A65FFF7F5F80300BB6108E0FFF7F0F80200BB69D31A022B01D90323ADE1954B97
:205420001B6D02221340F1D17B681B680422134000D1AEE027203B1800221A708D4B9A6B4A
:2054400080235B05134009D18A4B9A6B894B802149050A439A633B1801221A70874B1A68E1
:2054600080235B0013401AD1844B1A68834B802149000A431A60FFF7BBF80300BB6108E070
:20548000FFF7B6F80200BB69D31A642B01D9032373E17A4B1A6880235B001340F0D07B6837
:2054A0009A6880235B009A4207D1724B1A6D714B802149000A431A6531E07B689B68002B60
:2054C0000CD16C4B1A6D6B4B6B490A401A65694B1A6D684B6A490A401A6520E07B689A682F
:2054E000A023DB009A420ED1624B1A6D614B8021C9000A431A655F4B1A6D5E4B8021490079
:205500000A431A650BE05B4B1A6D5A4B5A490A401A65584B1A6D574B59490A401A657B687C
:205520009B68002B15D0FFF763F80300BB6109E0FFF75EF80200BB69D31A524A934201D955
:2055400003231AE14B4B1A6D80239B001340EFD014E0FFF74DF80300BB6109E0FFF748F850
:205560000200BB69D31A474A934201D9032304E1404B1A6D80239B001340EFD12723FB180D
:205580001B78012B05D13B4B9A6B3A4B3E490A409A637B681B682022134049D07B689B699D
:2055A000002B26D0334B9A68324B01210A439A60304B5A6B2F4B01210A435A63334B1A6A7C
:2055C000324B802189010A431A62FFF711F80300BB6108E0FFF70CF80200BB69D31A022B1A
:2055E00001D90323C9E0234B9B6802221340F1D01EE0204B9A681F4B01218A439A60234B2D
:205600001A6A224B22490A401A62FEF7F1FF0300BB6108E0FEF7ECFF0200BB69D31A022B5C
:2056200001D90323A9E0134B9B6802221340F1D17B689B6A002B00D19EE03B6A0C2B00D138
:2056400077E07B689B6A022B58D10A4B1A68094B10490A401A60FEF7CBFF0300BB611BE094
:20566000FEF7C6FF0200BB69D31A022B14D9032383E0C04600100240FFFEFFFF00700040B7
:20568000FFFBFFFF88130000FFFFFFEF00000140FFDFFFFFFFFFFFFE3A4B1A6880239B042A
:2056A0001340DDD1374BDB68374A134019007B68DA6A7B681B6B1A437B685B6B1A43314BC8
:2056C0000A43DA602F4B1A682E4B802149040A431A60FEF78DFF0300BB6108E0FEF788FF15
:2056E0000200BB69D31A022B01D9032345E0254B1A6880239B041340F0D03DE0214B1A68F3
:20570000204B22490A401A60FEF772FF0300BB6108E0FEF76DFF0200BB69D31A022B01D907
:2057200003232AE0174B1A6880239B041340F0D122E07B689B6A012B01D101231DE0114B9A
:20574000DB68FB61FA6980235B021A407B68DB6A9A420FD1FA69F0239B031A407B681B6B32
:205760009A4207D1FA69C0231B041A407B685B6B9A4201D0012300E000231800BD460AB064
:20578000B0BDC04600100240FFFF02FFFFFFFFFEB0B584B000AF786039607B68002B01D1B1
:2057A000012328E1964B1B68012213403A689A421ED9934B1B68012293431900904B3A687D
:2057C0000A431A60FEF714FF0300FB6009E0FEF70FFF0200FB68D31A8A4A934201D90323B5
:2057E00009E1874B1B68012213403A689A42EED17B681B680222134009D0834BDB68F022DE
:20580000934319007B689A687F4B0A43DA607B681B680122134000D189E07B685B68022B7A
:2058200007D1794B1A6880239B02134020D10123E1E07B685B68032B07D1734B1A68802352
:205840009B04134014D10123D5E07B685B68012B06D16D4B1B680422134009D10123CAE093
:20586000694B1A6880239B00134001D10123C2E0654BDB680322934319007B685A68624B70
:205880000A43DA60FEF7B4FE0300FB607B685B68022B11D109E0FEF7ABFE0200FB68D31AEE
:2058A000584A934201D90323A5E0574BDB680C221340082BEFD13AE07B685B68032B11D1C3
:2058C00009E0FEF795FE0200FB68D31A4D4A934201D903238FE04C4BDB680C2213400C2B98
:2058E000EFD124E07B685B68012B1BD109E0FEF77FFE0200FB68D31A424A934201D9032318
:2059000079E0414BDB680C221340042BEFD10EE0FEF76EFE0200FB68D31A3A4A934201D91B
:20592000032368E0384BDB680C221340F0D1344B1B68012213403A689A421ED2304B1B680D
:205940000122934319002E4B3A680A431A60FEF74FFE0300FB6009E0FEF74AFE0200FB6828
:20596000D31A284A934201D9032344E0244B1B68012213403A689A42EED17B681B6804229E
:20598000134009D0204BDB68204A134019007B68DA681D4B0A43DA607B681B680822134060
:2059A0000AD0194BDB681A4A134019007B681B69DA00154B0A43DA6000F0C4F80100124B64
:2059C000DB681B090F221340124AD35C0A00DA40114B1A60114B1B680B257C191800FEF7A6
:2059E000C1FD030023707B191B78002B02D07B191B7800E000231800BD4604B0B0BDC046C3
:205A0000002002408813000000100240FFF8FFFFFFC7FFFF28A70008800000208400002063
:205A200090B58DB000AFF860B9607A601C243B19180014231A00002101F03AFC20003B1832
:205A400002225A603B180222DA603B1800229A60FB68002B1AD13B18802252001A603B18BB
:205A600000221A612D4BDA6A2C4B01210A43DA622A4BDB6A01221340BB61BB693A18A02326
:205A8000DB0511001800FFF7BFF838E0FB68022B1AD11C203B18802292011A603B1800220A
:205AA0001A611E4BDA6A1D4B02210A43DA621B4BDB6A022213407B617B693B18184A1900FA
:205AC0001000FFF7A1F81AE01C203B18802292001A603B1800221A61104BDA6A0F4B0121E5
:205AE0000A43DA620D4BDB6A012213403B613B693A18A023DB0511001800FFF785F8074BE7
:205B0000DB68084A13401900BA687B681A43034B0A43DA60C046BD460DB090BD00100240E8
:205B200000040050FFFFFF8080B500AF044B1A68034B802109030A431A60C046BD4680BDD7
:205B400000100240B0B58EB000AF4C4BDB68FB62FA6A0C2313400C2B14D000D97BE0042B06
:205B600002D0082B0BD076E0444B1B681022134002D0434B3B637CE0424B3B6379E0424BED
:205B80003B6376E0FB6A9A0C0F231A403F4B9B5CBB62FB6A9A0D0323134001337B62374BC4
:205BA000DA6880235B0213401AD0BB6ABB610023FB61354A0023B869F969FAF795FC0200FD
:205BC0000B00100019007B6A3B6100237B613A697B69FAF769FC02000B0013007B6337E01F
:205BE000264B1B68102213401AD0BB6ABB600023FB60234A0023B868F968FAF775FC02000F
:205C00000B00100019007B6A3B6000237B603A687B68FAF749FC02000B0013007B6317E022
:205C2000BB6A180000231900164A0023FAF75CFC02000B00100019007B6A1C0000231D00A8
:205C400022002B00FAF730FC02000B0013007B637B6B3B630DE0094B5B685B0B0722134072
:205C60003B623B6A0133802212029A4013003B63C0463B6B1800BD460EB0B0BD0010024029
:205C800000093D000024F40000D4300040A7000880B500AF024B1B681800BD4680BDC046A1
:205CA0008000002080B500AFFFF7F2FF0100064BDB681B0A07221340044AD35CD9400B00A2
:205CC0001800BD4680BDC0460010024038A7000880B500AFFFF7DCFF0100064BDB68DB0AFE
:205CE00007221340044AD35CD9400B001800BD4680BDC0460010024038A7000880B586B085
:205D000000AF78601723FB1800221A707B681B682022134006D17B681A6880231B011340BA
:205D200000D1D9E09C4B9A6B80235B0513400AD1994B9A6B984B802149050A439A6317237D
:205D4000FB1801221A70954B1A6880235B0013401AD1924B1A68914B802149000A431A60F9
:205D6000FEF746FC03003B6108E0FEF741FC02003B69D31A642B01D9032308E1874B1A68D4
:205D800080235B001340F0D0834B1A68C0239B031340FB607B685A68C0239B031340FA6898
:205DA0009A4207D17B689A68C0239B031340FA689A4213D07B685A68C0239B021A40C023F3
:205DC0009B029A420AD1744B1A6880239B021A4080239B029A4201D10123D8E06E4B1A6D8A
:205DE000C0239B021340FB60FB68002B49D07B685A68C0239B021340FA689A4204D07B6861
:205E00001B68202213400DD17B689A68C0239B021340FA689A4234D07B681A6880231B016E
:205E200013402ED05C4B1B6D5D4A1340FB605A4B1A6D594B802109030A431A65564B1A6D1C
:205E4000554B58490A401A65534BFA681A65FA6880235B00134014D0FEF7CAFB03003B61C9
:205E600009E0FEF7C5FB02003B69D31A4E4A934201D903238BE0484B1A6D80239B0013406E
:205E8000EFD07B685A68C0239B021A40C0239B029A420CD1404B1B68444A134019007B68A0
:205EA0005A68C0239B031A403B4B0A431A603A4B196D7B685A68C0239B021A40364B0A43A0
:205EC0001A651723FB181B78012B05D1324B9A6B314B37490A409A637B681B6801221340C0
:205EE00009D02D4BDB6C0322934319007B68DA68294B0A43DA647B681B680222134009D01C
:205F0000254BDB6C0C22934319007B681A69224B0A43DA647B681B680422134009D01E4B2E
:205F2000DB6C244A134019007B685A691A4B0A43DA647B681B680822134009D0164BDB6C46
:205F40001D4A134019007B689A69134B0A43DA647B681B684022134009D00F4BDB6C174AA9
:205F6000134019007B681A6A0B4B0A43DA647B681B688022134009D0074BDB6C104A1340F3
:205F800019007B68DA69044B0A43DA6400231800BD4606B080BDC0460010024000700040AF
:205FA000FFFFFCFFFFFFF7FF88130000FFFFCFFFFFFFFFEFFFF3FFFFFFCFFFFFFFFFFFFBED
:205FC000FFFFF3FF80B582B000AF78607B68002B01D1012332E07B6839229B5CDBB2002BE0
:205FE00007D17B683822002199547B68180000F029F87B683922022199547B681A687B68DC
:2060000004331900100000F091F97B683E22012199547B683A22012199547B683B220121A4
:2060200099547B683C22012199547B683D22012199547B6839220121995400231800BD4647
:2060400002B080BD80B582B000AF7860C046BD4602B080BD80B584B000AF786039600F23B0
:20606000FB1800221A703B68002B04D17B683A229B5CDBB213E03B68042B04D17B683B2221
:206080009B5CDBB20BE03B68082B04D17B683C229B5CDBB203E07B683D229B5CDBB20E2149
:2060A0007A1813707B181B78012B01D0012390E03B68002B04D17B683A220221995413E02F
:2060C0003B68042B04D17B683B22022199540BE03B68082B04D17B683C220221995403E0FF
:2060E0007B683D22022199543B680C2B2AD03B680C2B30D83B68082B1BD03B68082B2AD8FF
:206100003B68002B03D03B68042B09D023E07B681B68DA687B681B6802210A43DA601FE079
:206120007B681B68DA687B681B6804210A43DA6016E07B681B68DA687B681B6808210A432B
:20614000DA600DE07B681B68DA687B681B6810210A43DA6004E00F23FB1801221A70C04676
:206160000F23FB181B78002B30D17B681B6839680122180000F04CFA7B681A688023DB05BB
:206180009A4209D07B681B68144A934204D07B681B68134A934211D17B681B689B680722D1
:2061A0001340BB60BB68062B10D07B681B681A687B681B6801210A431A6007E07B681B68B9
:2061C0001A687B681B6801210A431A600F23FB181B781800BD4604B080BDC04600080140BB
:2061E0000014014080B586B000AFF860B9607A601723FB1800221A70FB6838229B5C012B0C
:2062000001D102238CE0FB683822012199547B68002B1BD1FB681868BB681968BB685A68E9
:20622000BB68DB6800F0D6F8FB681B689A69FB681B680C218A439A61FB681B689969BB686B
:206240009A68FB681B680A439A6162E07B68042B1CD1FB681868BB681968BB685A68BB683E
:20626000DB6800F00DF9FB681B689A69FB681B682D490A409A61FB681B689969BB689B684D
:206280001A02FB681B680A439A6142E07B68082B1BD1FB681868BB681968BB685A68BB6801
:2062A000DB6800F02FF9FB681B68DA69FB681B680C218A43DA61FB681B68D969BB689A68F2
:2062C000FB681B680A43DA6123E07B680C2B1CD1FB681868BB681968BB685A68BB68DB6874
:2062E00000F050F9FB681B68DA69FB681B680E490A40DA61FB681B68D969BB689B681A0210
:20630000FB681B680A43DA6103E01723FB1801221A70FB683822002199541723FB181B7887
:206320001800BD4606B080BDFFF3FFFF80B584B000AF786039607B681B68FB607A68802390
:20634000DB059A4207D07B681F4A934203D07B681E4A934208D1FB6870229343FB603B68F4
:206360005B68FA681343FB607A688023DB059A4207D07B68144A934203D07B68134A934231
:2063800008D1FB68124A1340FB603B68DB68FA681343FB60FB68802293431A003B681B69A2
:2063A0001343FB607B68FA681A603B689A687B68DA623B681A687B689A627B6801225A61E4
:2063C000C046BD4604B080BD0008014000140140FFFCFFFF80B586B000AFF860B9607A60C7
:2063E0003B60FB681B6A012293431A00FB681A62FB689B697B61FB681B6A3B61FA6880235C
:20640000DB059A4207D0FB681B4A934203D0FB681A4A934201D1012300E00023002B08D0E1
:206420007B69032293437B617A697B6813437B6103E07B69012213437B617B69F0229343C1
:206440007B613B681B01FF2213407A6913437B613B690A2293433B61BB680A2213403A6991
:2064600013433B61FB687A699A61FB683A691A62C046BD4606B080BD0008014000140140CD
:2064800080B586B000AFF860B9607A603B60FB681B6A102293431A00FB681A62FB689B69AC
:2064A0007B61FB681B6A3B617B69144A13407B617B681B027A6913437B617B69104A134065
:2064C0007B613B681B031B041B0C7A6913437B613B69A02293433B61BB681B01A022134098
:2064E0003A6913433B61FB687A699A61FB683A691A62C046BD4606B080BDC046FFFCFFFF49
:20650000FF0FFFFF80B586B000AFF860B9607A603B60FB681B6A194A1A40FB681A62FB6888
:20652000DB697B61FB681B6A3B617B69032293437B617A697B6813437B617B69F022934338
:206540007B613B681B01FF2213407A6913437B613B690B4A13403B61BB681A02A0231B0111
:2065600013403A6913433B61FB687A69DA61FB683A691A62C046BD4606B080BDFFFEFFFF39
:20658000FFF5FFFF80B586B000AFF860B9607A603B60FB681B6A1A4A1A40FB681A62FB6821
:2065A000DB697B61FB681B6A3B617B69154A13407B617B681B027A6913437B617B69124A70
:2065C00013407B613B681B031B041B0C7A6913437B613B690D4A13403B61BB681A03A02383
:2065E0001B0213403A6913433B61FB687A69DA61FB683A691A62C046BD4606B080BDC04691
:20660000FFEFFFFFFFFCFFFFFF0FFFFFFF5FFFFF80B586B000AFF860B9607A60BB681F2264
:20662000134001229A4013007B61FB681B6A7A69D2431A40FB681A62FB681A6ABB681F21B8
:206640000B40796899400B001A43FB681A62C046BD4606B080BD80B582B000AF786039606B
:206660007B6838229B5C012B01D102230CE07B683822012199547B681B683A681A657B6821
:2066800038220021995400231800BD4602B080BD80B582B000AF78607B68002B01D1012373
:2066A00044E07B689B6F002B07D17B687422002199547B68180000F079F87B6824229A67B9
:2066C0007B681B681A687B681B6801218A431A607B68180000F034F90300012B01D10123C6
:2066E00024E07B685B6A002B03D07B68180000F0C7FB7B681B685A687B681B680D490A4015
:206700005A607B681B689A687B681B682A218A439A607B681B681A687B681B6801210A4322
:206720001A607B68180000F05FFC03001800BD4602B080BDFFB7FFFF80B582B000AF7860EA
:206740007B68002B01D101232CE07B6824229A677B681B681A687B681B6801218A431A6048
:206760007B681B6800221A607B681B6800225A607B681B6800229A607B68180000F01EF852
:206780007B688022002199507B6800229A677B680022DA677B6800221A667B6874220021FF
:2067A000995400231800BD4602B080BD80B582B000AF7860C046BD4602B080BD80B582B072
:2067C00000AF7860C046BD4602B080BD80B58AB002AFF860B9603B60BB1D1A80FB689B6F2F
:2067E000202B00D095E0BB68002B03D0BB1D1B88002B01D101238DE0FB689A6880235B017B
:206800009A4209D1FB681B69002B05D1BB680122134001D001237DE0FB6874229B5C012BD3
:2068200001D1022376E0FB68742201219954FB68802200219950FB6821229A67FDF7D8FE83
:2068400003007B61FB68BA1D502112885A52FB68BA1D522112885A52FB689A6880235B0111
:206860009A4208D1FB681B69002B04D10023FB61BB68BB6103E0BB68FB610023BB61FB68BA
:206880007422002199542CE07A69F8683B68009313000022802100F0EFFB031E01D0032307
:2068A00038E0FB69002B0BD1BB691B881A00FB681B68D205D20D9A62BB690233BB6107E080
:2068C000FB691A78FB681B689A62FB690133FB61FB6852229B5A9BB2013B99B2FB68522275
:2068E0009952FB6852229B5A9BB2002BCCD17A69F8683B68009313000022402100F0BCFB16
:20690000031E01D0032305E0FB6820229A67002300E002231800BD4608B080BD80B584B033
