:020000040800F2
:20000000002000209D430008DD3C0008413D00080000000000000000000000000000000011
:20002000000000000000000000000000693D00080000000000000000853D0008A13D000862
:20004000C1430008C1430008C1430008C1430008C1430008C1430008C1430008C143000840
:20006000C1430008C1430008C1430008C1430008C1430008C143000800000000C14300082C
:2000800000000000C14300080000000000000000D93E000800000000C1430008C14300081D
:2000A000C1430008C1430008C1430008C1430008C1430008C1430008C1430008C1430008E0
:2000C00010B5064C2378002B07D1054B002B02D0044800E000BF0123237010BD5C02002031
:2000E00000000000789D0008044B10B5002B03D00349044800E000BF10BDC04600000000C7
:2001000060020020789D00080023C25C0133002AFBD1581E7047000002B4714649084900A1
:20012000095C49008E4402BC7047C04603B47146490840004900095E49008E4403BC704784
:20014000002243088B4274D303098B425FD3030A8B4244D3030B8B4228D3030C8B420DD390
:20016000FF22090212BA030C8B4202D31212090265D0030B8B4219D300E0090AC30B8B421D
:2001800001D3CB03C01A5241830B8B4201D38B03C01A5241430B8B4201D34B03C01A52417C
:2001A000030B8B4201D30B03C01A5241C30A8B4201D3CB02C01A5241830A8B4201D38B02B2
:2001C000C01A5241430A8B4201D34B02C01A5241030A8B4201D30B02C01A5241CDD2C30977
:2001E0008B4201D3CB01C01A524183098B4201D38B01C01A524143098B4201D34B01C01AEC
:20020000524103098B4201D30B01C01A5241C3088B4201D3CB00C01A524183088B4201D355
:200220008B00C01A524143088B4201D34B00C01A5241411A00D20146524110467047FFE728
:2002400001B5002000F0F0F802BDC0460029F7D076E7704703460B437FD4002243088B4203
:2002600074D303098B425FD3030A8B4244D3030B8B4228D3030C8B420DD3FF22090212BAB1
:20028000030C8B4202D31212090265D0030B8B4219D300E0090AC30B8B4201D3CB03C01A78
:2002A0005241830B8B4201D38B03C01A5241430B8B4201D34B03C01A5241030B8B4201D328
:2002C0000B03C01A5241C30A8B4201D3CB02C01A5241830A8B4201D38B02C01A5241430A86
:2002E0008B4201D34B02C01A5241030A8B4201D30B02C01A5241CDD2C3098B4201D3CB01A3
:20030000C01A524183098B4201D38B01C01A524143098B4201D34B01C01A524103098B42CB
:2003200001D30B01C01A5241C3088B4201D3CB00C01A524183088B4201D38B00C01A5241A8
:2003400043088B4201D34B00C01A5241411A00D201465241104670475DE0CA0F00D0494274
:20036000031000D34042534000229C4603098B422DD3030A8B4212D3FC22890112BA030A65
:200380008B420CD3890192118B4208D3890192118B4204D389013AD0921100E08909C30996
:2003A0008B4201D3CB01C01A524183098B4201D38B01C01A524143098B4201D34B01C01A2A
:2003C000524103098B4201D30B01C01A5241C3088B4201D3CB00C01A524183088B4201D394
:2003E0008B00C01A5241D9D243088B4201D34B00C01A5241411A00D20146634652415B109B
:20040000104601D34042002B00D54942704763465B1000D3404201B5002000F005F802BD03
:200420000029F8D016E770477047C0468446100062468C461900634600E0C0461FB501F099
:2004400027F8002801D40021C8421FBD10B500F077FF4042013010BD10B501F019F80028DF
:2004600001DB002010BD012010BDC04610B501F00FF8002801DD002010BD012010BDC0461B
:2004800010B500F09FFF002801DC002010BD012010BDC04610B500F095FF002801DA0020B7
:2004A00010BD012010BDC046002B11D1002A0FD1002900D1002802D00021C943080007B480
:2004C000024802A14018029003BDC0465DFFFFFF03B4684601B5029800F034F8019B9E46D4
:2004E00002B00CBC7047C046F0B5CE46474680B5070099463B0C9C4613041B0C1D000E00D2
:2005000061460004140C000C45434B4360436143C0182C0C20188C46834203D980235B02EC
:200520009846C444494679437243030C63442D042D0CC918000440198918C0BCB946B04665
:20054000F0BDC046F0B557464E464546DE46E0B504000D009246994683B08B4230D82DD001
:200560004946504601F0BEFE29000600200001F0B9FE331A9846203B9B4633D45A4653460B
:20058000934042461F00534693401E00AF423AD8AF4200D178E05B46A41BBD41002B00DAD7
:2005A00075E0002200230092019301235A4693400193012342469340009328E08242CFD9CA
:2005C00000220023009201930C9B002B01D01C605D600098019903B0F0BCBB46B246A9465B
:2005E000A046F0BD424620239B1A5246DA40414613004A468A40170042461F4353469340D5
:200600001E00AF42C4D900220023009201934346002BD9D0FB0772081A4346467B080EE090
:20062000AB4201D1A2420CD8A41A9D41012024196D410021013E24184D41002E06D0AB4270
:20064000EED9013E24196D41002EF8D1009801995B4600196941002B24DB2B005A4644469D
:20066000D3402A00E2401C005B461500002B2ADB26009E40330026004746BE403200801A65
:200680009941009001919FE7A342BCD883E74246202300219B1A0022009101920122DA40D1
:2006A000019286E7424620239B1A2A0046469A402300F340444613432A00E2401C005B46EB
:2006C0001500002BD4DA42462F002023260097409B1ADE403B003343CDE7C046F0B54F46BD
:2006E0004646D6460D000400C0B51F0011002803620F400A10437A00520DE3003C03914691
:20070000640AFA0F4F0F6E0027439246B846760DED0FC900954200D199E04C46341BA44622
:20072000002C00DC7CE04A46002A00D1B8E0C54A964200D11CE180223C0012041443A0464C
:200740006246382A00DD61E11F2A00DDCCE164462022121B444694400F00A14664469140B5
:20076000E7404C464A1E91413C43424621436446E240801A5C1AA3429B415F42C71B3B02BE
:2007800000D4D0E07F027F0A002F00D1FFE0380001F08AFD01000839202322005B1A8F4051
:2007A000DA408C401743B14200DAFFE0891B4B1C1F2B00DDA8E020223900D21A2000944038
:2007C0009140D840621E9441DF40002601430C43630709D00F232340042B05D0231DA34202
:2007E000A44164423F191C003B0200D49EE0954B01369E4200D1B7E0934AE40817407B076A
:2008000071057F0223433F0B4A0D12053A43ED072A4318001100E0BCBA46B146A846F0BD8E
:20082000002C4BD04C46A41BA446002E00D023E104001C4300D1AFE16246541E012A00D15A
:2008400015E2804DAC4500D1C8E1A4461BE14A46B21A9446002A00DCACE04A46002A43D0EE
:20086000784A964200D1AFE180223C0012041443A0466246382A67DC1F2A00DC5FE147460D
:20088000203AD7406246202A05D064464022121B4446944021434A1E91410C003C4357E029
:2008A0003A000A4300D105E12200013A012C00D182E1644CA4455BD0944641E7634C771C34
:2008C000274200D0C4E004001C43002E00D069E1002C00D1BFE144460C4300D0D0E1420750
:2008E000DB081343C00829E03A000A4300D170E162466446013A012C00D1E0E0514CA44574
:2009000000D161E19446B4E73A001F39CA401100202B03D04022D31A9F403C43631E9C4179
:20092000002700260C43630700D053E7B446E4087B072343F808434A94451DD062460703D4
:2009400052053F0B520D60E744460C43621E9441E4189C429B415F423F183B02E3D5394BFB
:2009600001369E4200D0B5E03200002700234CE74207DB081343C0081A00024300D1E1E110
:2009800080273F0307433F032E4A3F0B3DE7200001F08AFC010018311F2900DCFCE60838D5
:2009A000844027000024B14200DBFFE6264A761A17400DE7002A2FD04A46921B9446002EBC
:2009C00000D1ADE01F4A914500D10FE18022120410436246382A00DD0FE11F2A00DD80E150
:2009E000644620221E00121B6746040093409440FE405A1E9341F84034431C438044641890
:200A00008C42BF417F424E464744A6E742460A4311004A1E9141ADE60C4C721C224200D0CE
:200A2000A1E002001A43002E00D0FAE0002A00D145E13A000A4300D046E14207DB081343DD
:200A4000C0087BE7FF070000FFFF7FFFFE07000047465C1AC21BA342BF417F42B946170049
:200A60004A46BF1A3A0200D58DE023003B4300D08AE60020002561E7B44CA14500D1ADE0DD
:200A80008024240420436446382C3DDC62461F2C00DDB7E020251E002D1B0400AB40AC4013
:200AA000D640D04042465D1EAB413443121A904623432CE04207DB081343C0083BE75C1856
:200AC0009C429B4140445B42C71801263B0200D429E702269E4A63081740012214401C436C
:200AE000FB071C437F0873E64446203AD4406246202A05D067464022D21B4746974039431A
:200B00004A1E9141214335E60343581E8341CC1AA142BF4143467F4255464E46DF1B2EE64C
:200B200002001A4300D1BDE062466446013A012C00D1E5E0854CA44558D0944649E7644602
:200B40002022121B444694400F00A14664469140E7404C464A1E91413C4342460C43614667
:200B6000CA408018F4E6794CA24200D1FDE6591899429B4140445F42C719FC074908160005
:200B80000C437F08CFE6CC1AA142BF4143467F42181A5546C71BF7E5C9087B0755460B43F0
:200BA000F808C8E6002C00D081E043460B4315D1802000250003E3E65C1AA3429B41C71BC3
:200BC0005B420126FF1ADAE54207DB081343C008D2E64207DB081343C008ACE6434642468A
:200BE000C9085B0755460B43D008C5E6434642465B07C9080B43D008BEE603431C00631E65
:200C00009C41FCE60200203CE24014006246202A03D04025AD1AA8400343581E83412343C2
:200C200075E7002AE2D03A000A43CDD04207DB0813438022C0081203104206D0FC081442D5
:200C400003D12000CB087A0713435A0FDB005207DB08134390E643460B4300D109E7434689
:200C60004246C9085B0755460B43D00866E6CC1AA14289413F1A4942554601267F1A7EE577
:200C800042465C1A871AA34292415242BF1A3A023DD5CC1AA1428941434649421F1A5546C7
:200CA0007F1A95E57B07C9080B43F80843E64446DB080C4330D142071343C0085CE67B076F
:200CC000C9080B43F80839E65C189C429B4140445B42C7183B0200D425E61D4B01261F409E
:200CE00021E60400203AD4406246202A04D040226646921B904003435A1E93411C437EE6D5
:200D00005C188C428941404449424718DDE623003B4300D1ADE606E6440723438024C00888
:200D20002403204208D04246D608264204D155463000CB0851070B435A0FDB00DB085207EB
:200D4000134319E60023014A1F005EE5FF070000FFFF7FFFF0B557464E464546DE46E0B5D2
:200D6000814605000C03480092461F0085B0240B400DCE0F002800D156E1D44B984200D1D1
:200D800072E16B0FE4001C4380231B0423439846CF4BED009B4600239946834400933C03BA
:200DA0007B005046240B5B0DFF0F002B00D11FE1C64A934200D162E1C549420F8C46E40073
:200DC00059461443802263441204CB1A14439B46C200002033007B409A464B460F2B27D827
:200DE000BC499B00CB589F46B246009B022B16D0032B00D18EE2012B00D0D9E0002300243A
:200E0000002552461B052343D20713432800190005B0F0BCBB46B246A946A046F0BD00241F
:200E20000025AA4BEDE7BA46A04615000090DCE7444500D2C7E100D1C2E101235B429C465C
:200E40002E0040460025E3442302140E1C431B0C994623041F0C1202494600920197FFF7D1
:200E6000F5F902007A430B04310C804619438A4207D901235B429C460919E0448C4200D81C
:200E800007E2881A4946FFF7E1F909048C4631046646019A090C4243030031438A4204D953
:200EA0000919013B8C4200D8EDE1881A424612041A4390464146009B0E041B0C1F000293DE
:200EC000009B360C1B04190C0B007343120C7E43039151437A431F0CBC4676186644B14214
:200EE00003D9802149028C466244310C8A1831041E04360C8E19904202D312D1B54210D230
:200F00004346591E009B9C4665441F009D429B415B421B19C018844200D2A0E100D19BE1C2
:200F20008846AE1BB542AD41801A6D42401B844200D1D5E14946FFF789F9019A0B0442430E
:200F4000310C050019438A4200D96CE1881A4946FFF77CF9019A360442430904360C0300B9
:200F60000E43B24200D953E10398B61A02002D041D43029F2B041B0C5A437B439C46290CB8
:200F80004843130C844463447943984203D98020400284466144180C12041B04120C4118A5
:200FA0009B188E4200D2FFE000D1FAE001231D43494A5A44002A00DCAAE06B0700D03DE1AD
:200FC000ED084346DB0106D54246444B1A4090468022D2005A44424B9A4200DD1FE74346AE
:200FE0005B071D43434652055C02240B530D08E75246224300D17BE0002C00D1FAE0200053
:2010000001F052F902000B3A1D2301009B1A52460839DA408C40144352468A40314B5844C7
:201020009B4683440020D5E64B462343984644D0002C00D1CEE0200001F036F90100020056
:201040000B391D235B1A49461000D940083884400B004D462343984685402348831A9B464B
:201060000023994600939AE64B46234398461DD108239946063B0025834600938FE65246BF
:20108000224309D1022349461943184B89469C4600240220E3449DE603234A461A43134B8C
:2010A00091469C4652460320E34493E60C239946093BA0468346009371E604239946002308
:2010C0009B4601330025009369E6C046FF07000001FCFFFFB4A40008FF030000FFFFFFFE90
:2010E000FE070000F30300000DFCFFFF01F8FFFF4946012319438946002401206AE6002361
:2011000080249A4600258A4B24037AE601256D4201239B1A382B00DD70E61F2B00DCBFE0C1
:201120001F2149428A1A4146D1400A00202B04D04146804B5B4499400D436B1E9D410723D4
:201140002A431D0000241540134200D1D4E00F2100231140042900D1CBE0111D9142924191
:2011600052429B180A00190200D4C2E001230024002546E6802341461B03194208D01C421B
:2011800006D11C432403BA461500694B240B38E68024434624031C432403B246644B240B2C
:2011A0002FE6002B00D103E7A619681EA64200D28DE08E4200D2A3E000D1B3E00500F5E65F
:2011C000AA4200D939E64346DE0758086B081E43ED0739E6484601F067F80100020015314F
:2011E00020321C2900DC2CE74B46083883400025984632E701F058F803001A0015322030C4
:201200001C2A00DC00E75446083B00229C4005E73619013BB44200D9A6E6B24200D8A3E6C3
:20122000831E3619A0E60919013D8C4200D98DE68A4200D88AE6851E091987E60F232B40DB
:20124000042B00D1BCE605235B42AB429B4104355B42ED089844B4E6AF4200D960E6824249
:2012600004D800D05CE6AE4200D859E602235B429C46009BE0449C4665449D429B415B4233
:201280001B19C0184DE68A4200D80EE6831E09190BE68A4200D8F4E5831E98460919F0E5D0
:2012A0002549280059448D4042468A40691E8D414146D840D94002432A430B00510700D1E9
:2012C00051E70F211140042900D046E74BE705008E4200D06AE6009A934200D066E667E62C
:2012E000164A5A44002A00DC10E701230025984467E65D075B021C0BD2080023154380E5DF
:201300000098023D42008242BF417F423C1936190092DDE78024434624031C432403044B0C
:20132000240B6EE5009A9A42EAD30500D3E7C046FF0700003E0400001E040000FF030000C7
:20134000F0B54E464546DE4657469046E0B517001A03120B0500844619480E034C009146E8
:201360005A00DB0F9B46360B640DC90F520D844219D0824210D0012094420ED14E450CD1C6
:201380000120C44509D1594517D0002C05D130002843431E984100E00120F0BCBB46B24647
:2013A000A946A046F0BD330001202B43F5D1A242F3D14B463B43F0D1E2E70020EDE7C046E8
:2013C000FF070000F0B54746CE460400180016001B031B0B2D4D4A00994680B543000F031E
:2013E000A446B0463F0B520DC90F5B0DC00FAA4221D0AB4213D0002A22D13C43002B02D10E
:201400004D462E4322D0002C10D0814222D00220013908400138C0BCB946B046F0BD4D4687
:201420002E4329D1002AF0D13C43EED10028F2D101204042EFE73D0025431DD19342EED08E
:20144000002BE2D14C462643DFD1E0E70020002CE1D0DCE79A420ADCE8DB4F45D7D80ED0D6
:2014600000204F45D7D20029E2D00800D3E74342584140000138CEE702204042CBE7C445C7
:20148000C5D80020C445C6D2EDE7C046FF070000F0B54746CE460400180016001B031B0B52
:2014A0002C4D4A00994680B543000F03A446B0463F0B520DC90F5B0DC00FAA420DD0AB42B2
:2014C00010D0002A27D13C43002B11D14D462E430ED10020002C15D00EE03D00254310D1F6
:2014E000934218D14D462E430BD1002A02D13C43002C0BD0814214D0022001390840013847
:2015000000E00220C0BCB946B046F0BD0028F9D101204042F6E7002BECD14C462643E9D19C
:20152000EAE79A4204DD4342584140000138E9E79A42EBDB4F45DFD806D000204F45E1D28C
:201540000029E5D00800DDE7C445D5D80020C445D8D2F5E7FF070000F0B557464E46454615
:20156000DE46E0B598460C034B000600924687B0240B5B0DCF0F002B00D15CE1D94A9342BF
:2015800000D175E1420FE4001443802212041443D54AC500944663440093002399469B46AE
:2015A000434642461E03D20F5B0050469046360B5B0D00D120E1CB4A934200D162E1CA49C5
:2015C000420F8C4600996344F6008C46164380229C44120463461643C200002000930099DF
:2015E000434601318C4649467B4001930F2926D8BE4B890059588F464346019334001500CC
:2016000083465B46022B16D0032B00D103E2012B00D0CDE0002200240025019B120522433D
:20162000DB071A432800110007B0F0BCBB46B246A946A046F0BD00240025AA4AEDE7280C0F
:201640002D042D0C2B00110C1204120C5343984613002F00434399464F434F44BB464746D6
:201660000B003F0CBA464343DA440293D14504D980277F02B9464B44029353461B0C9B46FC
:2016800053461F0443461B041B0C98463B0043440493330C3604360C984633004343994657
:2016A000434643432F009A46434677435D43380C4D444519A94503D980235B029946CA443F
:2016C0003F04280C3F0C2D04ED19270C2404240C0300200050437A4391463A0053440593D3
:2016E000030C9A464A43614349445144AB44894503D980235B0299464A4400040B0C000C7B
:201700000904091820009946434670435C437E435F43030C9846A41944444A440397A6421C
:2017200004D980235B029846474403972304029E9A46059B5E449846AE42AD4176188E42C6
:2017400089410004000C504440446D424719B846934649428946C344D94498428041A845AB
:20176000AD4193459241894589416D4240422843240C524249420A43039B00198018C718D2
:201780004B46DC0D049B75021D436A1E95414B46F60D7F0235435A023C431543FB0100D46B
:2017A0001CE101216A080D401543E207154364084F496144002900DCB0E06B0709D00F22F8
:2017C0002A40042A05D02A1DAA42AD416D4264191500E30104D58021464AC900144061448A
:2017E000454A914200DD26E76207ED08640249051543240B4A0D10E75246324300D17FE079
:20180000002E00D1DCE0300000F04EFD02000B3A1D2301009B1A52460839DA408E4016434B
:2018200052468A40009B3549181A03008C46634400200093D3E6250005434AD0002C00D18F
:20184000B0E0200000F030FD010002000B391D2310005B1A3100350008388440D940854067
:201860000C432648831A0093002399469B4697E60500254326D108220093022300249146DA
:201880009B468DE65246009B324310D1154900268C466344494600930223194389460220DA
:2018A0009DE65B460197022B00D0ADE6C3E60D4A0320944663444A46009303231A439146BB
:2018C00052468CE60C2200930323050091469B4666E60423994600230093013300249B4619
:2018E0005EE6C046FF07000001FCFFFFF4A40008FF030000FFFFFFFEFE0700000DFCFFFFF4
:2019000049460123194389460026012067E6002380240025434A019324037EE60120401A42
:20192000382800DD76E61F285BDD1F2223005242511ACB401900202803D03B4A62449440EE
:2019400025436A1E95412A000A4307210D000024154011425BD00F2100241140042953D029
:20196000111D914292415242A4180A0023024BD501220024002550E680231B031C4209D05A
:201980001E4207D133431C0343461500240B254A019342E68022120314432403214A240BB3
:2019A00001973AE600F080FC01000200153120321C2900DC4BE7340008380025844050E781
:2019C00000F072FC03001A00153220301C2A00DC1EE75646083B00229E4023E7009B9C4668
:2019E000E6E61249220061442E008D408A40C640691E8D4132432A43C4405307B6D00F21E3
:201A000011400429ACD1B1E765076402240BD2081543002201E68022120314432403014A77
:201A2000240BFAE5FF0700003E0400001E040000F8B557464E464546DE46E0B51E001700D7
:201A40004A000B03520D5B0A9046420F1A43CD0FCD4C3103C300944670007A0F490AFF00D5
:201A60009A46B946400DF60F1143A04200D1B1E001225640B346B54200D188E04246121A07
:201A8000002A00DCAEE0002800D1C1E0BE48804500D151E1802000040143382A00DD7BE1C7
:201AA0001F2A00DDEEE120203E00801A0C00D640D140874062468440521A781E874194460F
:201AC00034432743DC1BA3429B4162465B42D31A99464B461B0200D418E14B465802430AA9
:201AE00099464B46002B00D137E1484600F0DCFB010008392023220048465B1ADA40884081
:201B00008C4043461043884500DD36E1C91A4B1C1F2B00DDEAE020222600D21A01009440F8
:201B2000DE40D84000239140621E94418146984631430C43630709D00F232340042B05D0E2
:201B4000231DA342A4416442A1441C004B461B0200D4DEE041468C4B0131994200D1E7E091
:201B60004B468A48E4080340180049055B07400223434A0D040B1205ED0722432A43180008
:201B80001100F0BCBB46B246A946A046F8BD4246121A002A52DD002800D19CE0A04500D1CD
:201BA000CAE0802000040143382A00DD49E11F2A00DC97E110000E002038C640202A04D0F3
:201BC0004020821A91400F43B9464C46621E944134433AE10A003A4328D0B346B5422BD004
:201BE0006B4A4244002A5DD042464446821A002C00D0F5E065461D4300D19CE1551E012ADD
:201C000000D1FBE1604CA24200D1BDE12A00F0E00800384300D1C3E0501E012A00D1A8E134
:201C2000594CA24200D187E0020036E701225640B346B54200D021E7554A4244002A00D123
:201C4000B5E042464446821A002C00D138E14E4EB04200D1DEE18026644636043443A44622
:201C6000382A00DD96E11F2A00DD24E22026B41AA24664465646B440A1461C004E46D440A1
:201C8000264334005646B3405E1EB3411C436346D340C918E419BC42BF417F42B94680462B
:201CA0008944D8E040463B4C0130204200D0B4E04046002800D044E16046184300D190E1B5
:201CC0000800384300D0AAE16146DB0849070B436146CC0827E00800384361D0501E012A2F
:201CE00000D139E1A24227D002005DE702001F39CA401100202B03D04022D31A98400443D7
:201D0000631E9C410023994698460C43630700D012E74B464A46E4085B072343D4084246CA
:201D200019498A420ED024035205240B520D22E70A00002400231EE7DB08624652071343F2
:201D40006246D4081A00224300D1FCE180221203144324030C4A240B0DE7200000F0A4FA76
:201D6000010018311F2900DCC4E608388440434620000024884500DCC8E6044A5B1A104010
:201D800098468146D6E6C046FF070000FFFF7FFF01F8FFFFFE0700000F437A1E974191E625
:201DA0006146DB0849070B436146CC08B8E74046D34C0130204200D0A2E04046002800D0D9
:201DC00001E16046184300D15EE10800384300D05FE16146DB0849070B436146CC08A2E751
:201DE000C84DA84200D1CFE0802564462D042C43A446382A56DC1F2A00DDD1E020251E00BD
:201E0000AD1A6446AB40AC40D6405D1EAB41344323436446D440091B49E06046DC1B461A18
:201E2000A34280414042814630004E46801B8146000276D44B46234300D052E600240025F9
:201E400071E739430C00621E9441E4189C429B415B42634499464B461B0200D456E7012391
:201E60009C46A84BE044984538D04B46A648012203401800630814401C43C3071C434308F5
:201E8000994657E610000E002038C640202A04D04020821A91400F43B9464F467A1E974169
:201EA00037430FE662461A4313005A1E9341FC1AA742BF417F42CB1B99465D46804608E673
:201EC00066461E4300D1BEE0561E012A00D109E18C4CA24200D119E13200C1E64246002420
:201EE000002348E620200C00801A3E0087408440D640781E8741D14034433C438C44A4E70C
:201F0000804A904200D1E9E0DF199F429B4161445B42C918CC077F084B08994680463C43E2
:201F2000F4E6FC1AA742BF4163467F42C91ACB1B99465D46D5E5FF084B075D463B43CC080B
:201F4000EEE662461A4300D082E00B003B431BD1802400252403F9E6DC199C429B416144DE
:201F600089465B4299444B461B0244D401239846CCE6DC1B6246A3429B41511A5B42CB1A51
:201F8000994601239846A4E5FF084B075D463B43CC08D7E662461A431400631E9C4179E6F6
:201FA00015006446203DEC40A046202A05D040256446AA1A944023439A465446631E9C41EF
:201FC0004346234373E762461A4323D00A003A4300D0A0E06246DB08520713436246D4082B
:201FE000B0E60B003B4300D128E7FF084B075D463B43CC0897E60223984636E7FC1AA742F8
:20200000BF4163467F42C91ACB1B994601235D4698465EE54B07FF083B43CC0892E6DC1BAC
:202020006046A342B641401A7642801B8146000260D5FC1AA742BF4163467F42C91ACB1B41
:2020400099465D4676E5FF084B073B43CC0867E60A00DB083A4300D16FE6624652071343C4
:202060006246D40880221203144207D0C808104204D15D460400FB0849070B435A0FDB0075
:20208000DB08520713435DE64B07FF083B43CC0849E6DC199C429B41614489465B429944F4
:2020A0004B461B0200D431E64A46174B1A400123914698462AE616006446203EF440A0461A
:2020C000202A05D040266446B21A944023439A465446631E9C4143461C43DBE50200002425
:2020E000002348E5DC19BC42BF41614489467F42B94438E74B46234300D19FE606E6C0460D
:20210000FE070000FF070000FFFF7FFFFF084B073B43CC0816E66246DB08520713436246AF
:20212000D40880221203144207D0C808104204D15D460400FB0849070B435A0FDB00520703
:20214000DB081343FEE50023014A1C0013E5C046FF07000070B505000C481C0316005B00C7
:202160000A034900120B490D240B5B0D814208D0064A0020934203D120003043431E98417E
:2021800070BD01202A43FBD1F2E7C046FF0700000A0030B5134C530009030500090B0020ED
:2021A0005B0DD20FA34204DD0F48834202DD0F4BD01830BD8020400301430D48C01A1F2849
:2021C00008DD0C48C31AD9400B005842002AF0D11800EEE7084CC540A446634499400B0085
:2021E0002B43F2E7FE0300001D040000FFFFFF7F3304000013040000EDFBFFFF70B5002879
:2022000016D0C317C5185D40C40F280000F04CF8114A121A0A2816DC03002E0015339E4053
:202220000B23181AC54052052D032D0B530D03E000240023002500261B052B43E4072343C6
:202240003000190070BD0B38854052052D0300262D0B530DF0E7C0461E04000010B5041ED5
:2022600010D000F021F80F4B1B1A0A2811DC0B222100121AD14015300A035B058440120BA9
:202280005B0D01E0002300221B0513432000190010BD22000B3882405B0512030024120B57
:2022A0005B0DF1E71E0400001C2101231B04984201D3000C10391B0A984201D3000A08391B
:2022C0001B09984201D30009043902A2105C40187047C046040302020101010100000000B2
:2022E0000000000010B5002903D1FFF7DDFF203002E00800FFF7D8FF10BDC04680B500AF8C
:2023000000F050F802F05EF88023DA0580235B041900002003F09AFA00F042F9134A144B12
:202320001100180005F034FB124A134B1100180005F02EFB114B180005F0B6FB00F0F4F859
:2023400000F01EF8A023DB0501228021180002F0E7FC00F0FBFBA023DB05002280211800BF
:2023600002F0DEFC00F07CFCFCE7C046909D0008A89D0008B09D0008C89D0008D09D000887
:2023800080B500AF064B1B68FA2291001800FDF7D7FE0300180002F056F9C046BD4680BD55
:2023A0008000002080B594B000AF294B9A6B284B802149050A439A63264B1B68264A1A4072
:2023C000244B802109010A431A603B1D01221A603B1D802252025A603B1D02229A623B1D4F
:2023E00080225202DA623B1DC02212031A633B1D8022D2035A633B1D180002F01BFD031EB8
:2024000005D0164B180005F0C3FA00F0DBFD3C217B180F221A607B1803225A607B18002232
:202420009A607B180022DA607B1800221A617B180121180003F0C2F8031E05D0084B1800A8
:2024400005F0A6FA00F0BEFDC046BD4614B080BD0010024000700040FFE7FFFFF09D0008B7
:202460000C9E000880B594B000AF2A4B9A6B294B802149050A439A63274B1B68274A1A409B
:20248000254B802109010A431A603B1D02221A603B1D0122DA603B1D02229A623B1D0022BD
:2024A000DA623B1D10221A613B1D8022D2021A633B1D8022D2035A633B1D180002F0BAFCEC
:2024C000031E05D0164B180005F062FA00F07AFD3C217B180F221A607B1803225A607B1835
:2024E00000229A607B180022DA607B1800221A617B180121180003F061F8031E05D0094B3E
:20250000180005F045FA00F05DFDC046BD4614B080BDC0460010024000700040FFE7FFFF2F
:202520000C9E0008289E000880B500AF202000F009F8402000F006F8802000F003F8C04627
:20254000BD4680BD80B588B000AF0200BB1D1A80124BDA6A114B01210A43DA620F4BDB6A64
:2025600001221340BB60BB68BB1D1A880C217B181A607B1801225A607B1801229A607B1840
:202580000222DA607A18A023DB051100180002F051FAC046BD4608B080BDC04600100240EC
:2025A00090B59FB000AF3D4BDA6A3C4B01210A43DA623A4BDB6A012213407B607B68642454
:2025C0003B1904221A603B1902225A603B190222DA603B1901229A603B1904221A613A196A
:2025E000A023DB051100180002F024FA3B1908221A603B1902225A603B1904221A613A198D
:20260000A023DB051100180002F014FA08217B1802221A607B180122DA607B1800229A62F3
:202620007B1810221A617B18180002F003FC40217B1802221A607B1808221A617B18180049
:2026400003F072FA154B9A6B144B802189020A439A63134B134A1A60114BE12252025A603F
:202660000F4B00229A600E4B0022DA600C4B00221A610B4B00229A61094B08225A61084B3C
:2026800000229A67064B0022DA67054B180003F015FFC046BD461FB090BDC0460010024077
:2026A000780200200044004080B582B000AF0200BB1D1A80B91D06480A23012203F09CFF70
:2026C000BB1D00229B5E1800BD4602B080BDC0467802002080B584B000AF39601100BB1DC3
:2026E000021C1A803B1D0A1C1A800E23FB1800221A8011E03B685A1C3A601B785BB21BB2F9
:202700001800FFF7D1FF0E217B1800229B5E9BB201339AB27B181A800E23FA183B1D002148
:20272000525E00215B5E9A42E4DB3B1D00229B5E1800BD4604B080BD80B582B000AFFB1DC7
:2027400003221A702A4B1B683D331A00284B1A60284B1A68284B1B685340013339D1274B2D
:202760001A68274B1B685340013332D1234B1B68002B2ED01F4B1B68224A93420ED8224B7D
:2027800001221A60204B01225A601F4B0021180002F014FFFB1D04221A701DE0154B1B6804
:2027A0001A4A93420ED9184B01221A60164B01225A60154B0021180002F000FFFB1D0422F3
:2027C0001A7009E0FB1D0A221A700C4B00221A6002E0FB1D08221A700D4B1B683D3B1A00AA
:2027E0000B4B1A60FB1D1B781800BD4602B080BD30000020380000205C00002044000020CC
:2028000068000020BB130000FC020020E42000005400002080B582B000AFFB1D03221A70EF
:20282000544B1B681D331A00524B1A60524B08221A60514B01225A614F4B00229A624E4BE9
:20284000180002F0F7FA031E02D0FB1D00221A70FB1D1B78032B12D1474B01221A60464B4A
:20286000802252025A60444B00229A62424B180002F0E0FA031E02D0FB1D01221A70FB1DBA
:202880001B78032B11D103F065F83C4B01221A603A4B02225A60394B0021180002F08EFE83
:2028A000031E02D0FB1D02221A70FB1D1B78032B2BD101F05FFB0300012B03D1FB1D0522FD
:2028C0001A7022E02E4B00221A60C0462C4B1B68002BFBD02A4B00221A60C046284B1B6854
:2028E000002BFBD0274B1A68FC235B009A4203D2FB1D04221A7008E0224B1A68D2239B0094
:202900009A4202D9FB1D04221A701C4B01221A601A4B01225A60194B0121180002F04EFE16
:20292000031E03D0FB1D06221A7016E0124B00221A60114B01229A620F4B180002F07AFA97
:20294000031E03D0FB1D07221A7006E0FB1D1B78032B02D1FB1D0A221A700B4B1B681D3B27
:202960001A00094B1A60FB1D1B781800BD4602B080BDC0463000002010030020FC02002013
:2029800044000020380000205400002080B500AF134B802212051A60124B134A1A60134B00
:2029A000134A1A60114B1B689A68104B1B6801210A439A600D4B00221A710C4B00225A71CF
:2029C0000A4B00225A61094B00229A61074B03221A62064B180001F043FEC046BD4680BD80
:2029E0004C00002070000020FFFFFFF76C0300200030024090B585B000AF0F23FB18022254
:202A00001A704A4B1B683F331A00484B1A60484B1B681A00474B1B685340013300D074E04B
:202A2000434B1A68444B9A4247D20023BB600DE03F4B1A68BB689B00D3181A683F4B7A603C
:202A40007A6812BA1A60BB680133BB603A4BF8221206944663449A08374BF82109068C4686
:202A600063449B0919001000FDF76AFB03001A00BB689342DCD32E4B1C682F4BF82212061C
:202A8000944663449A082C4BF82109068C4663449B0919001000FDF753FB03009B00E21854
:202AA000234B1A60224B1B68DB431A00214B1A600F23FB1800221A702BE0214B1A68214BCA
:202AC0001B68534001331BD1184B1B68DA1D174B1A601A4B1A68184B1B689A4204D10F2357
:202AE000FB1804221A7003E00F23FB1803221A70FFF74CFF144B1B68DA1F134B1A6008E060
:202B00000F23FB1801221A7003E00F23FB1801221A700D4B1B683F3B1A000B4B1A600F237D
:202B2000FB181B781800BD4605B090BD300000204C00002070000020C0AB000800300240A1
:202B400050000020740000205400002080B582B000AF00F099FD354B00221A60344B0122A3
:202B600052421A60334B00221A60334B012252421A60324B00221A60314B012252421A60B8
:202B8000304B00221A602F4B1B68DA432E4B1A602E4B00221A602E4B012252421A60FA2335
:202BA000DB01180001F04FFD031E05D0294B180004F0EEFE00F006FAFFF7E8FE01F068FC61
:202BC000030005337B60244B00221A60C046224B1B68002B05D101F05BFC02007B689342DB
:202BE000F5D81D4B00221A60C0461B4B1B68002B05D101F04DFC02007B689342F5D801F062
:202C000047FC02007B68934205D8144B180004F0BFFE00F0D7F90B4B00221A600A4B012288
:202C200052421A60C046BD4602B080BD3C0000206000002040000020640000204800002066
:202C40006C00002030000020540000203400002058000020449E000844000020649E000800
:202C600080B582B000AF984B1B68984A934200D026E1A023DB054021180002F06EF8924BF9
:202C80001A68934B1B685340013300D00CE18E4B00221A608F4B1B689A1C8E4B1A6000F002
:202CA0004FFE0300012B06D08B4B180004F070FE00F088F904E0894B1B689A1E874B1A60C2
:202CC000844B1B6835331A00824B1A6000F022F9031E06D0824B180004F05AFE00F072F94B
:202CE00005E07E4B1B68353B1A007C4B1A60794B1B6817331A00774B1A60FFF71DFD0300DE
:202D00000A2B05D03FDC042B09D0082B34D03AE0724B1B68173B1A00704B1A603AE0714B7E
:202D2000714A1A60C0466F4B180003F00DFD0300212BF8D06B4B180003F014FC694BE122EA
:202D400052025A60674B00229A60664B0022DA60644B00221A61634B00229A61614B08229D
:202D60005A61604B180003F0A9FB604B180004F00FFE00F027F90DE05D4B180004F008FEC3
:202D800000F020F906E05B4B180004F001FE00F019F9C0464F4B1B683F331A004D4B1A60D0
:202DA000FFF728FE03007B607B68002B03D07B68042B07D016E0494B1B683F3B1A00474B1C
:202DC0001A6016E02A20FFF76FFCA023DB054021180001F0C2FF414B1B683F3B1A003F4BDD
:202DE0001A6006E0444B180004F0D2FD00F0EAF8C046384B1A68394B1B68534001334CD141
:202E00003E4B1A683E4B1B685340013345D17B68042B2AD12F4B19683A4BF8221206944625
:202E200063449A0913009B009B18DB009B18DB009B1A4F33FF33994210D1264B1A682F4BEC
:202E40001B68D21AA7235B009A4207D1214B00221A60224B012252421A6015E02A4B180002
:202E600004F096FD00F0AEF80EE01A4B1A68234B1B68D21A4823FF339A4205D0234B1800AF
:202E800004F086FD00F09EF8124B1A681B4B1A60124B1A681A4B1A600CE01D4B180004F058
:202EA00077FD00F08FF805E0194B180004F070FD00F088F8A023DB054021180001F04DFF9C
:202EC000C046BD4602B080BD40000020AAAAAAAA64000020300000208C9E00085400002078
:202EE000A89E00087802002000440040BC9E0008E49E0008109F00083C9F00084800002078
:202F00006C000020C0AB0008589F0008849F0008BC9F000880B582B000AFFB1D00221A704B
:202F2000184B1B683B331A00164B1A60164B1B68164A934202D0FB1D01221A70124B5B6878
:202F4000134A934202D0FB1D01221A700E4B9B68104A934202D0FB1D01221A700A4BDB68EE
:202F60000D4A934202D0FB1D01221A700B4B1B683B3B1A00094B1A60FB1D1B781800BD4691
:202F800002B080BD30000020B0070020EEEEEEEECCCCCCCCBBBBBBBBDDDDDDDD540000205F
:202FA00080B500AFBFF34F8FC046044B044ADA60BFF34F8FC046C046FDE7C04600ED00E06D
:202FC0000400FA0580B500AF094B00221A60084B1A68084B1A60084B180004F0D9FCA02381
:202FE000DB0501228021180001F09AFEFEE7C046600000203C000020E49F000890B583B0C2
:2030000000AFDC4B00221A60DA4B1A68DA4B1A6001F0D8F901F000F9FFF7C2FAD74B180060
:2030200004F0B6FC2020FFF78DFA4020FFF78AFA8020FFF787FAD24B00221A60D04B1B68E5
:20304000DA43D04B1A60CE4B1B689A1CCC4B1A6000F040FD0300012B06D0CB4B180004F087
:2030600097FCFFF7AFFF08E0C64B1B689A1EC54B1A60C64B180004F08BFCC14B1B685A1DB1
:20308000BF4B1A6000F0BAF9BE4B1B685A1FBD4B1A60C046BE4B180003F056FB0300212BC8
:2030A000F8D0FFF7DFF9BA4B180003F05BFAB84B180003F003FA2020FFF744FA4020FFF740
:2030C00041FA8020FFF73EFAA023DB0501224021180001F025FE0A2000F0C8FA0300012B89
:2030E00005D1AC4B180004F053FCFFF76BFF262000F0BCFA0300012B06D1A74B180004F058
:2031000047FCFFF75FFF03E0A44B180004F040FCA023DB0501222021180001F001FE72B6C7
:20312000C0469F4980239B050022180000F032FB031E16D062B6C046954B9A4A1A60944BC5
:20314000802200219950924B00229A67904B0022DA6701F005F9944B180004F019FCFFF7A0
:2031600031FF62B6C0468A4B8E4A1A60884B802200219950864B00229A67854B0022DA6734
:2031800001F0EEF8894B180004F002FC62B6C0467B4B00221A607A4B1B68DA43794B1A6057
:2031A00001F0DEF8A023DB0500222021180001F0B7FD734B1B6813331A00714B1A607C4BE7
:2031C0007C4A1A607A4B01225A77794B00221A71774B00225A71764B00225A61744B002257
:2031E0009A61734B03221A62714B00220021180001F0A4FA0200704B1A606F4B1B68DA433E
:203200006E4B1A605F4B1B68133B1A005D4B1A60A023DB0501224021180001F081FDC04610
:203220005B4B180003F090FA0300212BF8D0544B1B6817331A00524B1A60FC1DFFF7EAFAAC
:2032400003002370524B574A1A60514B180003F089F94F4BE12252025A604D4B00229A6098
:203260004B4B0022DA604A4B00221A61484B00229A61474B08225A61454B180003F01EF951
:20328000FB1D1B780A2B22D89A004D4BD3181B689F464C4B180004F07BFB1CE04A4B18000D
:2032A00004F076FB17E0494B180004F071FB12E0474B180004F06CFB0DE0464B180004F025
:2032C00067FB08E0444B180004F062FB03E0434B180004F05DFBFB1D1B780A2B01D0FFF730
:2032E00071FE284B1B68173B1A00264B1A60A023DB0500224021180001F012FD204B1B68E6
:2033000035331A001E4B1A60354B364A1A60344B354A5A60324B354A9A60314B344ADA60EC
:20332000184B1B68353B1A00164B1A607C2000F09DF90300012B05D12E4B180004F028FB73
:20334000FFF740FE2C4B180004F022FBC046104B180003F0F9F90300212BF8D001F000F83B
:2033600000F01CFF03F07AFEFEF7C8FFC046BD4603B090BD600000203C00002010A000087E
:20338000300000205400002040A000085CA000087802002074A00008B4A00008D8A00008EB
:2033A000FF1F002000440040FCA0000810A100086C030020003002405000002074000020E9
:2033C00034A5000824A100083CA1000854A100086CA1000890A10008B0A10008C8A1000845
:2033E000B0070020EEEEEEEECCCCCCCCBBBBBBBBDDDDDDDDE8A100080CA2000880B500AF83
:20340000884B1A6D8023DB04134003D0864B180004F04AFB834B1A6D80231B05134003D04A
:20342000824B180004F040FB7E4B1A6D80235B05134003D07E4B180004F036FB794B1A6DAE
:2034400080239B05134003D07A4B180004F02CFB744B1A6D8023DB05134003D0764B180043
:2034600004F022FB6F4B1B6D002B03DA734B180004F01AFB6B4B1A6D80231B0513401BD1D3
:20348000684B1A6D80235B05134015D1654B1B6D002B11DB634B1A6D8023DB04134035D058
:2034A000604B1A6D80239B0513402FD15D4B1A6D8023DB05134029D1614B180004F0F4FA9F
:2034C000584B5A6B574B8021C9030A435A635D4B9A685C4B802149010A439A60514B1A6DC5
:2034E000504B802109040A431A65574B574A1A60554B00225A60544B01229A60524B544A87
:20350000DA60514B180001F043FCFEE7454B1A6D8023DB04134018D0424B1A6D80239B057D
:20352000134012D13F4B1A6D8023DB0513400CD03C4B1A6D3B4B802109040A431A65454BF4
:20354000180004F0B1FAFFF72BFD364B1A6D8023DB04134038D0334B1A6D80239B05134016
:2035600032D0304B1A6D8023DB0513402CD13A4B180004F099FA2B4B5A6B2A4B8021C90333
:203580000A435A632F4B9A682E4B802109010A439A60244B9A6B234B802109010A439A6363
:2035A0002E4B2F4A1A602D4B00225A602B4B4022DA602A4B3F229A60284B00221A61274BE7
:2035C000180003F017FDFEE7164B1A6D8023DB04134017D0134B1A6D80239B05134011D0E7
:2035E000104B1A6D8023DB0513400BD00D4B1A6D0C4B802109040A431A651A4B180004F017
:2036000053FA0CE0074B1A6D064B802109040A431A65154B180004F047FAFFF7C1FCBD466A
:2036200080BDC0460010024030A200083CA2000848A2000854A2000864A2000874A2000819
:2036400080A20008005801404803002000300040FF0F0000B4A20008DCA20008580300205F
:20366000002C004014A3000840A3000880B584B000AF78600F217B1800221A707B181B78AF
:203680001800BD4604B080BD80B500AF054B064A1A60044B1B68DB431A00044B1A60C04647
:2036A000BD4680BD20000020300000202400002080B582B000AFFB1D00221A70234B1B682B
:2036C0001A00234B1B685340013336D11F4B1B68204A934216D920491F4B0022180000F0F9
:2036E000C5F80300012B03D1FB1D04221A7002E0FB1D03221A70154B184A1A60144B184A9C
:203700001A601DE0114B1B6816490022180000F0ADF80300012B0CD10C4B1B6810331A00E2
:203720000A4B1A60094B1B68DB431A00084B1A6006E0FB1D03221A7002E0FB1D01221A708A
:20374000FB1D1B781800BD4602B080BD20000020240000207A000020000000203000002026
:20376000CFFFFFDF040000200000000000000000F8FFFFFF00000000040000000C00000074
:203780000800000010000000140000001C00000018000000012413005B42013B05008D42E4
:2037A00002D82A600435FAE705008D4211D82E68964257D12B606E68964253D16B60EE68BA
:2037C00096424FD1EB60AE6896424BD1AB601035EBE705008D4211D82E689E4242D12A60AA
:2037E0006E689E423ED16A60EE689E423AD1EA60AE689E4236D1AA601035EBE70D000F3D38
:20380000854211D3AE6896422CD1AB60EE68964228D1EB606E68964224D16B602E689642B9
:2038200020D12B60103DEBE70D000F3D854211D3AE689E4216D1AA60EE689E4212D1EA609F
:203840006E689E420ED16A602E689E420AD12A60103DEBE705008D4205D82E68964201D11E
:203860000435F8E70024200070470000F0B4314D2E680B362E6013005B42013B2E4C050043
:203880008D422ED000256659875904354F51142DF9DD0025665982510435142DFADD00257A
:2038A00066598759974242D183510435142DF7DD1825043D665987599F4238D18251002D54
:2038C000F7D8002566598759974230D10435142DF8DD18254F59043D66598751002DF9D871
:2038E0001FE00425665982510435202DFADD04256659875997421AD183510435202DF7DDF7
:203900002425043D665987599F4210D18251042DF7D8042566598759974208D10435202DE9
:20392000F8DD064C25680B3D2560012000E00020F0BC704734000020703700085800002007
:20394000F0B45A48016803310160594801680068884254D157480168006888424FD1012146
:20396000534802680068904249D1524802680068904244D102224E480368006898423ED125
:203980004C4803680068984239D10323484804680068A04233D1474804680068A0422ED128
:2039A0000424434805680068A84228D1414805680068A84223D105253D4806680068B042E9
:2039C0001DD13C4806680068B04218D10626384807680068B84212D1364807680068B84215
:2039E0000DD10727324800688046404507D1314800688046404502D10820804601E0FFF7F2
:203A0000E1FA2B48006881464845F8D12948006881464845F3D10920814625480068824655
:203A20005045ECD12348006882465045E7D10A2082461F48006883465845E0D11D480068A7
:203A400083465845DBD10B2083461948006884466045D4D11748006884466045CFD10C2081
:203A6000844615480129CAD1022AC8D1032BC6D1042CC4D1052DC2D1062EC0D1072FBED1BC
:203A800008204045BBD109204845B8D10A205045B5D10B205845B2D10C206045AFD107487E
:203AA000016803390160F0BC0120704730000020C03A0008C43A0008023A0008540000206C
:203AC000AAAAAAAA5555555500000080A8AAAAAA5455555570B40020C0B2003068D167D417
:203AE000013865D5023063D362D061D47048006800185DD76F480168033101606E48016844
:203B00000068884254D16D480168006888424FD10121694802680068904249D16748026834
:203B20000068904244D1022263480368006898423ED1624803680068984239D103235E487E
:203B400004680068A04233D15C4804680068A0422ED10424584805680068A84228D1574833
:203B600005680068A84223D10525534806680068B0421DD1514806680068B04218D10626A1
:203B80004D4807680068B84212D14C4807680068B8420DD10727484800688046404507D150
:203BA000464800688046404502D10820804601E0FFF708FA4048006881464845F8D13F4896
:203BC000006881464845F3D1092081463A48006882465045ECD13948006882465045E7D173
:203BE0000A2082463448006883465845E0D13348006883465845DBD10B2083462E48006811
:203C000084466045D4D12D48006884466045CFD10C2084462A480129CAD1022AC8D1032B84
:203C2000C6D1042CC4D1052DC2D1062EC0D1072FBED108204045BBD109204845B8D10A2037
:203C40005045B5D10B205845B2D10C206045AFD1EFF309801B49096881F30988EFF30982FB
:203C60008A42A5D11849096881F30988EFF309828A429DD180F30988EFF30880114909684B
:203C800081F30888EFF308828A4291D10E49096881F30888EFF308828A4289D180F3088825
:203CA0000A4801680339016070BC012070470000C83A000830000020C03A0008C43A000846
:203CC000B43B0008CC3A0008D03A00085400002080B500AFC046BD4680BD000080B500AF4B
:203CE000134B5A6980235B001A4080235B009A420ED1C0460F4B1B68DB6940221340402B4B
:203D0000F8D1FEF74DFC0C4B180003F041FE03E00A4B180003F03CFEA023DB050022802118
:203D2000180000F0FDFFFFF74DF9C046BD4680BD00100240780200207CA30008B0A300088F
:203D400080B500AF074B180003F022FEA023DB0500228021180000F0E3FFFFF733F9C0468A
:203D6000BD4680BDC4A3000880B500AF044B180003F00EFEFFF726F9C046BD4680BDC046E9
:203D8000E0A3000880B500AF044B180003F000FEFFF718F9C046BD4680BDC04618A4000845
:203DA00080B582B000AF00F061FB404B1A68404B1B685340013300D073E03C4B1B685A1C1C
:203DC0003A4B1A60394B1B68DA43394B1A60374B1B68092B65D9A023DB052021180000F05F
:203DE000BCFF324B00221A60314B012252421A60304B314A1A60314B314A1A60314B1B6862
:203E0000DA1D304B1A6072B6C046FFF751FC03007B6062B6C0462C4B1B68DA1F2A4B1A6067
:203E20007B68002B13D07B68042B09D12320FEF73BFCA023DB052021180000F08EFF07E0D6
:203E4000224B180003F0A4FDFFF7BCF800E0C0461C4B1A681C4B1B685340013315D17B6856
:203E6000042B18D1174B1B686C2B06D0184B180003F08EFDFFF7A6F80DE0124B00221A6065
:203E8000114B012252421A6005E0124B180003F07FFDFFF797F8A023DB052021180000F05B
:203EA0005CFFC046BD4602B080BDC0463C0000206000002040000020AAAAAAAA6400002041
:203EC00055555555340000205800002030A4000870A4000894A4000880B582B000AF1C4B0D
:203EE0001B69022213402ED0BB1D1A4A12881A80174B5B6B9AB2174B1A80174B1B68002BD9
:203F000021D1134B1A6980239B00134015D1114B1B889AB2BB1D1B88D31A9BB21A000F4BE3
:203F20001A600E4B1B68DA430D4B1A600A4B0D4A1A600D4B0D4A1A6005E0054B1A69044BE6
:203F40000B490A401A61C046BD4602B080BDC0460008014090030020440000203800002092
:203F60005C000020AAAAAAAA6800002055555555FFFD000090B597B000AF57243B19002219
:203F80001A70324B5A6B314B04210A435A6300220021142000F032FB142000F044FB14207F
:203FA0003B182B4A1A603B1800225A603B1800229A603B1801225242DA603B1800221A61ED
:203FC0003B183922002199543B18180001F010FF031E02D03B1901221A7014243B19142105
:203FE000180002F04EFA3B1D00221A603B1D01225A603B1D0C229A603B1D0022DA60391DBC
:204000003B190022180002F003F8031E03D05723FB1801221A7014217B181B6800221A610F
:204020000C4B00221A607B180021180001F028FF031E03D05723FB1801221A705723FB18EE
:204040001B781800BD4617B090BDC04600100240000801404400002080B500AF0123180079
:20406000BD4680BD80B582B000AF7860396002F0EFFF030016221A6001235B421800BD4608
:2040800002B080BD80B582B000AF786001235A427B6811001800FFF7E5FFFEE780B586B04D
:2040A00000AFF860B9607A6000237B610AE000E000BF0100BB685A1CBA60CAB21A707B69E0
:2040C00001337B617A697B689A42F0DB7B681800BD4606B080BD80B582B000AF7860012360
:2040E0005B421800BD4602B080BD80B582B000AF786039603B68802292015A6000231800C5
:20410000BD4602B080BD80B582B000AF786001231800BD4602B080BD80B584B000AFF86021
:20412000B9607A6000231800BD4604B080BD000080B586B000AF7860144A154BD31A7B61E4
:204140007B693B61134B1B68002B02D1114B124A1A60104B1A687B68D3183A699A4207D2CB
:2041600002F076FF03000C221A6001235B4209E0084B1B68FB60074B1A687B68D218054B61
:204180001A60FB681800BD4606B080BD002000200008000094030020B003002080B500AF7E
:2041A000174B1A68164B802149000A431A60144BDA68134B13490A40DA60114B1A68104BF1
:2041C00011490A401A600E4B9A680D4B01218A439A600B4B1A680A4B0C490A401A60084B8C
:2041E000DA68074B0A490A40DA60054B00221A61084B802212059A60C046BD4680BDC04615
:20420000001002400C40FF88F6FFF6FEFFFFFBFFFFFF02FF00ED00E080B586B000AF00238F
:204220007B6100233B610023FB600023BB6000237B60454BDB680C2213407B617B690C2BDE
:2042400025D07B690C2B5ED87B69082B1BD07B69082B58D87B69002B03D07B69042B0ED0FC
:2042600051E0394B5B685B0B072213407B607B680133802212029A40344B1A6051E0334BBA
:20428000334A1A604DE0314B324A1A6049E02E4BDA68F0239B0313403B612B4BDA68C02369
:2042A0001B041340FB603B699B0C2B4AD35C3B61FB689B0D0133FB60234BDA6880235B025C
:2042C0001340BB60BB68002B11D139690A005201521A93019B1ADB005B189B02F968180028
:2042E000FBF72EFF03001A00184B1A6019E03B69184A5343F9681800FBF722FF03001A0067
:20430000124B1A600DE0104B5B685B0B072213407B607B680133802212029A400B4B1A6087
:20432000C046094BDB681B090F2213400B4AD35C7B61064B1A687B69DA40044B1A60C04638
:20434000BD4606B080BDC04600100240800000200024F40000D4300078A5000860A5000821
:20436000002103E0084B5B58435004310748084B42189A42F6D3074A02E0002313600432CB
:20438000054B9A42F9D37047B4A90008800000205C0200205C020020AC0300200648854685
:2043A000FFF7DEFF05480047FFF7F8FE02F056FEFDF7A4FFFEE7000000200020FD2F000874
:2043C000FEE7000080B582B000AFFB1D00221A700B4B1A680A4B40210A431A60032000F0B6
:2043E00011F8031E03D0FB1D01221A7001E0FFF76FFCFB1D1B781800BD4602B080BDC046FE
:204400000020024090B583B000AF7860144B1C68144B1B781900FA239800FBF791FE030014
:2044200019002000FBF78CFE0300180000F00BF9031E01D001230FE07B68032B0BD87968DE
:2044400001235B420022180000F0D8F8064B7A681A60002300E001231800BD4603B090BDB2
:2044600080000020880000208400002080B500AF054B1B781A00054B1B68D218034B1A60EA
:20448000C046BD4680BDC046880000209803002080B500AF024B1B681800BD4680BDC0465B
:2044A0009803002080B582B000AF0200FB1D1A70FB1D1B787F2B09D8FB1D1B781A001F234A
:2044C0001A40044B012191400A001A60C046BD4602B080BD00E100E090B583B000AF0200DA
:2044E0003960FB1D1A70FB1D1B787F2B28D82F4AFB1D1B785BB29B08C0339B009B58FA1DC0
:204500001278110003220A40D200FF2191400A00D2431A4011003B689B01FF221A40FB1D72
:204520001B78180003230340DB009A401F48FB1D1B785BB29B080A43C0339B001A5031E09A
:204540001B4AFB1D1B7819000F230B40083B9B0806339B00D31804331B68FA1D12781100A4
:2045600003220A40D200FF2191400A00D2431A4011003B689B01FF221A40FB1D1B78180002
:2045800003230340DB009A400948FB1D1B781C000F232340083B9B080A4306339B00C3186E
:2045A00004331A60C046BD4603B090BD00E100E000ED00E080B582B000AF78607B685A1E6A
:2045C00080235B049A4201D3012310E00A4B7A68013A5A6001235B4203211800FFF77CFF7B
:2045E000054B00229A60044B07221A6000231800BD4602B080BDC04610E000E080B584B0F1
:2046000000AFB9607A600F217B18021C1A70BA687B181B785BB211001800FFF75DFFC046B7
:20462000BD4604B080BD80B582B000AF0200FB1D1A70FB1D1B785BB21800FFF733FFC046CE
:20464000BD4602B080BD80B582B000AF78607B681800FFF7AFFF03001800BD4602B080BDCE
:2046600080B582B000AF78607B68002B01D1012356E07B685B7FDBB2002B06D17B680022C1
:204680001A777B68180000F051F87B6802225A777B681B79002B0CD17B681B68224A5A6171
:2046A0007B681B689A687B681B6818218A439A600BE07B6899687B68DA687B68180000F04D
:2046C0004CF9031E01D001232AE07B685B79002B05D17B681B68012252421A6104E07B685E
:2046E0001B687A6812691A617B681B689B686022934319007B685A697B681B680A439A6032
:204700007B681B689B688022934319007B689A697B681B680A439A607B6801225A77002312
:204720001800BD4602B080BDB71DC10480B582B000AF7860C046BD4602B080BD80B586B085
:2047400000AFF860B9607A6000233B61FB6802225A77FB681B6A032B05D02DD8012B19D043
:20476000022B20D028E000237B610AE07B699B00BA68D218FB681B6812681A607B690133AE
:204780007B617A697B689A42F0D3FB681B681B683B6112E07A68B968FB68180000F015F866
:2047A00003003B6109E07A68B968FB68180000F09DF803003B6100E0C046FB6801225A7792
:2047C0003B691800BD4606B080BD80B588B000AFF860B9607A600023FB6123E0FB699B003F
:2047E000BA68D3181B781A06FB699B000133B968CB181B781B041A43FB699B000233B9685E
:20480000CB181B781B021A43FB699B000333B968CB181B781900FB681B680A431A60FB69B2
:204820000133FB617B689B08FA699A42D6D37B680322134053D07B6803221340012B07D19D
:20484000FB699B00BA68D218FB681B6812781A707B6803221340022B19D1FB699B00BA68C0
:20486000D3181B781B021AB2FB699B000133B968CB181B781BB213431AB21A217B181A80B0
:20488000FB681B687B617B697A1812881A807B6803221340032B22D1FB699B00BA68D31824
:2048A0001B781B021AB2FB699B000133B968CB181B781BB213431AB21A217B181A80FB68F8
:2048C0001B687B617B697A1812881A80FB699B000233BA68D218FB681B6812781A70FB6832
:2048E0001B681B681800BD4608B080BD80B586B000AFF860B9607A6000237B6113E07B6967
:204900009B00BA68D3181B881A047B699B000233B968CB181B881900FB681B680A431A600D
:204920007B6901337B617B685B087A699A42E6D37B680122134009D0FB681B683B617B692D
:204940009B00BA68D3181A883B691A80FB681B681B681800BD4606B080BD80B586B000AF3E
:20496000F860B9607A601723FB1800221A701F233B61C0463B695A1E3A61002B08D03B69B1
:204980001F221340BA68DA40130001221340F1D07B68182B0FD07B68182B24D87B68102BB8
:2049A00011D07B68102B1ED87B68002B20D07B68082B10D017E03B69062B1BD91723FB1801
:2049C00001221A7016E03B69072B15D91723FB1801221A7010E03B690F2B0FD91723FB1873
:2049E00001221A700AE01723FB1801221A7006E0C04604E0C04602E0C04600E0C046172348
:204A0000FB181B78002B0ED1FB681B68BA685A61FB681B689B68182293431900FB681B682B
:204A20007A680A439A601723FB181B781800BD4606B080BD80B586B000AF786039600023B1
:204A40007B610023FB6000233B614FE13B681B6801217A6991400A001340FB60FB68002BCB
:204A600000D140E13B685B6803221340012B05D03B685B6803221340022B30D17B689B6873
:204A80003B617B695B0003229A401300DA433B6913403B613B68DA687B695B009A40130068
:204AA0003A6913433B617B683A699A607B685B683B6101227B699A401300DA433B69134097
:204AC0003B613B685B681B0901221A407B699A4013003A6913433B617B683A695A603B68EA
:204AE0005B6803221340032B17D07B68DB683B617B695B0003229A401300DA433B6913403F
:204B00003B613B689A687B695B009A4013003A6913433B617B683A69DA603B685B68032248
:204B20001340022B23D17B69DA087B6808329200D3583B617B69072213409B000F229A40BF
:204B40001300DA433B6913403B613B681A697B6907210B409B009A4013003A6913433B61F8
:204B60007B69DA087B68083292003969D1507B681B683B617B695B0003229A401300DA438D
:204B80003B6913403B613B685B6803221A407B695B009A4013003A6913433B617B683A6956
:204BA0001A603B685A68C0239B02134000D19AE0544B5A6B534B01210A435A63524A7B694A
:204BC0009B0802339B009B583B617B69032213409B000F229A401300DA433B6913403B610E
:204BE0007A68A023DB059A4219D07B68474A934213D07B68464A93420DD07B68454A9342D3
:204C000007D07B68444A934201D1052308E0062306E0032304E0022302E0012300E000234E
:204C20007A6903210A40920093403A6913433B6135497B699B0802339B003A695A50374B85
:204C40001B683B61FB68DA433B6913403B613B685A6880235B02134003D03A69FB6813433B
:204C60003B612E4B3A691A602C4B5B683B61FB68DA433B6913403B613B685A6880239B0274
:204C8000134003D03A69FB6813433B61234B3A695A60224B9B683B61FB68DA433B691340A8
:204CA0003B613B685A6880235B03134003D03A69FB6813433B61194B3A699A60174BDB682E
:204CC0003B61FB68DA433B6913403B613B685A6880239B03134003D03A69FB6813433B6161
:204CE0000E4B3A69DA607B6901337B613B681A687B69DA40131E00D0A8E6C046C046BD46C9
:204D000006B080BD00100240000001400004005000080050000C0050001C00500004014054
:204D200080B582B000AF786008001100BB1C021C1A807B1C0A1C1A707B1C1B78002B04D06D
:204D4000BB1C1A887B689A6103E0BB1C1A887B689A62C046BD4602B080BD80B584B000AFB1
:204D600078600A00BB1C1A807B685B69FB60BB1C1B88FA6813401A04FB68DB43B91C0988AA
:204D80000B401A437B689A61C046BD4604B080BD80B584B000AF78607B68002B01D101239F
:204DA0003DE07B681B68204A1A607B681B681F4A1A607B681B687A6852685A607B681B6821
:204DC0007A6892689A60FFF763FB0300FB600EE0FFF75EFB0200FB68D31A2A2B07D97B68A4
:204DE0001B68DB680722134001D0032317E07B681B68DB6807221340EAD17B681B681A69BA
:204E00007B68DB689A4205D07B681B687A68D2681A6103E07B681B68054A1A600023180071
:204E2000BD4604B080BDC046CCCC000055550000AAAA0000B0B58AB000AF78607B68002BAE
:204E400002D1012300F0AFFBCF4BDB680C2213403B62CD4BDA6880235B021340FB617B685A
:204E60001B680122134000D17EE03B6A082B07D03B6A0C2B12D1FA6980235B029A420DD17F
:204E8000C14B1A6880239B02134000D16BE07B685B68002B67D1012300F085FB7B685A6893
:204EA00080235B029A4207D1B74B1A68B64B802149020A431A6027E07B685A68A023DB02BA
:204EC0009A420ED1B04B1A68AF4B8021C9020A431A60AD4B1A68AC4B802149020A431A6049
:204EE00012E0A94B1A68A84BA8490A401A60A64B1A6880235B021340FB60FB68A24B1A68AF
:204F0000A14BA3490A401A607B685B68002B15D0FFF7BEFA0300BB6109E0FFF7B9FA0200DE
:204F2000BB69D31A642B02D9032300F03CFB964B1A6880239B021340EFD015E0FFF7A8FA67
:204F40000300BB6108E0FFF7A3FA0200BB69D31A642B01D9032326E38B4B1A6880239B0274
:204F60001340F0D100E0C0467B681B680222134000D18BE07B68DB687B613B6A042B05D073
:204F80003B6A0C2B3ED1FB69002B3BD17E4B1B680422134004D07B69002B01D1012302E308
:204FA000794B5B687B4A134019007B681B691A02754B0A435A60744B1B6809229343190093
:204FC000714B7A690A431A6000F0D2FC01006E4BDB681B090F2213406F4AD35C0A00DA40FC
:204FE0006E4B1A606E4B1B6813257C191800FFF709FA030023707B191B78002B46D07B19D2
:205000001B78D0E27B69002B27D05F4B1B680922934319005C4B7A690A431A60FFF738FA85
:205020000300BB6108E0FFF733FA0200BB69D31A022B01D90323B6E2534B1B6804221340D4
:20504000F1D0514B5B68534A134019007B681B691A024D4B0A435A6018E04B4B1A684A4B60
:2050600001218A431A60FFF713FA0300BB6108E0FFF70EFA0200BB69D31A022B01D903237F
:2050800091E2414B1B6804221340F1D17B681B681022134000D1A1E03B6A002B40D13A4BB0
:2050A0001A6880239B00134005D07B68DB69002B01D1012377E2344B5B683A4A1340190035
:2050C0007B685A6A304B0A435A602F4B5B681B02190A7B681B6A1A062B4B0A435A607B6842
:2050E0005B6A5B0B0133802212029A40264BDB681B090F210B402849CB5CDA40274B1A60D0
:20510000274B1B6813257C191800FFF77BF9030023707B191B78002B60D07B191B7842E2E8
:205120007B68DB69002B3FD0174B1A68164B802149000A431A60FFF7ABF90300BB6108E077
:20514000FFF7A6F90200BB69D31A022B01D9032329E20D4B1A6880239B001340F0D00A4BEF
:205160005B68104A134019007B685A6A064B0A435A60054B5B681B02190A7B681B6A1A06CC
:20518000014B0A435A6029E000100240FFFFFEFFFFFFFBFFFFE0FFFF60A5000880000020E4
:2051A00084000020FF1FFFFFBD4B1A68BC4BBD490A401A60FFF76CF90300BB6108E0FFF77C
:2051C00067F90200BB69D31A022B01D90323EAE1B34B1A6880239B001340F0D17B681B682C
:2051E0000822134036D07B685B69002B19D0AC4B1A6DAB4B01210A431A65FFF749F90300D4
:20520000BB6108E0FFF744F90200BB69D31A022B01D90323C7E1A24B1B6D02221340F1D0C2
:2052200018E09F4B1A6D9E4B01218A431A65FFF72FF90300BB6108E0FFF72AF90200BB694A
:20524000D31A022B01D90323ADE1954B1B6D02221340F1D17B681B680422134000D1AEE0C7
:2052600027203B1800221A708D4B9A6B80235B05134009D18A4B9A6B894B802149050A43F1
:205280009A633B1801221A70874B1A6880235B0013401AD1844B1A68834B802149000A432B
:2052A0001A60FFF7F5F80300BB6108E0FFF7F0F80200BB69D31A642B01D9032373E17A4BF1
:2052C0001A6880235B001340F0D07B689A6880235B009A4207D1724B1A6D714B80214900BA
:2052E0000A431A6531E07B689B68002B0CD16C4B1A6D6B4B6B490A401A65694B1A6D684B84
:205300006A490A401A6520E07B689A68A023DB009A420ED1624B1A6D614B8021C9000A433C
:205320001A655F4B1A6D5E4B802149000A431A650BE05B4B1A6D5A4B5A490A401A65584B92
:205340001A6D574B59490A401A657B689B68002B15D0FFF79DF80300BB6109E0FFF798F8AA
:205360000200BB69D31A524A934201D903231AE14B4B1A6D80239B001340EFD014E0FFF757
:2053800087F80300BB6109E0FFF782F80200BB69D31A474A934201D9032304E1404B1A6DA6
:2053A00080239B001340EFD12723FB181B78012B05D13B4B9A6B3A4B3E490A409A637B68E9
:2053C0001B682022134049D07B689B69002B26D0334B9A68324B01210A439A60304B5A6BEE
:2053E0002F4B01210A435A63334B1A6A324B802189010A431A62FFF74BF80300BB6108E054
:20540000FFF746F80200BB69D31A022B01D90323C9E0234B9B6802221340F1D01EE0204B5D
:205420009A681F4B01218A439A60234B1A6A224B22490A401A62FFF72BF80300BB6108E067
:20544000FFF726F80200BB69D31A022B01D90323A9E0134B9B6802221340F1D17B689B6AED
:20546000002B00D19EE03B6A0C2B00D177E07B689B6A022B58D10A4B1A68094B10490A40A2
:205480001A60FFF705F80300BB611BE0FFF700F80200BB69D31A022B14D9032383E0C046DB
:2054A00000100240FFFEFFFF00700040FFFBFFFF88130000FFFFFFEF00000140FFDFFFFF53
:2054C000FFFFFFFE3A4B1A6880239B041340DDD1374BDB68374A134019007B68DA6A7B68CB
:2054E0001B6B1A437B685B6B1A43314B0A43DA602F4B1A682E4B802149040A431A60FEF7A1
:20550000C7FF0300BB6108E0FEF7C2FF0200BB69D31A022B01D9032345E0254B1A6880230E
:205520009B041340F0D03DE0214B1A68204B22490A401A60FEF7ACFF0300BB6108E0FEF778
:20554000A7FF0200BB69D31A022B01D903232AE0174B1A6880239B041340F0D122E07B683C
:205560009B6A012B01D101231DE0114BDB68FB61FA6980235B021A407B68DB6A9A420FD16B
:20558000FA69F0239B031A407B681B6B9A4207D1FA69C0231B041A407B685B6B9A4201D06B
:2055A000012300E000231800BD460AB0B0BDC04600100240FFFF02FFFFFFFFFEB0B584B097
:2055C00000AF786039607B68002B01D1012328E1964B1B68012213403A689A421ED9934B71
:2055E0001B68012293431900904B3A680A431A60FEF74EFF0300FB6009E0FEF749FF02000A
:20560000FB68D31A8A4A934201D9032309E1874B1B68012213403A689A42EED17B681B6839
:205620000222134009D0834BDB68F022934319007B689A687F4B0A43DA607B681B68012249
:20564000134000D189E07B685B68022B07D1794B1A6880239B02134020D10123E1E07B6880
:205660005B68032B07D1734B1A6880239B04134014D10123D5E07B685B68012B06D16D4B6D
:205680001B680422134009D10123CAE0694B1A6880239B00134001D10123C2E0654BDB6814
:2056A0000322934319007B685A68624B0A43DA60FEF7EEFE0300FB607B685B68022B11D109
:2056C00009E0FEF7E5FE0200FB68D31A584A934201D90323A5E0574BDB680C221340082B22
:2056E000EFD13AE07B685B68032B11D109E0FEF7CFFE0200FB68D31A4D4A934201D90323B1
:205700008FE04C4BDB680C2213400C2BEFD124E07B685B68012B1BD109E0FEF7B9FE02006F
:20572000FB68D31A424A934201D9032379E0414BDB680C221340042BEFD10EE0FEF7A8FE97
:205740000200FB68D31A3A4A934201D9032368E0384BDB680C221340F0D1344B1B68012229
:2057600013403A689A421ED2304B1B680122934319002E4B3A680A431A60FEF789FE0300F7
:20578000FB6009E0FEF784FE0200FB68D31A284A934201D9032344E0244B1B680122134029
:2057A0003A689A42EED17B681B680422134009D0204BDB68204A134019007B68DA681D4BE3
:2057C0000A43DA607B681B68082213400AD0194BDB681A4A134019007B681B69DA00154B6D
:2057E0000A43DA6000F0C4F80100124BDB681B090F221340124AD35C0A00DA40114B1A60A8
:20580000114B1B680B257C191800FEF7FBFD030023707B191B78002B02D07B191B7800E01E
:2058200000231800BD4604B0B0BDC046002002408813000000100240FFF8FFFFFFC7FFFFFB
:2058400060A50008800000208400002090B58DB000AFF860B9607A601C243B191800142398
:205860001A00002101F01EFC20003B1802225A603B180222DA603B1800229A60FB68002BE3
:205880001AD13B18802252001A603B1800221A612D4BDA6A2C4B01210A43DA622A4BDB6AD4
:2058A00001221340BB61BB693A18A023DB0511001800FFF7BFF838E0FB68022B1AD11C2098
:2058C0003B18802292011A603B1800221A611E4BDA6A1D4B02210A43DA621B4BDB6A022246
:2058E00013407B617B693B18184A19001000FFF7A1F81AE01C203B18802292001A603B189E
:2059000000221A61104BDA6A0F4B01210A43DA620D4BDB6A012213403B613B693A18A023DE
:20592000DB0511001800FFF785F8074BDB68084A13401900BA687B681A43034B0A43DA6061
:20594000C046BD460DB090BD0010024000040050FFFFFF8080B500AF044B1A68034B80216D
:2059600009030A431A60C046BD4680BD00100240B0B58EB000AF4C4BDB68FB62FA6A0C23A0
:2059800013400C2B14D000D97BE0042B02D0082B0BD076E0444B1B681022134002D0434B09
:2059A0003B637CE0424B3B6379E0424B3B6376E0FB6A9A0C0F231A403F4B9B5CBB62FB6A4E
:2059C0009A0D0323134001337B62374BDA6880235B0213401AD0BB6ABB610023FB61354A56
:2059E0000023B869F969FAF77FFD02000B00100019007B6A3B6100237B613A697B69FAF766
:205A000053FD02000B0013007B6337E0264B1B68102213401AD0BB6ABB600023FB60234A93
:205A20000023B868F968FAF75FFD02000B00100019007B6A3B6000237B603A687B68FAF74B
:205A400033FD02000B0013007B6317E0BB6A180000231900164A0023FAF746FD02000B00E4
:205A6000100019007B6A1C0000231D0022002B00FAF71AFD02000B0013007B637B6B3B63E5
:205A80000DE0094B5B685B0B072213403B623B6A0133802212029A4013003B63C0463B6BBD
:205AA0001800BD460EB0B0BD0010024000093D000024F40000D4300078A5000880B500AFE3
:205AC000024B1B681800BD4680BDC0468000002080B500AFFFF7F2FF0100064BDB681B0A73
:205AE00007221340044AD35CD9400B001800BD4680BDC0460010024070A5000880B500AFD8
:205B0000FFF7DCFF0100064BDB68DB0A07221340044AD35CD9400B001800BD4680BDC046BF
:205B20000010024070A5000880B586B000AF78601723FB1800221A707B681B682022134010
:205B400006D17B681A6880231B01134000D1D9E09C4B9A6B80235B0513400AD1994B9A6B67
:205B6000984B802149050A439A631723FB1801221A70954B1A6880235B0013401AD1924B94
:205B80001A68914B802149000A431A60FEF780FC03003B6108E0FEF77BFC02003B69D31AFF
:205BA000642B01D9032308E1874B1A6880235B001340F0D0834B1A68C0239B031340FB6089
:205BC0007B685A68C0239B031340FA689A4207D17B689A68C0239B031340FA689A4213D05C
:205BE0007B685A68C0239B021A40C0239B029A420AD1744B1A6880239B021A4080239B02D4
:205C00009A4201D10123D8E06E4B1A6DC0239B021340FB60FB68002B49D07B685A68C0235D
:205C20009B021340FA689A4204D07B681B68202213400DD17B689A68C0239B021340FA686F
:205C40009A4234D07B681A6880231B0113402ED05C4B1B6D5D4A1340FB605A4B1A6D594B9B
:205C6000802109030A431A65564B1A6D554B58490A401A65534BFA681A65FA6880235B009A
:205C8000134014D0FEF704FC03003B6109E0FEF7FFFB02003B69D31A4E4A934201D9032361
:205CA0008BE0484B1A6D80239B001340EFD07B685A68C0239B021A40C0239B029A420CD157
:205CC000404B1B68444A134019007B685A68C0239B031A403B4B0A431A603A4B196D7B6801
:205CE0005A68C0239B021A40364B0A431A651723FB181B78012B05D1324B9A6B314B37495B
:205D00000A409A637B681B680122134009D02D4BDB6C0322934319007B68DA68294B0A43CE
:205D2000DA647B681B680222134009D0254BDB6C0C22934319007B681A69224B0A43DA643D
:205D40007B681B680422134009D01E4BDB6C244A134019007B685A691A4B0A43DA647B6888
:205D60001B680822134009D0164BDB6C1D4A134019007B689A69134B0A43DA647B681B689A
:205D80004022134009D00F4BDB6C174A134019007B681A6A0B4B0A43DA647B681B688022B7
:205DA000134009D0074BDB6C104A134019007B68DA69044B0A43DA6400231800BD4606B064
:205DC00080BDC0460010024000700040FFFFFCFFFFFFF7FF88130000FFFFCFFFFFFFFFEF3E
:205DE000FFF3FFFFFFCFFFFFFFFFFFFBFFFFF3FF80B582B000AF78607B68002B01D101230D
:205E000032E07B6839229B5CDBB2002B07D17B683822002199547B68180000F029F87B6871
:205E20003922022199547B681A687B6804331900100000F091F97B683E22012199547B68A0
:205E40003A22012199547B683B22012199547B683C22012199547B683D22012199547B6804
:205E600039220121995400231800BD4602B080BD80B582B000AF7860C046BD4602B080BDA5
:205E800080B584B000AF786039600F23FB1800221A703B68002B04D17B683A229B5CDBB222
:205EA00013E03B68042B04D17B683B229B5CDBB20BE03B68082B04D17B683C229B5CDBB229
:205EC00003E07B683D229B5CDBB20E217A1813707B181B78012B01D0012390E03B68002B50
:205EE00004D17B683A220221995413E03B68042B04D17B683B22022199540BE03B68082BD3
:205F000004D17B683C220221995403E07B683D22022199543B680C2B2AD03B680C2B30D870
:205F20003B68082B1BD03B68082B2AD83B68002B03D03B68042B09D023E07B681B68DA68D1
:205F40007B681B6802210A43DA601FE07B681B68DA687B681B6804210A43DA6016E07B689F
:205F60001B68DA687B681B6808210A43DA600DE07B681B68DA687B681B6810210A43DA6093
:205F800004E00F23FB1801221A70C0460F23FB181B78002B30D17B681B68396801221800DF
:205FA00000F04CFA7B681A688023DB059A4209D07B681B68144A934204D07B681B68134ADE
:205FC000934211D17B681B689B6807221340BB60BB68062B10D07B681B681A687B681B6888
:205FE00001210A431A6007E07B681B681A687B681B6801210A431A600F23FB181B781800AA
:20600000BD4604B080BDC046000801400014014080B586B000AFF860B9607A601723FB1836
:2060200000221A70FB6838229B5C012B01D102238CE0FB683822012199547B68002B1BD1AB
:20604000FB681868BB681968BB685A68BB68DB6800F0D6F8FB681B689A69FB681B680C21B4
:206060008A439A61FB681B689969BB689A68FB681B680A439A6162E07B68042B1CD1FB6879
:206080001868BB681968BB685A68BB68DB6800F00DF9FB681B689A69FB681B682D490A400C
:2060A0009A61FB681B689969BB689B681A02FB681B680A439A6142E07B68082B1BD1FB6806
:2060C0001868BB681968BB685A68BB68DB6800F02FF9FB681B68DA69FB681B680C218A4330
:2060E000DA61FB681B68D969BB689A68FB681B680A43DA6123E07B680C2B1CD1FB681868BD
:20610000BB681968BB685A68BB68DB6800F050F9FB681B68DA69FB681B680E490A40DA616C
:20612000FB681B68D969BB689B681A02FB681B680A43DA6103E01723FB1801221A70FB6847
:206140003822002199541723FB181B781800BD4606B080BDFFF3FFFF80B584B000AF786009
:2061600039607B681B68FB607A688023DB059A4207D07B681F4A934203D07B681E4A934299
:2061800008D1FB6870229343FB603B685B68FA681343FB607A688023DB059A4207D07B688C
:2061A000144A934203D07B68134A934208D1FB68124A1340FB603B68DB68FA681343FB6085
:2061C000FB68802293431A003B681B691343FB607B68FA681A603B689A687B68DA623B68CC
:2061E0001A687B689A627B6801225A61C046BD4604B080BD0008014000140140FFFCFFFFEC
:2062000080B586B000AFF860B9607A603B60FB681B6A012293431A00FB681A62FB689B693D
:206220007B61FB681B6A3B61FA688023DB059A4207D0FB681B4A934203D0FB681A4A93425A
:2062400001D1012300E00023002B08D07B69032293437B617A697B6813437B6103E07B69C8
:20626000012213437B617B69F02293437B613B681B01FF2213407A6913437B613B690A2209
:2062800093433B61BB680A2213403A6913433B61FB687A699A61FB683A691A62C046BD4689
:2062A00006B080BD000801400014014080B586B000AFF860B9607A603B60FB681B6A102233
:2062C00093431A00FB681A62FB689B697B61FB681B6A3B617B69144A13407B617B681B02B7
:2062E0007A6913437B617B69104A13407B613B681B031B041B0C7A6913437B613B69A0229A
:2063000093433B61BB681B01A02213403A6913433B61FB687A699A61FB683A691A62C04659
:20632000BD4606B080BDC046FFFCFFFFFF0FFFFF80B586B000AFF860B9607A603B60FB68F9
:206340001B6A194A1A40FB681A62FB68DB697B61FB681B6A3B617B69032293437B617A6977
:206360007B6813437B617B69F02293437B613B681B01FF2213407A6913437B613B690B4A1F
:2063800013403B61BB681A02A0231B0113403A6913433B61FB687A69DA61FB683A691A6205
:2063A000C046BD4606B080BDFFFEFFFFFFF5FFFF80B586B000AFF860B9607A603B60FB6891
:2063C0001B6A1A4A1A40FB681A62FB68DB697B61FB681B6A3B617B69154A13407B617B683F
:2063E0001B027A6913437B617B69124A13407B613B681B031B041B0C7A6913437B613B693C
:206400000D4A13403B61BB681A03A0231B0213403A6913433B61FB687A69DA61FB683A69A7
:206420001A62C046BD4606B080BDC046FFEFFFFFFFFCFFFFFF0FFFFFFF5FFFFF80B586B026
:2064400000AFF860B9607A60BB681F22134001229A4013007B61FB681B6A7A69D2431A4065
:20646000FB681A62FB681A6ABB681F210B40796899400B001A43FB681A62C046BD4606B0E8
:2064800080BD80B582B000AF786039607B6838229B5C012B01D102230CE07B683822012196
:2064A00099547B681B683A681A657B6838220021995400231800BD4602B080BD80B582B089
:2064C00000AF78607B68002B01D1012344E07B689B6F002B07D17B687422002199547B68B3
:2064E000180000F079F87B6824229A677B681B681A687B681B6801218A431A607B68180047
:2065000000F034F90300012B01D1012324E07B685B6A002B03D07B68180000F0ABFB7B681B
:206520001B685A687B681B680D490A405A607B681B689A687B681B682A218A439A607B6893
:206540001B681A687B681B6801210A431A607B68180000F043FC03001800BD4602B080BDB0
:20656000FFB7FFFF80B582B000AF78607B68002B01D101232CE07B6824229A677B681B68D9
:206580001A687B681B6801218A431A607B681B6800221A607B681B6800225A607B681B6800
:2065A00000229A607B68180000F01EF87B688022002199507B6800229A677B680022DA67E3
:2065C0007B6800221A667B6874220021995400231800BD4602B080BD80B582B000AF786094
:2065E000C046BD4602B080BD80B582B000AF7860C046BD4602B080BD80B58AB002AFF86045
:20660000B9603B60BB1D1A80FB689B6F202B00D095E0BB68002B03D0BB1D1B88002B01D1BE
:2066200001238DE0FB689A6880235B019A4209D1FB681B69002B05D1BB680122134001D05D
:2066400001237DE0FB6874229B5C012B01D1022376E0FB68742201219954FB688022002122
:206660009950FB6821229A67FDF712FF03007B61FB68BA1D502112885A52FB68BA1D522108
:2066800012885A52FB689A6880235B019A4208D1FB681B69002B04D10023FB61BB68BB61F6
:2066A00003E0BB68FB610023BB61FB687422002199542CE07A69F8683B6800931300002278
:2066C000802100F0D3FB031E01D0032338E0FB69002B0BD1BB691B881A00FB681B68D20522
:2066E000D20D9A62BB690233BB6107E0FB691A78FB681B689A62FB690133FB61FB685222C0
:206700009B5A9BB2013B99B2FB6852229952FB6852229B5A9BB2002BCCD17A69F8683B6827
:20672000009313000022402100F0A0FB031E01D0032305E0FB6820229A67002300E00223DA
:206740001800BD4608B080BD80B584B000AF78607B689B6FFB607B68DB6FBB60FA68BB6824
:2067600013431800BD4604B080BD0000B0B58EB000AFF8611A2318229B18DB1900221A7042
:20678000FB699A68FB691B691A43FB695B691A43FB69DB6913437B63FB691B681B68C64A73
:2067A00013401900FB691B687A6B0A431A60FB691B685B68C14A13401900FB69DA68FB69AF
:2067C0001B680A435A60FB699B697B63FB691B68BB4A934204D0FB691B6A7A6B13437B6352
:2067E000FB691B689B68B74A13401900FB691B687A6B0A439A60FB691B68B34A934231D174
:20680000B24BDB6C03221340032B1DD023D8022B0CD020D8002B02D0012B0ED01BE01B2365
:2068200018229B18DB1901221A709CE01B2318229B18DB1902221A7095E01B2318229B18E1
:20684000DB1904221A708EE01B2318229B18DB1908221A7087E01B2318229B18DB1910229B
:206860001A7080E0FB691B68994A934231D1974BDB6C0C2213400C2B1DD023D8082B0CD0B5
:2068800020D8002B02D0042B0ED01BE01B2318229B18DB1900221A7065E01B2318229B18C0
:2068A000DB1902221A705EE01B2318229B18DB1904221A7057E01B2318229B18DB190822A9
:2068C0001A7050E01B2318229B18DB1910221A7049E0FB691B687A4A93423ED17B4BDA6C5F
:2068E000C0231B011340C0221201934227D0C022120193422AD880221201934211D08022AC
:206900001201934222D8002B04D08022D20093420ED01BE01B2318229B18DB1900221A70A9
